:1000000067C600000C940C130C94E1120C94B61209
:100010000C948B120C9460120C9435120C940A12EE
:100020000C94DF1186C6000084C6000082C6000062
:1000300080C600007EC600007CC600007AC60000B4
:1000400078C6000076C6000074C6000072C60000C4
:1000500070C600006EC600006CC600000C949511BE
:1000600068C600000C945F110C94351162C6000044
:1000700060C600005EC600005CC600005AC60000F4
:1000800058C6000056C6000054C6000052C6000004
:1000900050C600004EC600004CC600000C9437133A
:1000A00048C6000046C6000044C6000042C6000024
:1000B00040C600003EC600003CC600003AC6000034
:1000C00038C6000036C6000034C6000032C6000044
:1000D00030C600002EC600002CC600002AC6000054
:1000E00028C60000084AD73B3BCE016E84BCBFFD4A
:1000F000C12F3D6C74319ABD56833DDA3D00C77FF8
:1001000011BED9E4BB4C3E916BAAAABE0000008090
:100110003F0000407A10F35A00A0724E18090010F8
:10012000A5D4E80000E87648170000E40B5402006C
:1001300000CA9A3B000000E1F50500008096980097
:10014000000040420F000000A086010000001027C0
:1001500000000000E8030000000064000000000050
:100160000A00000000000100000000002C76D88882
:10017000DC674F0823DFC1DFAE59E1B1B796E5E395
:10018000E453C63AE651997696E8E6C28426EB89AE
:100190008C9B62ED407C6FFCEFBC9C9F40F2BAA54B
:1001A0006FA5F490055A2AF75C936B6CF9676DC1E3
:1001B0001BFCE0E40D47FEF520E6B500D0ED902EE7
:1001C0000300943577050080841E080000204E0A45
:1001D000000000C80C333333330F986E1283114183
:1001E000EF8D2114893BE65516CFFEE6DB18D1844E
:1001F0004B381BF77C1D901DA4BBE4242032847275
:100200005E228100C9F124ECA1E53D2700000A0B24
:1002100002090C0D0E080703040100000000000095
:1002200000000000000000000000000000000000CE
:10023000000000000000000012111000000000008B
:1002400000000000000000000000000000000000AE
:100250000000FB00003E000B00360001000200031E
:10026000000000650054FFEF0000FA80000B1282CE
:10027000000100020000000000000000000000007B
:10028000000000280000FFFF4581FFFFFA72000018
:100290000000000003E80000000100017FFFFFFEF6
:1002A0008001001B000000000000000000000000B2
:1002B0000000004000004000000002CB47A22000E8
:1002C000000020000000000000004000000060006E
:1002D000000041FF000000000B2A0000165500003E
:1002E0002182FD872650FD800000001F00000005D0
:1002F0008000000000000001000000020000000378
:100300000000400000000000046F000265320000A1
:100310005EC040000000000000000000000000007F
:100320000000FB8C6F5DFD5D08D9007C733B006CA9
:1003300012CC3200139D3200D0D6320008004000AB
:1003400001F4FFE68079020000000000D0D6000032
:100350002710FB000000400000000000000000002B
:10036000000000000001000000000000010001008A
:1003700000000000FA36FFBC308E0005FBF0FFD90C
:100380005BC8FFD09ABE000010A9FFF41EB200CED9
:10039000BBF70000000100000004000200020200A0
:1003A000000CFFC280000001800000CF80004000F0
:1003B0000000000000000000000000000600000037
:1003C0000014000000000000000000000000000019
:1003D000000000000000000000000000000000001D
:1003E00000000923A135000000000000000000000B
:1003F000000000000000033F68B6793528BCC67EC7
:10040000D16C8000FFFF400000000000B26A0000D5
:100410000000000000000000000000003FF00000AD
:10042000003000000000000000000000000000009C
:1004300000000000000000000000000000000000BC
:1004400040000000254D002F706D000005AE000C2F
:1004500002D00000000000650054FFEF0000000023
:100460000000000001000044000100058BC10000F5
:100470000100000000000065000000540000FFEFD4
:10048000000000000000000000000000000000006C
:10049000000000000000000000000000000000005C
:1004A000000000000000000000000000000000004C
:1004B0000000000000010000000200000000000039
:1004C000000000000000000000000000000000002C
:1004D000000000000000000000000000000000001C
:1004E0000000001B000000000000000000000000F1
:1004F00000000000000000000000000000000000FC
:1005000000000000000000000000000000000000EB
:100510000000001B000000000000000000000000C0
:1005200000000000000000000000000000000000CB
:1005300000000000000000000000000000000000BB
:1005400000000000000000000000000000000000AB
:100550000000D8DCBAA2F1DEB2B8B4A88191F74AA3
:10056000907F916AF3F9DBA8F9B0BAA080F2CE814E
:10057000F3C2F1C1F2C3F3CCA2B280F1C6D880BA03
:10058000A7DFDFDFF2A7C3CBC5B6F087A29424486C
:10059000703C95406834589B78A2F183922D557D2C
:1005A000D8B1B4B8A1D09180F270F370F27C80A879
:1005B000F101B09887D943D886C988BAA1F20EB89C
:1005C0009780F1A9DFDFDFAADFDFDFF2AA4CCD6C75
:1005D000A90CC92C97979797F1A989264666B0B4BC
:1005E000BA80ACDEF2CAF1B28C02A9B69800890ECC
:1005F000161EB8A9B4992C547CB08AA896365676A3
:10060000F1B9AFB4B083C0B8A89711B18F98B9AFA2
:10061000F0240844106418F1A329557DAF83B593E5
:10062000AFF0002850F1A3869F61A6DADEDFD9FA89
:10063000A38696DB31A6D9F8DFBAA68FC2C5C7B2AA
:100640008CC1B8A2DFDFDFA3DFDFDFD8D8F1B8A825
:10065000B286B4980D355DB8AA98B0872D353DB2F5
:10066000B6BAAF8C96198F9FA70E161EB49AB8AA69
:10067000872C547CB9A3DEDFDFA3B180F2C4CDC9DF
:10068000F1B8A9B499830D355D89B9A32D557DB510
:1006900093A30E161EA92C547CB8B4B0F19783A86E
:1006A0001184A50998A383F0DA240844106418D8AB
:1006B000F1A529557DA58595021A2E3A565A40482E
:1006C000F9F3A3D9F8F098832408441064189782AA
:1006D000A8F111F098A2240844106418DAF3DED8C7
:1006E00083A59401D9A302F1A2C3C5C7D8F184920E
:1006F000A24DDA2AD84869D92AD86855DA32D850B2
:1007000071D932D8705DDA3AD85879D93AD8789315
:10071000A34DDA2AD84869D92AD86855DA32D85090
:1007200071D932D8705DDA3AD85879D93AD878A8E0
:100730008A9AF02850789EF38818F19F1D98A8D9BE
:1007400008D8C89F129EF315A8DA1210D8F1AFC8C6
:10075000978734B5B994A421F3D922D8F22DF3D9CF
:100760002AD8F235F3D932D881A4606061D961D832
:100770006C6869D969D8747071D971D8B1A38419BA
:100780003D5DA3831A3E5E931030811011B8B0AF67
:100790008F94F2DA3ED8B49AA88729DAF8D8879AE3
:1007A00035DAF8D8879A3DDAF8D8B1B9A498850235
:1007B0002E56A581000C14A397B08AF12DD928D804
:1007C0004DD948D86DD968D8B1840DDA0ED8A3298F
:1007D00083DA2C0ED8A3844983DA2C4C0ED8B8B017
:1007E000A88A9AF520AADADFD8A840AAD0DADED8FB
:1007F000A860AADAD0DFD8F19786A8319B069907BE
:10080000AB9728889BF00C201440B8B0B4A88C9CFF
:10081000F0042851791D301438B282ABD0982C5096
:100820005078789BF11AB0F08A9CA82951798B29CD
:1008300051798A2470598B2058718A4469388B39D0
:1008400040688A6448318B304960A5882009715816
:100850004468113964493019F1AC002C547CF08C97
:10086000A804285078F1889726A85998AC8C0226BD
:100870004666F0899CA829517924705944693864E6
:100880004831A98809205970AB11384069A819313D
:1008900048608CA83C415C207C00F187981986A8B0
:1008A0006E767EA999882D557D9EB9A38A228A6E7F
:1008B0008A568A5E9FB183062646660E2E4E6E9D30
:1008C000B8AD002C547CF2B18CB499B9A32D557DF0
:1008D0008191AC38AD3AB58391AC2DD928D84DD99A
:1008E00048D86DD968D88C9DAE29D904AED851D9D5
:1008F00004AED879D904D881F39DAD008DAE1981AD
:10090000ADD901D8F2AEDA26D88E912983A7D9AD18
:10091000ADADADF32AD8D8F1B0AC89913E5E76F397
:10092000AC2E2EF1B18C5A9CAC2C2828289CAC30D3
:1009300018A8988128343C9724A728343C9C24F29A
:10094000B089AC912C4C6C8A9B2DD9D8D851D9D870
:10095000D879D9D8D8F19E88A331DAD8D8912DD9B1
:1009600028D84DD948D86DD968D8B18393353D8002
:1009700025DAD8D88569DAD8D8B49381A328343C4D
:10098000F3AB8BF8A391B609B4D9ABDEFAB0879C70
:10099000B9A3DDF1202830389AF12830389DF1A331
:1009A000A3A3A3F2A3B49080F2A3A3A3A3A3A3A39E
:1009B000A3A3A3B2A3A3A3A3A3A3B087B599F1282C
:1009C000303898F1A3A3A3A397A3A3A3A3F39BA356
:1009D00030DCB9A7F1262626FED8FF526573657470
:1009E00074696E67206D656D6F72792062616E6BE0
:1009F0002073656C656374696F6E20746F20302E90
:100A00002E2E005265766973696F6E2040207573D3
:100A100065725B31365D5B365D203D200043686565
:100A2000636B696E672068617264776172652072BA
:100A300065766973696F6E2E2E2E000A0020000005
:100A40002C2020002000002C2020002000002C2042
:100A500020002000002C2020002000002C2020005E
:100A60002000000A2F2F20202020202020202020BE
:100A7000205820416363656C2020592041636365E1
:100A80006C20205A20416363656C20202058204749
:100A900079726F20202059204779726F2020205AC8
:100AA000204779726F0A2F2F4F46465345545320E3
:100AB00020200000002200250028002B002E0031FD
:100AC00000340002010000050108010B01000021B3
:100AD00000240027002A002D00300033000101000F
:100AE00000040107010A01050505050705080808B6
:100AF00008020202020A0A080804040404010101AF
:100B000001010101010303030303030303040707B6
:100B1000070C0C0C0C0C0C0C0C0202020206060654
:100B200006060606060B0B0B0B0B0B0B0B0102103C
:100B300020200808102040102040800201020108F7
:100B400004020101020408102040808040201008A7
:100B50000402018004020180402010080402010800
:100B60000402010102040810204080010204081060
:100B70002040802900444D5020496E697469616CA1
:100B8000697A6174696F6E206661696C656420289A
:100B9000636F64652000444D502072656164792163
:100BA0002057616974696E6720666F72206669728A
:100BB000737420696E746572727570742E2E2E00B7
:100BC000292E2E2E00456E61626C696E6720696E5B
:100BD0007465727275707420646574656374696F8E
:100BE0006E202841726475696E6F20657874657235
:100BF0006E616C20696E7465727275707420004548
:100C00006E61626C696E6720444D502E2E2E004935
:100C10006E697469616C697A696E6720444D502E03
:100C20002E2E004D50553630353020636F6E6E6578
:100C30006374696F6E206661696C6564004D505520
:100C40003630353020636F6E6E656374696F6E2069
:100C50007375636365737366756C000A53656E64C0
:100C600020616E79206368617261637465722074BB
:100C70006F20626567696E20444D502070726F6707
:100C800072616D6D696E6720616E642064656D6F61
:100C90003A200054657374696E67206465766963F1
:100CA0006520636F6E6E656374696F6E732E2E2E92
:100CB00000496E697469616C697A696E67204932AE
:100CC0004320646576696365732E2E2E00005B14E5
:100CD00011241FBECFEFD1E2DEBFCDBF00E00CBFBD
:100CE00012E0A0E0B2E0EEEAF3E400E00BBF02C0E5
:100CF00007900D92AE34B107D9F724E0AEE4B2E02C
:100D000001C01D92A733B207E1F716E0C8E6D6E0AE
:100D100000E006C021970109802FFE010E949B2060
:100D2000C736D10780E00807A9F70E94BB140C94CE
:100D3000D52166C990915A039111FCCF91E090930F
:100D40005A03909359032FEF20935803109257039F
:100D5000260F209356039093550390915503880FC7
:100D6000892B80935503809154038130F9F41092BC
:100D70005403809155038093BB008091BC0083FD98
:100D8000F8CF85EC8093BC0080915A038130E1F369
:100D900080915703861710F460915703A4E3B3E0E2
:100DA000E4E1F3E080E0861303C0089585EEEACF26
:100DB0009D9191938F5FF7CF2091130381E02132B2
:100DC00008F044C080915A038111FCCF8091120336
:100DD00092E090935A0391E0909359039FEF909380
:100DE00058031092570320935603A2EFB2E0E4E3B6
:100DF000F3E090E0291331C0109255039091550310
:100E0000880F892B8093550380915403813049F5D5
:100E100010925403809155038093BB008091BC00D5
:100E200083FDF8CF85EC8093BC0080915A0382301B
:100E3000E1F3809158038F3FB1F0809158038032E5
:100E4000A1F080915803803391F084E01092F10278
:100E5000109213031092F00208953D9131939F5F19
:100E6000C9CF85EEE0CF80E0F1CF82E0EFCF83E025
:100E7000EDCF81E080934E02089508950895AF92DA
:100E8000BF92CF92DF92EF92FF920F931F93CF9377
:100E9000DF936C017B018B01040F151FEB015E01D9
:100EA000AE18BF08C017D10759F06991D601ED916E
:100EB000FC910190F081E02DC6011995892B79F7FD
:100EC000C501DF91CF911F910F91FF90EF90DF90BF
:100ED000CF90BF90AF900895FC01538D448D252F86
:100EE00030E0842F90E0821B930B541710F0CF96C4
:100EF000089501970895FC01918D828D981761F0F6
:100F0000A28DAE0FBF2FB11D5D968C91928D9F5F0C
:100F10009F73928F90E008958FEF9FEF0895FC01EB
:100F2000918D828D981731F0828DE80FF11D858D9E
:100F300090E008958FEF9FEF0895FC01918D228D31
:100F4000892F90E0805C9F4F821B91098F739927B6
:100F500008958BE593E0F1DF21E0892B09F420E08F
:100F6000822F0895FC01A48DA80FB92FB11DA35A9B
:100F7000BF4F2C91848D90E001968F739927848FB9
:100F8000A689B7892C93A089B1898C9183708064DC
:100F90008C93938D848D981306C00288F389E02D7D
:100FA00080818F7D80830895EF92FF920F931F932E
:100FB000CF93DF93EC0181E0888F9B8D8C8D98130C
:100FC0001AC0E889F989808185FF15C09FB7F89418
:100FD000EE89FF896083E889F98980818370806464
:100FE00080839FBF81E090E0DF91CF911F910F91AF
:100FF000FF90EF900895F62E0B8D10E00F5F1F4FBE
:101000000F731127E02E8C8D8E110BC00FB607FCCD
:10101000FACFE889F989808185FFF5CFCE01A2DF7B
:10102000F2CFEB8DEC0FFD2FF11DE35AFF4FF08255
:101030009FB7F8940B8FEA89FB8980818062D0CFBB
:101040000F931F93CF93DF938C01D0E0C0E0F801A2
:10105000EC0FFD1F6491662339F08BE593E0A4DF6C
:10106000892B11F02196F3CFCE01DF91CF911F9103
:101070000F910895CF93DF93EC01888D8823B1F011
:10108000AA89BB89E889F9898C9185FD03C0808193
:1010900086FD0CC00FB607FCF7CF8C9185FFF2CF11
:1010A000808185FFEDCFCE015DDFEACFDF91CF916B
:1010B000089580E090E0892B21F04BDF81110E94A0
:1010C000000080E090E0892B49F080E090E0892BDF
:1010D00029F00E94000081110E94000080E090E051
:1010E000892B49F080E090E0892B29F00E940000D4
:1010F00081110E94000080E090E0892B49F080E09F
:1011000090E0892B29F00E94000081110C940000CE
:101110000895282F30E0F901E45FFD4F9491F90123
:10112000E35DF44F44912951354FF9012491222375
:1011300009F435C0992311F191509231F8F4E92F57
:10114000F0E08827E955F74F8F4F0C949B20D80883
:10115000DC08B908D008D408BE08DF08E508E908AB
:10116000EF08F308F708FD080109BE0805090B0997
:101170000F09809180008F7780938000E22FF0E04C
:10118000EE0FFF1FED54F54FA591B4918FB7F89472
:10119000EC91611148C040954E234C938FBF089548
:1011A000809180008F7DE8CF80918000877FE4CFA1
:1011B00084B58F7784BDE2CF84B58F7DFBCF8091DE
:1011C000B0008F778093B000D9CF8091B0008F7D31
:1011D000F9CF809190008F7780939000CFCF80914E
:1011E00090008F7DF9CF80919000877FF5CF80911F
:1011F000A0008F778093A000C1CF8091A0008F7D49
:10120000F9CF8091A000877FF5CF809120018F7763
:1012100080932001B3CF809120018F7DF9CF809101
:101220002001877FF5CF4E2BB8CF3FB7F894809140
:10123000970290919802A0919902B0919A0226B5D6
:10124000A89B05C02F3F19F00196A11DB11D3FBFFE
:10125000BA2FA92F982F8827BC01CD01620F711DCD
:10126000811D911D42E0660F771F881F991F4A95C7
:10127000D1F708958F929F92AF92BF92CF92DF9253
:10128000EF92FF924B015C01D0DF6B017C01CDDF5F
:101290006C197D098E099F09683E7340810591058F
:1012A000B0F321E0821A9108A108B10888EEC80EB7
:1012B00083E0D81EE11CF11C81149104A104B10447
:1012C00031F7FF90EF90DF90CF90BF90AF909F905D
:1012D0008F9008952FB7F8946091930270919402C3
:1012E00080919502909196022FBF0895089585ED03
:1012F0008093BC008091BC0084FDFCCF10925A0307
:10130000089520916F02260F3327331F21323105B4
:10131000ECF420915A03FC0190E080E0243069F065
:1013200082E00895A0916F022191AC01415B5D4F75
:10133000A40FB52FB11D2C930196861798F38091B9
:101340006F02680F60936F0280E0089581E0089556
:101350000895E091A00280919F02E81730F4F0E038
:10136000EC5EFC4F808190E008958FEF9FEF089531
:101370009091A00280919F022FEF3FEF981748F4C1
:10138000E92FF0E0EC5EFC4F208130E09F5F90930E
:10139000A002C901089580919F029091A002891B2B
:1013A000990B0895CF92DF92EF92FF920F931F93C4
:1013B000CF93DF937C01CB018A012091F00222239D
:1013C00089F0EB016B01C40ED51ECC15DD0561F073
:1013D0006991D701ED91FC910190F081E02DC70159
:1013E0001995F3CF642F8DDFC801DF91CF911F9145
:1013F0000F91FF90EF90DF90CF900895CF93DF9300
:101400001F92CDB7DEB769832091F0022223F9F055
:1014100020911303203258F021E030E0FC013383A7
:10142000228390E080E00F90DF91CF91089580912A
:10143000F102E82FF0E0EE50FD4F998190838F5F2D
:101440008093F1028093130381E090E0ECCF61E0A0
:10145000CE01019656DFF8CFCF93DF93EA0191E0FA
:101460009093F002809312031092F10210921303F2
:1014700088EF93E0C3DF698188EF93E0BFDF688185
:1014800088EF93E0BBDF98DC91E0811190E0892F39
:10149000DF91CF91089590E080E00895FF920F933F
:1014A0001F93CF93DF93042FF22E132F91E090938D
:1014B000F002809312031092F1021092130388EF4E
:1014C00093E09CDFCF2DD12F0C0F1D2F111DC017C6
:1014D000D10729F0699188EF93E090DFF8CF6CDCB9
:1014E00091E0811190E0892FDF91CF911F910F91B1
:1014F000FF900895CF93DF931F92CDB7DEB7498356
:101500009E012F5F3F4F41E0C9DF0F90DF91CF91E8
:101510000895FC0101900020E9F73197AF01481BC5
:10152000590BBC018BE593E0AACCCF93DF9388DD08
:10153000EC018AE392E0EDDF8C0F9D1FDF91CF91EC
:1015400008958F929F92AF92BF920F931F93CF9364
:10155000DF93CDB7DEB7A1970FB6F894DEBF0FBE0D
:10156000CDBF19A2423008F44AE08E010F5D1F4F33
:10157000842E912CB12CA12CA50194010E94721DE6
:10158000E62FB901CA01EA30ECF4E05DD801EE9330
:101590008D01232B242B252B79F790E080E01097E9
:1015A00011F0CD01B6DFA1960FB6F894DEBF0FBEE5
:1015B000CDBFDF91CF911F910F91BF90AF909F90C2
:1015C0008F900895E95CE2CF009709F0A2CF90E0F8
:1015D00080E008954F925F926F927F928F929F92D8
:1015E000AF92BF92CF92DF92EF92FF920F931F9331
:1015F000CF936B017C01742EAC019B010E94822071
:10160000882391F08DE392E0CF911F910F91FF908D
:10161000EF90DF90CF90BF90AF909F908F907F9092
:101620006F905F904F9075CF46015701E894B7F8DF
:101630002FEF3FEF4FE75FE7C501B4010E94822023
:1016400081110DC02FEF3FEF4FE75FE7C501B401F8
:101650000E945B1E18161CF481E492E0D5CF2FEF98
:101660003FEF4FE75FE4C701B6010E94CF1F181696
:101670001CF485E492E0C8CF2FEF3FEF4FE75FEC1B
:10168000C701B6010E945B1E87FDF3CF20E030E06A
:10169000A901C701B6010E945B1E10E000E087FFB0
:1016A00009C06DE28BE593E07FDC8C01F7FAF094E2
:1016B000F7F8F094C0E060E070E080E09FE37C1613
:1016C00041F020E030E040E251E40E945F1ECF5F35
:1016D000F6CFA70196010E94951D2B013C010E94A7
:1016E000CC1E4B015C014AE02CDF7C01E00EF11EB8
:1016F000CC23B1F1C501B4010E94F81E9B01AC01DD
:10170000C301B2010E94941D4B015C016EE28BE5A6
:1017100093E04ADCE80EF91EC15010F120E030E001
:1017200040E251E4C501B4010E94DA1F2B013C01E3
:101730000E94CC1E4B01B12CA12C4AE0C501B40182
:1017400000DFE80EF91EC501B4010E94F81E9B01DE
:10175000AC01C301B2010E94941D4B015C01DCCFBE
:10176000C701CF911F910F91FF90EF90DF90CF9025
:10177000BF90AF909F908F907F906F905F904F90B1
:1017800008952F923F924F925F926F927F928F9225
:101790009F92AF92BF92CF92DF92EF92FF920F9300
:1017A0001F93CF93DF9300D000D000D0CDB7DEB72A
:1017B000582E6D834B833F832E838CDD6B017C0120
:1017C0002B81622E712CC301880F991F9A83898304
:1017D000220F2B8399819C83212C412C4801B12C11
:1017E000A12CE981FA812E161F060CF061C0F1E0F0
:1017F000F093F002509212031092F1021092130330
:101800006D8188EF93E0FADDD7DA21E02093F002D2
:101810001092F102109213036B81852D8BDA1092D6
:10182000A00280939F023324339490919F02809171
:10183000A002981779F1842D042C000C990B99873C
:1018400088878615970534F501151105C9F4E885D3
:10185000F985EE0FFF1F2E813F81E20FF31FF987FD
:10186000E88731101BC088EF93E082DDE885F985B9
:1018700020813181822B932B91838083439415C0E7
:1018800029DD6C197D098E099F09681579058A057E
:101890009B05E8F291DA3C81230EA3CF88EF93E019
:1018A00067DDE885F98510828183F1E03F26BDCFB1
:1018B00001151105A9F00EDD6C197D098E099F092E
:1018C00030E020E0601771078207930748F0842D0D
:1018D000042C000C990B8615970514F444244A94A3
:1018E000842D29960FB6F894DEBF0FBECDBFDF91D1
:1018F000CF911F910F91FF90EF90DF90CF90BF900D
:10190000AF909F908F907F906F905F904F903F909F
:101910002F9008952F923F924F925F926F927F92F5
:101920008F929F92AF92BF92CF92DF92EF92FF92EF
:101930000F931F93CF93DF9300D01F92CDB7DEB7E5
:10194000782E662E4C833A832983C4DC6B017C019C
:10195000512C1B822C81222E312C4801B12CA12C20
:101960008C81581608F04CC091E09093F002709270
:1019700012031092F10210921303662D88EF93E088
:101980003DDD1ADA21E02093F0021092F10210926C
:101990001303B101651971096132710514F060E238
:1019A00070E0613208F060E2872DC4D9482E1092B1
:1019B000A00280939F028091A0024816D9F00115E1
:1019C000110571F488EF93E0D3DCE981FA819B8102
:1019D000E90FF11D97FDFA9580839F5F9B83EBCF05
:1019E00079DC6C197D098E099F09681579058A05CE
:1019F0009B0540F38C81813208F080E2580EB0CF15
:101A000001151105B9F066DC6C197D098E099F0975
:101A100030E020E0601771078207930758F02B81B0
:101A2000822F220F990B2C812817190619F014F018
:101A30008FEF8B838B810F900F900F900F90DF9122
:101A4000CF911F910F91FF90EF90DF90CF90BF90BB
:101A5000AF909F908F907F906F905F904F903F904E
:101A60002F9008952F923F924F925F926F927F92A4
:101A70008F929F92AF92BF92CF92DF92EF92FF929E
:101A80000F931F93CF93DF933C015B01242E522EC3
:101A9000302E6DE6809120042DDD452D6EE680917F
:101AA000200428DD80E190E00E94A3206C01D0E0BA
:101AB000C0E0002329F080E190E00E94A320EC0127
:101AC000F12CE12CC70140964A2C4E18A816B906F5
:101AD00010F080E1482E80E091E0851991094816C8
:101AE000190619F014F0452C4194332079F0DE01E9
:101AF00090E080E093012E0D3F1D841550F4F90114
:101B0000E80FF91FE491ED930196F7CFE301CE0DB5
:101B1000DF1D9E01442D6FE680912004BFDC842CE4
:101B2000912CC114D104B9F1422D4F716DE6809111
:101B30002004E0DC452D6EE680912004DBDC08EE1D
:101B400013E09601442D6FE680912004E3DEA401AA
:101B5000B601CE010E94C821892BE9F0C6010E947E
:101B60003F21332021F0CE010E943F21312C832DD3
:101B7000DF91CF911F910F91FF90EF90DF90CF9069
:101B8000BF90AF909F908F907F906F905F904F909D
:101B90003F902F900895E80CF91CEA14FB0498F488
:101BA000540C09F42394422D4F716DE6809120046A
:101BB000A1DC452D6EE6809120049CDC83CFCE0114
:101BC0000E943F21D4CFC6010E943F213110F7CFA0
:101BD00033243394CCCF0F931F93CF93DF93C0E282
:101BE000D4E008EE13E021E234E042E062E78881CD
:101BF00091DE89819A81982789279827DF91CF9153
:101C00001F910F9108950F931F93CF93DF931F920E
:101C1000CDB7DEB708EE13E09E012F5F3F4F41E0E6
:101C200065E78091200476DE882339F089818E77FC
:101C300090E09595879580932104809121040F90E1
:101C4000DF91CF911F910F910895BF92CF92DF92B4
:101C5000EF92FF920F931F93CF93DF931F92CDB715
:101C6000DEB7F82EE62EC42EB22ED02E08EE13E0EC
:101C70009E012F5F3F4F41E04DDE882369F18C2D9F
:101C80008B19990BAC014F5F5F4F81E090E002C070
:101C9000880F991FBA94E2F70197042E01C0880FAC
:101CA0000A94EAF70D2D01C0000F4A95EAF7482F74
:101CB0004095998149238023482B49836E2D8F2D90
:101CC00019DC0F90DF91CF911F910F91FF90EF9052
:101CD000DF90CF90BF90089580E0F3CFCF92DF9256
:101CE000EF92FF920F931F93CF93DF931F92CDB785
:101CF000DEB7F82EE62EC42ED22E08EE13E09E019B
:101D00002F5F3F4F41E006DE81E090E001C0880F89
:101D1000CA94EAF74981DD2079F0482B49836E2D7A
:101D20008F2DE8DB0F90DF91CF911F910F91FF90E6
:101D3000EF90DF90CF90089580954823EFCF21E07A
:101D400042E06AE680912004C9CF2F923F924F92E1
:101D50005F926F927F928F929F92AF92BF92CF923B
:101D6000DF92EF92FF920F931F93CF93DF93CDB744
:101D7000DEB7E3970FB6F894DEBF0FBECDBF8F8FEF
:101D800048A759A76AA77BA70CA71DA72EA73FA7FF
:101D90008B3309F0F8C137DF883308F4F9C127E73E
:101DA0002F8B33E03A8F6EE38BE593E0FDD8FE0195
:101DB0003D96FE8BED8B9E012F5F3F4F398F288F15
:101DC0007F01DF8808EE13E09E012D5E3F4F41E06A
:101DD0006D2D80912004D5DCAB88BC88B5010B2C1F
:101DE000000C880B990B0E94FA1EAF89A33109F4ED
:101DF000D4C1B1E0AB22BB24F701B182A08220E0C4
:101E000030E040E051E40E94DA1FA88DB98D6D9357
:101E10007D938D939C931397FA8DDF0E22E0E20E53
:101E2000F11C888D998D0496998F888FAD89BE8914
:101E30008A179B0739F6BF8DBB3309F0BBC18DEC08
:101E40009CECACE4BDE388AB99ABAAABBBABA6E022
:101E5000B0E0BFA3AEA31CA21BA2312C212CFE011B
:101E60003196FC8FEB8F9E01235F3F4F39A328A350
:101E70003F893AA38F8D8DA3812C912C54011E8E06
:101E80001D8E08EE13E09E012D5E3F4F41E06DA1D7
:101E90008091200476DC6B897C89072E000C880BEE
:101EA000990B0E94FA1E6B017C019F8D9B3371F48C
:101EB000AD8DBE8D129751F420E030E040E856E43D
:101EC000C701B6010E94941D6B017C0126013701F8
:101ED00077FA709477F87094C501B4010E94F81EE7
:101EE0004B015C0120E030E0A901C701B6010E946E
:101EF000CF1F181614F073016201A7019601C501E6
:101F0000B4010E94951D0E94CC1E4B015C012FE67E
:101F100032E143E85AE3C301B2010E94DA1F2CA563
:101F20003DA54EA55FA50E94DA1FEB8DFC8D20819B
:101F30003181428153810E94951D6B017C01AB8DE3
:101F4000BC8DCD92DD92ED92FC92139728A539A518
:101F50004AA55BA5C301B2010E94DA1FA701960141
:101F60000E94951DBF89B33109F42EC120E030E0F5
:101F700040E05EE30E94DA1F6B017C0120E030E06C
:101F8000A9010E94CF1F20E030E040E05FE387FD21
:101F900016C1C701B6010E94951D0E94C71E6E7F23
:101FA000E8A1F9A180819181682B792B7C8B6B8BC7
:101FB000AE014D5E5F4F6AA1809120044DDA2D8DF8
:101FC0003E8D2F5F3F4F3E8F2D8F3DA13E5F3DA346
:101FD0008AA19A8D890F8AA3A8A1B9A11296B9A343
:101FE000A8A3EB8DFC8D3496FC8FEB8F2D8D3E8D51
:101FF0002330310509F045CF33E62316310471F45F
:1020000089EE881683E09806A104B10438F06AE2EC
:102010008BE593E00E94D407312C212CC501B4013B
:102020000E94F81E28A939A94AA95BA90E94DA1FB3
:1020300020E030E040EA50E40E945B1E87FF05C0CC
:10204000ABA1BCA11196BCA3ABA3B4E68B169104C3
:10205000A104B10408F0D7C0EBE02E1631040CF453
:10206000D2C02BA13CA12A3031050CF4CCC06EE2C9
:102070008BE593E00E94D40720E030E040E45FE38A
:1020800068A579A58AA59BA50E94DA1F68A779A7EC
:102090008AA79BA720E030E040E45FE36CA57DA524
:1020A0008EA59FA50E94DA1F6CA77DA78EA79FA76C
:1020B000CE010D967C01DF88DE0111963D01D30132
:1020C0006D917D918D919D913D01BF89B33109F451
:1020D000ADC020E030E040E05EE30E94DA1F4B013B
:1020E0005C0120E030E0A9010E94CF1F20E030E039
:1020F00040E05FE387FD95C0C501B4010E94951DD6
:102100000E94C71E6E7FF70180819181682B792B19
:102110007C8B6B8BAE014D5E5F4F6D2D80912004EB
:102120009BD9FA8DDF0E22E0E20EF11C888D998D8D
:102130008615970521F6AEA1BFA11197BFA3AEA347
:10214000AB2B09F088CEFBDD21E043E06AE680910D
:102150002004C4DDE3960FB6F894DEBF0FBECDBFFA
:10216000DF91CF911F910F91FF90EF90DF90CF9073
:10217000BF90AF909F908F907F906F905F904F90A7
:102180003F902F90089583E18F8B92E09A8F0BCE32
:10219000A6E0AF8BB2E0BA8F06CE20E030E040E898
:1021A00050E40E94DA1FE88DF98D60837183828389
:1021B000938332CE80E090E0A0E8BFE344CEC70135
:1021C000B6010E94941DE9CE20E030E040E85EE3D5
:1021D0000E94DA1F6B017C0120E030E0A9010E941F
:1021E000CF1F20E030E040E05FE387FD07C0C7017C
:1021F000B6010E94951D0E94C71ED8CEC701B60128
:102200000E94941DF8CF61E070E080E090E032D849
:10221000BFEF2B1A3B0AE4E62E16310409F01FCE5D
:1022200026CFC501B4010E94941D6ACF20E030E0A2
:1022300040E85EE30E94DA1F4B015C0120E030E0E1
:10224000A9010E94CF1F20E030E040E05FE387FD5E
:1022500007C0C501B4010E94951D0E94C71E58CF3A
:10226000C501B4010E94941DF8CF1F920F920FB6C2
:102270000F9211240BB60F922F933F934F935F93BE
:102280006F937F938F939F93AF93BF93EF93FF933E
:102290008BE593E00E94B207FF91EF91BF91AF9160
:1022A0009F918F917F916F915F914F913F912F916E
:1022B0000F900BBE0F900FBE0F901F9018951F929E
:1022C0000F920FB60F9211240BB60F922F938F938C
:1022D0009F93EF93FF93E0916B03F0916C038081E8
:1022E000E0917103F091720382FD1DC09081809195
:1022F00074038F5F8F7320917503821741F0E09113
:102300007403F0E0E55AFC4F958F80937403FF91BE
:10231000EF919F918F912F910F900BBE0F900FBE59
:102320000F901F9018958081F2CF1F920F920FB6D9
:102330000F9211242F933F938F939F93AF93BF934B
:102340008091930290919402A0919502B09196028F
:102350003091920223E0230F2D3758F50196A11DED
:10236000B11D209392028093930290939402A093C4
:102370009502B09396028091970290919802A09155
:102380009902B0919A020196A11DB11D8093970206
:1023900090939802A0939902B0939A02BF91AF9143
:1023A0009F918F913F912F910F900FBE0F901F9093
:1023B000189526E8230F0296A11DB11DD2CF1F92BA
:1023C0000F920FB60F9211240BB60F922F933F93DB
:1023D0004F935F936F937F938F939F93AF93BF932D
:1023E000EF93FF93E0910E02F0910F021995FF9188
:1023F000EF91BF91AF919F918F917F916F915F917D
:102400004F913F912F910F900BBE0F900FBE0F90E9
:102410001F9018951F920F920FB60F9211240BB6B2
:102420000F922F933F934F935F936F937F938F936D
:102430009F93AF93BF93EF93FF93E0910C02F091C2
:102440000D021995FF91EF91BF91AF919F918F91DF
:102450007F916F915F914F913F912F910F900BBEA4
:102460000F900FBE0F901F9018951F920F920FB6EE
:102470000F9211240BB60F922F933F934F935F93BC
:102480006F937F938F939F93AF93BF93EF93FF933C
:10249000E0910202F09103021995FF91EF91BF9133
:1024A000AF919F918F917F916F915F914F913F91EC
:1024B0002F910F900BBE0F900FBE0F901F9018958D
:1024C0001F920F920FB60F9211240BB60F922F93FB
:1024D0003F934F935F936F937F938F939F93AF93AC
:1024E000BF93EF93FF93E0910002F09101021995E1
:1024F000FF91EF91BF91AF919F918F917F916F91DC
:102500005F914F913F912F910F900BBE0F900FBE97
:102510000F901F9018951F920F920FB60F921124D3
:102520000BB60F922F933F934F935F936F937F93CD
:102530008F939F93AF93BF93EF93FF93E0910A0222
:10254000F0910B021995FF91EF91BF91AF919F917F
:102550008F917F916F915F914F913F912F910F904C
:102560000BBE0F900FBE0F901F9018951F920F92E9
:102570000FB60F9211240BB60F922F933F934F93E8
:102580005F936F937F938F939F93AF93BF93EF93DB
:10259000FF93E0910802F09109021995FF91EF91E4
:1025A000BF91AF919F918F917F916F915F914F916B
:1025B0003F912F910F900BBE0F900FBE0F901F9069
:1025C00018951F920F920FB60F9211240BB60F920F
:1025D0002F933F934F935F936F937F938F939F932B
:1025E000AF93BF93EF93FF93E0910602F091070240
:1025F0001995FF91EF91BF91AF919F918F917F912D
:102600006F915F914F913F912F910F900BBE0F9063
:102610000FBE0F901F9018951F920F920FB60F923A
:1026200011240BB60F922F933F934F935F936F93A9
:102630007F938F939F93AF93BF93EF93FF93E0911B
:102640000402F09105021995FF91EF91BF91AF91AE
:102650009F918F917F916F915F914F913F912F91BA
:102660000F900BBE0F900FBE0F901F9018951F92EA
:102670000F920FB60F9211240BB60F922F933F9328
:102680004F935F936F937F938F939F93AF93BF937A
:10269000EF93FF938091B900887F803609F44DC095
:1026A00008F040C0883209F4A9C028F5803109F447
:1026B0009DC0C8F4882309F4FBC0883009F496C093
:1026C000FF91EF91BF91AF919F918F917F916F910A
:1026D0005F914F913F912F910F900BBE0F900FBEC6
:1026E0000F901F901895883109F488C0803241F707
:1026F0008093580314C0803409F49DC040F48033A3
:10270000B9F38833E9F68093580385ECB0C080357F
:1027100009F485C0883509F496C0883489F60E948A
:102720007709CECF883909F48CC038F5883729F07D
:1027300050F4883611F0803719F683E080935A03FD
:102740001092910257C0883809F47BC0803919F083
:10275000803809F0B5CF80919102803208F071C0C5
:10276000E091910281E08E0F809391028091BB00F5
:10277000F0E0EF58FD4F80833DC0803B39F0E0F43E
:10278000803A09F479C0883A09F09ACF84E08093BE
:102790005A031092700210926F02E0919D02F09124
:1027A0009E02199580916F0281110FC081E0809384
:1027B0006F0210924F0209C0803C09F4A6CF883CFA
:1027C00009F4A3CF883B09F07BCFE091700281E050
:1027D0008E0F80937002F0E0E15BFD4F808180936B
:1027E000BB009091700280916F0229C080915503C7
:1027F0008093BB0085EC8093BC0062CF909157031F
:1028000080915603981758F5E091570381E08E0F99
:1028100080935703F0E0EC5CFC4F8081E9CFE091BE
:10282000570381E08E0F809357038091BB00F0E047
:10283000EC5CFC4F8083909157038091560398176E
:10284000C8F285E8D8CFE091570381E08E0F8093DE
:1028500057038091BB00F0E0EC5CFC4F80838091DB
:10286000590381115CCF81E08093540384EA809303
:10287000BC0010925A0324CF85EC8093BC001092C8
:102880005A0380919102803230F4E0919102F0E09D
:10289000EF58FD4F10826091910270E0E0919B0231
:1028A000F0919C0281E792E019951092910208CF75
:1028B0001092580334CFEBE5F3E01382128288EED6
:1028C00093E0A0E0B0E084839583A683B7832AE1F8
:1028D00032E03183208325EC30E03587248724ECF7
:1028E00030E03787268720EC30E0318B208B21ECDD
:1028F00030E0338B228B22EC30E0358B248B26ECBE
:1029000030E0378B268B118E128E138E148EE8EFEB
:10291000F3E01382128284839583A683B7838CE2CB
:1029200092E09183808388E680932004E0E1F4E0E4
:1029300080E090E0A0E8BFE380839183A283B3832B
:1029400014821582168217821086118612861386CB
:102950001486158616861786E4E0F4E0108211824C
:1029600012821382148215821682178210861186B3
:10297000128613860895CF93DF93CDB7DEB7C65482
:10298000D1090FB6F894DEBF0FBECDBF789484B5E1
:10299000826084BD84B5816084BD85B5826085BD5B
:1029A00085B5816085BD80916E00816080936E00E9
:1029B00010928100809181008260809381008091DB
:1029C000810081608093810080918000816080938C
:1029D00080008091B10084608093B1008091B0004C
:1029E00081608093B000809191008260809391001B
:1029F000809191008160809391008091900081602E
:102A0000809390008091A10082608093A1008091CA
:102A1000A10081608093A1008091A00081608093DB
:102A2000A000809121018260809321018091210189
:102A30008160809321018091200181608093200139
:102A400080917A00846080937A0080917A0082601D
:102A500080937A0080917A00816080937A008091DF
:102A60007A00806880937A001092C1001092A002D0
:102A700010929F021092F1021092130310925A03C7
:102A800081E0809359031092540361E084E10E9435
:102A9000890861E085E10E9489088091B9008E7FF4
:102AA0008093B9008091B9008D7F8093B90088E44C
:102AB0008093B80085E48093BC008DE397E0909309
:102AC0009E0280939D028EE397E090939C028093F8
:102AD0009B028CE08093B800E0916B03F0916C0353
:102AE00082E08083E0916703F09168031082E091B7
:102AF0006903F0916A0380E1808310927303E0918F
:102B00006F03F091700386E08083E0916D03F09194
:102B10006E03808180618083E0916D03F0916E038C
:102B2000808188608083E0916D03F0916E038081E5
:102B300080688083E0916D03F0916E0380818F7DCA
:102B4000808381EB9CE00E94950A01E023E042E053
:102B50006BE68091200479D800E022E044E06BE14C
:102B60008091200472D822E044E06CE1809120043E
:102B70006CD820E046E06BE680912004AFD8EFE20D
:102B8000FBE02491E9EEFAE084918823C9F090E01B
:102B9000880F991FFC01E353F54F45915491FC01B7
:102BA000ED54F54FA591B4919FB7F894FA01808147
:102BB0002095822380838C91E22FE823EC939FBFA2
:102BC00083E99CE00E94950A1ED8843309F0C7C2AD
:102BD0008DE39CE00E94950A8BE59CE00E94950A9B
:102BE0008BE593E00E949D07892B31F08BE593E004
:102BF0000E947B07892BA1F78BE593E00E949D073C
:102C0000892BD1F38BE593E00E949D07892B31F04E
:102C10008BE593E00E947B07892BA1F78FE09CE076
:102C20000E94950A21E047E06BE68091200456D887
:102C30006EE170E080E090E00E943A0920E046E01A
:102C40006BE6809120044AD840E76DE6809120042D
:102C50000E947A0A46E06EE6809120040E947A0A79
:102C60008DE19AE00E94950A83E09AE00E94200894
:102C700008EE13E021E234E041E06FE680912004A9
:102C80000E948A0C6091210470E090E080E040E1B5
:102C90000E94A10A8AE392E00E94890A8BED99E0E2
:102CA0000E94950A40E06DE6809120040E947A0A15
:102CB0004FE765E2809120040E947A0A20E045E017
:102CC0006AE6809120040AD848E665E280912004F3
:102CD0000E947A0A21E041E06AE6809120040E9485
:102CE0006E0E64E170E080E090E00E943A0903E03B
:102CF00023E042E06BE6809120040E94250E42E131
:102D000068E3809120040E947A0A44E069E180919E
:102D100020040E947A0A01E023E045E06AE1809104
:102D200020040E94250E03E023E042E06AE1809146
:102D300020040E94250E22E044E06BE180912004F3
:102D40000E94250E01E020E040E069E877E082E59E
:102D500092E00E94320D11E0882309F45FC01982CD
:102D600081E08A8300E026E142E062E070E0CE018B
:102D700001960E94320D43E060E7809120040E949A
:102D80007A0A40E061E7809120040E947A0A20E0FC
:102D900040E060E0809120040E946E0E42E06FE10E
:102DA000809120040E947A0A4CE961E2809120041B
:102DB0000E947A0A40E560E2809120040E947A0A2B
:102DC00040E062E2809120040E947A0A21E046E01D
:102DD0006AE6809120040E946E0E21E043E06AE6DC
:102DE000809120040E946E0E20E047E06AE6809108
:102DF00020040E946E0E8AE290E090933204809349
:102E000031040E949F0E08EE13E021E234E041E01D
:102E10006AE3809120040E948A0C10E01093A102C2
:102E2000809120042CED30E03EA72DA7AE01435D3C
:102E30005F4F63E10E942C0A809120042CE430E073
:102E40003CA72BA7AE01455D5F4F65E10E942C0AB0
:102E5000809120042BEA3FEF3AA729A7AE01475DF6
:102E60005F4F67E10E942C0A0E94030E6AE08833DC
:102E700008F06DE7809120042CEF36E038A72FA3EF
:102E8000AE01495D5F4F0E942C0A11116BC100E039
:102E900010E028EA31E44EEA57E461EA7EE38BE38E
:102EA0000E94A50E0FEF1FEF2CEB32E44EEA57E421
:102EB00061EA7EE383E40E94A50E0E94030E56E0C1
:102EC000F52E883310F047E7F42E83E69AE00E944F
:102ED0002008F6E008EE13E09E012F5D3F4F43E02F
:102EE00066E0FF16B1F041E06F2D809120040E9452
:102EF000C10B63E06F0D9E012D5D3F4F41E080915E
:102F000020040E94C10B66E06F0D9E012B5D3F4FB8
:102F100041E0809120040E94C10B82E69AE00E9469
:102F2000200880E69AE00E94200869A17AA1072E75
:102F3000000C880B990B5ED78E010F5F1F4F20E0AE
:102F400045E063D30E94E40A8CE59AE00E942008E1
:102F50008BE59AE00E94200889E59AE00E9420080B
:102F60006BA17CA1072E000C880B990B43D720E0A6
:102F700045E04BD30E94E40A85E59AE00E942008D0
:102F800084E59AE00E94200882E59AE00E942008E9
:102F90006DA17EA1072E000C880B990B2BD720E08A
:102FA00045E033D30E94E40A8EE49AE00E942008B0
:102FB00008EE13E09E012F5D3F4F43E063E18091F7
:102FC00020040E94C10B8DE49AE00E9420088BE44B
:102FD0009AE00E94200869A17AA1072E000C880BB4
:102FE000990B08D78E010F5F1F4F20E045E00DD3EE
:102FF0000E94E40A87E49AE00E94200886E49AE0AE
:103000000E94200884E49AE00E9420086BA17CA121
:10301000072E000C880B990BEDD620E045E0F5D289
:103020000E94E40A80E49AE00E9420088FE39AE07C
:103030000E9420088DE39AE00E9420086DA17EA1E5
:10304000072E000C880B990BD5D620E045E0DDD289
:103050000E94E40A8BE39AE00E9420088FEF9BE035
:103060000E94950A21E047E06AE6809120040E94D0
:103070006E0E85EC9BE00E9420084AE060E070E064
:10308000CB010E94A10A80EC9BE00E94950A89E393
:1030900097E0909301028093000280916A00836020
:1030A00080936A00EC9A08EE13E021E234E041E0FC
:1030B0006AE3809120040E948A0C86E99BE00E94CA
:1030C000950A81E08093EF02EAE3FBE02491E4EFCC
:1030D000FAE08491882399F090E0880F991FFC0111
:1030E000E353F54FA591B491FC01ED54F54F859153
:1030F00094918FB7F894EC91E22BEC938FBF33242B
:1031000033948091EF02882339F1809031049090BC
:1031100032040E9415092B013C016401DD240E9448
:10312000EB0D5C01C816D9060CF050C0893C910526
:103130004CF10E949F0E0E94EB0D5C01892B09F05F
:1031400048C00E9415096419750986099709693FE5
:103150007A428105910578F30E945908D2CF83E223
:103160009CE038CD85E79BE00E9420084AE061E0C2
:1031700070E080E090E00E94A10A83E79BE00E945B
:10318000950AA2CF0E94EB0D5C01C816D906F4F493
:103190007C01EC18FD08570181E2E816F1041CF0EF
:1031A00080E2A82EB12CAA2079F008EE13E09E014F
:1031B0002F5F3F4F4A2D64E7809120040E948A0CC4
:1031C000EA18FB0841F7DECF1982FACFA114B10447
:1031D00019F20E9415096419750986099709693F52
:1031E0007A428105910508F0B7CFAC14BD0409F00F
:1031F00096CF882009F401C208EE13E02FEA32E0EE
:10320000482D64E7809120040E948A0C6090B302EC
:103210007090B4027624672476248090B702909050
:10322000B802982489249824A090BB02B090BC02D4
:10323000BA24AB24BA246091AF027091B002762711
:1032400067277627072E000C880B990BD3D520E033
:1032500030E040E858E3AED66B017C01C092100428
:10326000D0921104E0921204F0921304B301770C8F
:10327000880B990BBFD520E030E040E858E39AD6A0
:103280002B013C01409214045092150460921604E4
:1032900070921704B401990C880B990BABD520E000
:1032A00030E040E858E386D66FA778AB89AB9AAB9D
:1032B000609318047093190480931A0490931B046C
:1032C000B501BB0C880B990B95D520E030E040E8A8
:1032D00058E370D66BAB7CAB8DAB9EAB60931C049C
:1032E00070931D0480931E0490931F049B01AC01F6
:1032F000C301B2015FD64B015C012FA538A949A9D2
:103300005AA9C701B60156D69B01AC01C501B4014B
:103310000BD49B01AC0109D46BAF7CAF8DAF9EAFDA
:10332000609304047093050480930604909307044B
:10333000A3019201C701B6013DD64B015C012BA947
:103340003CA94DA95EA96FA578A989A99AA932D6E9
:103350009B01AC01C501B401E8D39B01AC01E5D3ED
:103360006FAB78AF89AF9AAF60930804709309048C
:1033700080930A0490930B04A7019601C701B6013C
:1033800019D64B015C01A3019201C301B20112D60F
:103390009B01AC01C501B401C7D34B015C012FA552
:1033A00038A949A95AA9CA01B90104D69B01AC019F
:1033B000C501B401B9D34B015C012BA93CA94DA9AE
:1033C0005EA9CA01B901F6D59B01AC01C501B401E2
:1033D000ACD34B015C0180920C0490920D04A0923E
:1033E0000E04B0920F04A7019601C701B6019DD348
:1033F00023966CAF7DAF8EAF9FAF2397A301920151
:10340000C301B20192D327966CAF7DAF8EAF9FAF51
:103410002797A701960123966CAD7DAD8EAD9FAD2C
:103420002397C8D56B017C01A301920127966CAD4F
:103430007DAD8EAD9FAD2797BDD59B01AC01C7017A
:10344000B60173D320E030E040E85FE36DD36B0159
:103450007C012FA538A949A95AA927966CAD7DAD45
:103460008EAD9FAD2797A6D52B013C012BA93CA97A
:103470004DA95EA923966CAD7DAD8EAD9FAD239712
:1034800099D59B01AC01C301B2014ED3A7019601AE
:10349000BFD36093A3027093A4028093A50290937C
:1034A000A6022FA938AD49AD5AADCA01B90182D5DE
:1034B0006B017C01A5019401C501B4017BD59B0181
:1034C000AC01C701B60131D3DCD59B01AC016BADBA
:1034D0007CAD8DAD9EAD9CD36B017C01C092A702EB
:1034E000D092A802E092A902F092AA02A50194014A
:1034F0006FA978AD89AD9AAD8BD36093AB02709311
:10350000AC028093AD029093AE0220E030E0A901BE
:10351000C501B401D0D387FF18C020E030E0A90175
:10352000C701B6013CD5A701960118160CF068C07A
:103530006BED7FE089E490E4F7D26093A70270938B
:10354000A8028093A9029093AA0289E492E00E94C3
:10355000E40A20E030E044E353E46091A302709178
:10356000A4028091A5029091A60224D52BED3FE004
:1035700049E450E4A4D342E00E94EA0A8CE492E0D9
:103580000E94E40A20E030E044E353E46091A702A3
:103590007091A8028091A9029091AA020BD52BEDFF
:1035A0003FE049E450E48BD342E00E94EA0A8CE415
:1035B00092E00E94E40A20E030E044E353E46091AA
:1035C000AB027091AC028091AD029091AE02F2D448
:1035D0002BED3FE049E450E472D342E00E94EA0A56
:1035E0008AE392E00E94890A6091A20263256093B7
:1035F000A2028DE00E948908AFCD1092AF0206CEE4
:103600006BED7FE089E490EC97CFEF920F931F93DF
:10361000CF93DF93E80134E047FD34E1042E000C42
:10362000550B57FF03C0519541955109E32E022FC9
:10363000242FAE0107D0CE01DF91CF911F910F91C2
:10364000EF9008958F929F92AF92BF92CF92DF92A8
:10365000EF92FF920F931F93CF93DF9300D000D090
:1036600000D0CDB7DEB76A01F22EB02E102FFBE3EB
:10367000AF2EA01608F41BE31F5F012F27E0AE0159
:103680004F5F5F4F57D1BC018981982F997091305E
:1036900009F44EC09BE2E1FC04C09E2D9170E0FC59
:1036A00049C05E2D5071E82FE87083FF55C084E05B
:1036B000911101C083E0EF2DE81B8F1508F0E0E0C9
:1036C000D6018E2F20E25523C9F1992329F0D60186
:1036D0009C93C60101966C0196012D5F3F4FE2FE5F
:1036E00033C08EE4D6018C9391E411969C9311978C
:1036F00012968C93D9018E2F90E281112AC0E20F8D
:10370000F32FF11D10828EEF9FEF29960FB6F894DC
:10371000DEBF0FBECDBFDF91CF911F910F91FF9004
:10372000EF90DF90CF90BF90AF909F908F900895D3
:103730009DE2B7CF90E2B5CF2D9381508111FCCFA0
:10374000CE0ED11CE0E0C1CF8EE6D6018C9391E67F
:10375000CCCF9D938150D1CF482F447082FF3DC084
:1037600084E0911101C083E08F1510F4EF2DE81B68
:10377000D6018E2F20E2552309F1992329F0D60195
:103780009C93C60101966C0196012D5F3F4FE2FEAE
:103790001BC089E4D6018C938EE411968C9311970B
:1037A00086E412968C93D9018E2F90E2882309F437
:1037B000A6CF9D938150FACF2D9381508111FCCFDC
:1037C000CE0ED11CE0E0D9CF89E6D6018C938EE6EF
:1037D00011968C93119786E6E4CF9B0177FF02C088
:1037E00030E020E0A1E0B0E0911102C0B0E0A0E044
:1037F000F9013196AE0FBF1F8B2C912CBB2009F421
:1038000061C05401EFEFAE1ABE0AAA0DBB1DFA1635
:103810001B0619F014F04F2D4A1B511188C0E3FC10
:1038200059C07601A42FB0E2A1114FC0C40ED11C23
:10383000992309F45BC040E0D6011196F60190830C
:103840006D01552309F448C0012F060F9A81582FA6
:10385000507184FF03C0913309F4015010160CF02D
:1038600047C0093008F008E0EEE2FE2E5B01A01A26
:10387000B10885019194819491082F3F320729F472
:10388000D601FC92F60131966F016217730794F12D
:10389000021713077CF5DB01A21BB30BAA24A39428
:1038A000B12CAC0EBD1EAA0DBB1D11968C912150E2
:1038B0003109D601119628153905F4F0F6018083F7
:1038C0006D01DBCFB12CA12CA0CFF701B1937F010B
:1038D000A150AACF9111B0CFD601942F50E302C0CE
:1038E0005D9391509111FCCFC40ED11C40E0ACCF40
:1038F00001E0BACF80E3DBCF6217730731F4963370
:1039000088F4953311F4552369F0F6018083FD01A5
:10391000842F90E2811108C0A40FB11D1C9290E089
:1039200080E0F3CE81E3F1CF91938150F3CF9111F9
:1039300083CF8ACF283008F027E03327DA01990FA8
:10394000311D87FD916000966105710539F4326083
:103950002E5F3D9330E32A95E1F708959F3F30F0C5
:1039600080387105610509F03C5F3C5F3D93913003
:1039700008F08068911DDF93CF931F930F93FF9200
:10398000EF92192F987F9695E92F96959695E90FC6
:10399000FF27E459FE4F99273327EE24FF24A70180
:1039A000E70105900894079428F4360FE71EF81EE7
:1039B000491F511D660F771F881F991F0694A1F795
:1039C0000590079428F4E70EF81E491F561FC11DE5
:1039D000770F881F991F661F0694A1F7059007941B
:1039E00028F4F80E491F561FC71FD11D880F991FB5
:1039F000661F771F0694A1F70590079420F4490FDE
:103A0000561FC71FD81F990F661F771F881F069460
:103A1000A9F784911095177041F0D695C7955795E1
:103A20004795F794E7941A95C1F7E2E1F1E06894BD
:103A30001590159135916591959105907FE273955B
:103A4000E118F10A430B560BC90BD009C0F7E10C82
:103A5000F11E431F561FC91FD01D7EF4703311F491
:103A60008A95E6CFE894015030F0080F0AF4002759
:103A7000021708F4202F2395022F7A3328F079E3D8
:103A80007D932A95E9F710C07D932A9589F60694CF
:103A900097956795379517951794E118F10A430B99
:103AA000560BC90BD00998F023957E9173957A3304
:103AB00008F070E37C932013B8F77E9170617D93DA
:103AC00030F0839571E37D9370E32A95E1F711243B
:103AD000EF90FF900F911F91CF91DF91992787FD74
:103AE00090950895A1E21A2EAA1BBB1BFD010DC0E3
:103AF000AA1FBB1FEE1FFF1FA217B307E407F5079E
:103B000020F0A21BB30BE40BF50B661F771F881F79
:103B1000991F1A9469F760957095809590959B010F
:103B2000AC01BD01CF0108955058BB27AA270ED084
:103B3000FCC1EDD130F0F2D120F031F49F3F11F40F
:103B40001EF4BDC10EF4E095E7FBB3C1E92FFED131
:103B500080F3BA17620773078407950718F071F4AA
:103B60009EF516C20EF4E0950B2EBA2FA02D0B0178
:103B7000B90190010C01CA01A0011124FF27591BB2
:103B800099F0593F50F4503E68F11A16F040A22FB8
:103B9000232F342F4427585FF3CF46953795279529
:103BA000A795F0405395C9F77EF41F16BA0B620B28
:103BB000730B840BBAF09150A1F0FF0FBB1F661F6F
:103BC000771F881FC2F70EC0BA0F621F731F841FB2
:103BD00048F4879577956795B795F7959E3F08F0D8
:103BE000B3CF9395880F08F09927EE0F9795879597
:103BF00008958DD158F080E891E009F49EEF8ED1C0
:103C000028F040E851E059F45EEF09C058C1C0C146
:103C1000E92FE0789BD168F3092E052AC1F3261716
:103C200037074807590738F00E2E07F8E02569F0E6
:103C3000E025E0640AC0EF6307F8009407FADB01AF
:103C4000B9019D01DC01CA01AD01EF9347D06DD1EF
:103C50000AD05F91552331F02BED3FE049E450FD50
:103C600049EC63CF0895DF93DD27B92FBF7740E894
:103C70005FE31616170648075B0710F4D92F93D198
:103C80009F938F937F936F933AD2E4EEF0E01AD133
:103C90004CD12F913F914F915F9198D1DD2349F005
:103CA0009058A2EA2AED3FE049EC5FE3D0785D2727
:103CB0004DDFDF913AC1D9D008F481E008950CD0EE
:103CC00034C12CD140F023D130F021F45F3F19F002
:103CD000F0C051115EC1F3C039D198F39923C9F3F3
:103CE0005523B1F3951B550BBB27AA276217730702
:103CF000840738F09F5F5F4F220F331F441FAA1FB6
:103D0000A9F333D00E2E3AF0E0E830D09150504075
:103D1000E695001CCAF729D0FE2F27D0660F771F23
:103D2000881FBB1F261737074807AB07B0E809F005
:103D3000BB0B802DBF01FF2793585F4F2AF09E3F9A
:103D4000510568F0B6C025C15F3FECF3983EDCF347
:103D5000869577956795B795F7959F5FC9F7880F13
:103D6000911D9695879597F90895E1E0660F771F65
:103D7000881FBB1F621773078407BA0720F0621BF6
:103D8000730B840BBA0BEE1F88F7E095089504D0EF
:103D90006894B111FEC00895E1D088F09F5790F06B
:103DA000B92F9927B751A0F0D1F0660F771F881F60
:103DB000991F1AF0BA95C9F712C0B13081F0E8D056
:103DC000B1E00895E5C0672F782F8827B85F39F0F4
:103DD000B93FCCF3869577956795B395D9F73EF4BF
:103DE00090958095709561957F4F8F4F9F4F089567
:103DF000E89409C097FB3EF4909580957095619585
:103E00007F4F8F4F9F4F9923A9F0F92F96E9BB273A
:103E10009395F695879577956795B795F111F8CFB6
:103E2000FAF4BB0F11F460FF1BC06F5F7F4F8F4F21
:103E30009F4F16C0882311F096E911C0772321F017
:103E40009EE8872F762F05C0662371F096E8862FAF
:103E500070E060E02AF09A95660F771F881FDAF706
:103E6000880F9695879597F90895990F0008550F33
:103E7000AA0BE0E8FEEF16161706E807F907C0F0F0
:103E800012161306E407F50798F0621B730B840BF8
:103E9000950B39F40A2661F0232B242B252B21F4D2
:103EA00008950A2609F4A140A6958FEF811D811D72
:103EB000089597F99F6780E870E060E008959FEFAC
:103EC00080EC0895DF93CF931F930F93FF92EF92AF
:103ED000DF927B018C01689405C0DA2EEF0176D069
:103EE000FE01E894A5912591359145915591AEF348
:103EF000EF012CDEFE019701A801DA9479F7DF903B
:103F0000EF90FF900F911F91CF91DF9108950024C2
:103F10000A941616170618060906089500240A942E
:103F200012161306140605060895092E0394000CB4
:103F300011F4882352F0BB0F40F4BF2B11F460FF43
:103F400004C06F5F7F4F8F4F9F4F089557FD90586C
:103F5000440F551F59F05F3F71F04795880F97FB4D
:103F6000991F61F09F3F79F0879508951216130607
:103F70001406551FF2CF4695F1DF08C01616170636
:103F80001806991FF1CF869571056105089408956B
:103F9000E894BB2766277727CB0197F9089565DF5B
:103FA00008F48FEF08959B01AC0160E070E080E8B9
:103FB0009FE385CE0BD0B9CFAADF28F0AFDF18F092
:103FC000952309F076CF7BCF1124E3CFBFDFA0F399
:103FD000959FD1F3950F50E0551F629FF001729F9E
:103FE000BB27F00DB11D639FAA27F00DB11DAA1FBD
:103FF000649F6627B00DA11D661F829F2227B00D0A
:10400000A11D621F739FB00DA11D621F839FA00D94
:10401000611D221F749F3327A00D611D231F849FE4
:10402000600D211D822F762F6A2F11249F5750403B
:104030008AF0E1F088234AF0EE0FFF1FBB1F661FD6
:10404000771F881F91505040A9F79E3F510570F08F
:1040500030CF9FCF5F3FECF3983EDCF386957795AA
:104060006795B795F795E7959F5FC1F7FE2B880F8A
:10407000911D9695879597F9089511F40EF41FCF29
:1040800045C06CDFD0F39923D9F3CEF39F57550B7E
:1040900087FF4AD00024A0E640EA90018058569558
:1040A000979528F4805C660F771F881F20F02617ED
:1040B0003707480730F4621B730B840B2029312922
:1040C0004A2BA69517940794202531254A2758F79F
:1040D000660F771F881F20F026173707480730F430
:1040E000620B730B840B200D311D411DA09581F7D0
:1040F000B901842F9158880F9695879508959B0153
:10410000AC0158CFB2DE880B990B08959F3F31F078
:10411000915020F4879577956795B795880F911DF5
:104120009695879597F9089591505040660F771F9F
:10413000881FD2F70895EE0FFF1F881F8BBF0790CF
:10414000F691E02D19940F931F93CF93DF93823054
:10415000910510F482E090E0E0913504F09136048E
:1041600030E020E0B0E0A0E0309799F4211531056F
:1041700009F44AC0281B390B24303105D8F58A814F
:104180009B816115710589F1FB0193838283FE0197
:1041900011C0408151810281138148175907E0F015
:1041A0004817590799F4109761F012960C931297DB
:1041B00013961C933296CF01DF91CF911F910F91EF
:1041C00008950093350410933604F4CF211531057A
:1041D00051F04217530738F0A901DB019A01BD01E4
:1041E000DF01F801C1CFEF01F9CF9093360480933E
:1041F0003504CDCFFE01E20FF31F8193919322503E
:10420000310939832883D7CF209133043091340486
:10421000232B41F420911202309113023093340485
:1042200020933304209110023091110221153105A1
:1042300041F42DB73EB74091140250911502241B52
:10424000350BE0913304F0913404E217F307A0F446
:104250002E1B3F0B2817390778F0AC014E5F5F4FDC
:104260002417350748F04E0F5F1F509334044093D6
:104270003304819391939FCFF0E0E0E09CCFCF9304
:10428000DF930097E9F0FC01329713821282A0912C
:104290003504B0913604ED0130E020E01097A1F430
:1042A00020813181820F931F209133043091340497
:1042B0002817390709F061C0F0933404E093330400
:1042C000DF91CF910895EA01CE17DF07E8F54A8123
:1042D0005B819E0141155105B1F7E901FB83EA833A
:1042E00049915991C40FD51FEC17FD0761F48081E6
:1042F00091810296840F951FE901998388838281B9
:1043000093819B838A83F0E0E0E012968D919C91EB
:1043100013970097B9F52D913C911197CD01029615
:10432000820F931F209133043091340428173907EA
:1043300039F6309751F51092360410923504B09347
:104340003404A0933304BCCFD383C2834081518112
:10435000840F951FC817D90761F44E5F5F4F88819E
:104360009981480F591F518340838A819B81938390
:1043700082832115310509F0B0CFF0933604E09324
:1043800035049ECFFD01DC01C0CF13821282D7CF4E
:10439000FB01DC0104C08D910190801921F4415092
:0E43A0005040C8F7881B990B0895F894FFCF82
:1043AE007609760976097609760976097609760907
:1043BE0000003704800000000000D4073F076C07A0
:1043CE003A089D077B078F0700000000FE09D209FF
:1043DE004B0AA809CB09B809A9090D0A006E616E2E
:0E43EE0000696E66006F7666007970720900D5
:020000023000CC
:10E000000D9489F10D94B2F10D94B2F10D94B2F129
:10E010000D94B2F10D94B2F10D94B2F10D94B2F1F0
:10E020000D94B2F10D94B2F10D94B2F10D94B2F1E0
:10E030000D94B2F10D94B2F10D94B2F10D94B2F1D0
:10E040000D94B2F10D94B2F10D94B2F10D94B2F1C0
:10E050000D94B2F10D94B2F10D94B2F10D94B2F1B0
:10E060000D94B2F10D94B2F10D94B2F10D94B2F1A0
:10E070000D94B2F10D94B2F10D94B2F10D94B2F190
:10E080000D94B2F10D94B2F10D94B2F10D94B2F180
:10E090000D94B2F10D94B2F10D94B2F10D94B2F170
:10E0A0000D94B2F10D94B2F10D94B2F10D94B2F160
:10E0B0000D94B2F10D94B2F10D94B2F10D94B2F150
:10E0C0000D94B2F10D94B2F10D94B2F10D94B2F140
:10E0D0000D94B2F10D94B2F10D94B2F10D94B2F130
:10E0E0000D94B2F141546D656761323536300041AF
:10E0F000726475696E6F206578706C6F72657220DE
:10E1000073746B3530305632206279204D4C530099
:10E11000426F6F746C6F616465723E004875683F52
:10E1200000436F6D70696C6564206F6E203D200048
:10E130004350552054797065202020203D20005FF9
:10E140005F4156525F415243485F5F3D2000415658
:10E1500052204C696243205665723D20004743437C
:10E160002056657273696F6E203D20004350552024
:10E1700049442020202020203D20004C6F7720663D
:10E18000757365202020203D20004869676820665F
:10E190007573652020203D200045787420667573D6
:10E1A00065202020203D20004C6F636B2066757336
:10E1B000652020203D20004D617220203720323024
:10E1C000313300312E362E3800342E332E350056A2
:10E1D00023202020414444522020206F7020636F70
:10E1E00064652020202020696E73747275637469E1
:10E1F0006F6E2061646472202020496E74657272B3
:10E20000757074006E6F20766563746F7200726A49
:10E210006D702020006A6D70200057686174207056
:10E220006F72743A00506F7274206E6F7420737541
:10E2300070706F72746564004D7573742062652030
:10E2400061206C6574746572002000577269747483
:10E25000696E672045450052656164696E672045B7
:10E26000450045452065727220636E743D00504F35
:10E27000525400303D5A65726F2061646472003FF1
:10E280003D43505520737461747300403D454550C3
:10E29000524F4D207465737400423D426C696E6B41
:10E2A000204C454400453D44756D70204545505215
:10E2B0004F4D00463D44756D7020464C415348001B
:10E2C000483D48656C70004C3D4C69737420492F83
:10E2D0004F20506F72747300513D51756974005234
:10E2E0003D44756D702052414D00563D73686F7707
:10E2F00020696E7465727275707420566563746FF0
:10E30000727300593D506F727420626C696E6B00BD
:10E310002A0011241FBECFEFD1E2DEBFCDBF01E046
:10E320000CBF12E0A0E0B2E0EEE1FDEF03E00BBFB6
:10E3300002C007900D92A030B107D9F712E0A0E01B
:10E34000B2E001C01D92AE30B107E1F70F9460F367
:10E350000D948DFE01E20EBF0FEF0DBF11241FBE05
:10E360000D9460F30D9400F020E030E040ED57E0B4
:10E3700005C0FA013197F1F72F5F3F4F2817390792
:10E38000C0F308959C01260F311DC901A0E0B0E043
:10E390002F5F3F4FABBFFC018791882361F08093D3
:10E3A000C6008091C00086FFFCCF8091C0008064D1
:10E3B0008093C000EACF08958DE08093C6008091DD
:10E3C000C00086FFFCCF8091C00080648093C000B5
:10E3D0008AE08093C6008091C00086FFFCCF8091C8
:10E3E000C00080648093C00008950F94C2F10F9420
:10E3F000DCF10895FC019081992359F09093C600B7
:10E400008091C00086FFFCCF8091C0008064809323
:10E41000C0003196992379F70895282F982F929567
:10E420009F70892F805D8A3308F0895F8093C600D2
:10E430008091C00086FFFCCF8091C00080648093F3
:10E44000C000822F8F70982F905D9A3308F0995FEB
:10E450009093C6008091C00086FFFCCF8091C000E1
:10E4600080648093C00008959C01FB01853691056E
:10E470001CF46330710594F0C90164E670E00F94F8
:10E480002EFE605D7F4F6093C6008091C00086FFC6
:10E49000FCCF8091C00080648093C0002B30310598
:10E4A00014F43297B4F0C90164E670E00F942EFEC4
:10E4B0006AE070E00F942EFE605D7F4F6093C600AF
:10E4C0008091C00086FFFCCF8091C0008064809363
:10E4D000C000C9016AE070E00F942EFEC0968093E0
:10E4E000C6008091C00086FFFCCF8091C000806490
:10E4F0008093C00008951F93182F8EE692EE60E07F
:10E500000F94C2F11093C6008091C00086FFFCCF2B
:10E510008091C00080648093C0000F94DCF11F9153
:10E5200008952F923F924F925F926F927F928F92B7
:10E530009F92AF92BF92CF92DF92EF92FF920F9392
:10E540001F93DF93CF93CDB7DEB762970FB6F894E2
:10E55000DEBF0FBECDBF382E622ECA01DB015C01CB
:10E560006D01772420E2222E2E010894411C511CBB
:10E570008BC081E0A81680E0B80681E0C80680E084
:10E58000D80628F0C601AA27BB270F940DF2BB2797
:10E59000AD2D9C2D8B2D0F940DF28A2D0F940DF225
:10E5A0002092C6008091C00086FFFCCF8091C00001
:10E5B00080648093C0009DE29093C6008091C0006B
:10E5C00086FFFCCF8091C00080648093C0002092C1
:10E5D000C6008091C00086FFFCCF8091C00080649F
:10E5E0008093C00019828601750188249924A1E0D6
:10E5F0003A1651F03A1620F0B2E03B1661F409C029
:10E600000BBFF701779007C0C7010F9477FE782EF4
:10E6100002C0F7017080872D0F940DF22092C60082
:10E620008091C00086FFFCCF8091C0008064809301
:10E63000C000872D8052F401EF70F0708F3520F408
:10E64000E40DF51D708204C0E40DF51D8EE280839B
:10E650000894E11CF11C011D111D0894811C911CE2
:10E6600090E18916910409F0C2CF80E190E0A0E02A
:10E67000B0E0A80EB91ECA1EDB1E198AC2010F9493
:10E68000FAF10F94DCF16A94662009F072CF629679
:10E690000FB6F894DEBF0FBECDBFCF91DF911F91B3
:10E6A0000F91FF90EF90DF90CF90BF90AF909F9031
:10E6B0008F907F906F905F904F903F902F90089534
:10E6C0002F923F924F925F926F927F928F929F9282
:10E6D000AF92BF92CF92DF92EF92FF920F931F9370
:10E6E000DF93CF93CDB7DEB7CD53D1400FB6F894BB
:10E6F000DEBF0FBECDBF01E20EBF0FEF0DBF94B75F
:10E70000F894A89514BE80916000886180936000A1
:10E7100010926000789493FF05C0E0910002F091A0
:10E7200001021995279A2F9A8091C00082608093E8
:10E73000C00080E18093C40088E18093C1000000A4
:10E74000EE24FF24870144E0A42EB12CCC24DD2448
:10E7500024C0C5010197F1F70894E11CF11C011DCB
:10E76000111D21E2E2162EE4F20620E0020720E06D
:10E77000120718F031E0C32ED12CC801B70127ECE5
:10E780003BE140E050E00F9441FE611571058105C9
:10E79000910519F485B1805885B98091C00087FD35
:10E7A00003C0C114D104A9F2A6014F5F5F4FC25E3E
:10E7B000DE4F59834883CE51D140C25EDE4F8881FF
:10E7C0009981CE51D140019711F00D9410FEC05D9A
:10E7D000DE4F19821882C053D14060E0C15DDE4F28
:10E7E0001882CF52D14088249924C35DDE4F19820C
:10E7F0001882CD52D140C05EDE4F188219821A8233
:10E800001B82C052D140CE5CDE4F188219821A8220
:10E810001B82C253D140EE24FF2487010BBFF701B6
:10E8200007911691C45CDE4F19830883CC53D14005
:10E830000D940BFEC25EDE4F28813981CE51D1404E
:10E840002130310509F52091C600C25EDE4F1982E4
:10E850001882CE51D14022C02F5F3F4F4F4F5F4FA4
:10E86000213082E138078AE7480780E0580780F0C6
:10E87000C45CDE4FE881F981CC53D140EF5FFF4F9C
:10E8800019F0EE27FF27099420E030E040E050E047
:10E890008091C00087FFE0CF2091C600C35DDE4FAE
:10E8A00048815981CD52D1404F5F5F4FC35DDE4FEC
:10E8B00059834883CD52D140213209F063C64A3092
:10E8C000510508F05FC60894811C911C53E0851621
:10E8D000910409F059C600E010E018C081E280936D
:10E8E000C6008091C00086FFFCCF8091C00080648C
:10E8F0008093C0002F5F3F4F2931310579F70F9486
:10E90000DCF10F5F1F4F0530110519F020E030E0FA
:10E91000E5CF10920A0210920B0210920C02109294
:10E920000D02109206021092070210920802109235
:10E930000902109202021092030210920402109235
:10E9400005028FEE90EE60E00F94F5F180E191EE1C
:10E9500060E00F94C2F18091C00087FFFCCF9091DE
:10E96000C600903608F09F759032B8F09093C600BC
:10E970008091C00086FFFCCF8091C00080648093AE
:10E98000C000A0E2A093C6008091C00086FFFCCF2B
:10E990008091C00080648093C000983409F4D7C18E
:10E9A0009934B8F4923409F459C1933458F490333B
:10E9B00019F1903308F4E3C59F33A1F1903409F0C5
:10E9C000DEC5BDC0953409F470C1963409F0D7C5D1
:10E9D00098C1923509F42BC2933538F49C3409F46C
:10E9E000F5C1913509F0CBC518C2963509F445C279
:10E9F000993509F0C4C567C483E792EE62E00F94CD
:10EA0000F5F110920602109207021092080210927D
:10EA1000090210920A0210920B0210920C0210923C
:10EA20000D0213C18FE792EE62E00F94F5F18FEEC5
:10EA300090EE60E00F94F5F181E291EE60E00F94CA
:10EA4000C2F187EB91EE60E00F94F5F180E391EE77
:10EA500060E00F94C2F184EE90EE60E00F94F5F167
:10EA60008FE391EE60E00F94C2F186E090E061E008
:10EA700070E00F9434F20F94DCF18DE591EE60E0DC
:10EA80000F94C2F189EC91EE60E00F94F5F18EE401
:10EA900091EE60E00F94C2F183EC91EE60E00F9490
:10EAA000F5F18CE691EE60E00F94C2F18EE10F94E7
:10EAB0000DF288E90F940DF281E00F940DF20F949E
:10EAC000DCF18BE791EE60E00F94C2F119E0E0E039
:10EAD000F0E010935700E4918E2F0F940DF20F94F5
:10EAE000DCF18AE891EE60E00F94C2F1E3E0F0E03F
:10EAF00010935700E4918E2F0F940DF20F94DCF1D8
:10EB000089E991EE60E00F94C2F1E2E0F0E0109349
:10EB10005700E4918E2F0F940DF20F94DCF188EAE8
:10EB200091EE60E00F94C2F1E1E0F0E01093570045
:10EB30001491812F0F940DF20F94DCF107CF8BE825
:10EB400092EE62E00F94F5F18BE492EE60E00F94A8
:10EB5000F5F10F94DCF100E010E019C0C8016F2D51
:10EB60000F947FFEFF2031F489E492EE60E00F9471
:10EB7000C2F10BC0F092C6008091C00086FFFCCFAE
:10EB80008091C00080648093C0000F5F1F4FC80158
:10EB900081519F41A0E0B0E0ABBFFC01F790BAE229
:10EBA000FB1621F0E2E000301E07C1F60F94DCF105
:10EBB0000F94DCF187E592EE60E00F94F5F10F948D
:10EBC000DCF1CC24DD2400E010E01EC0C8010F946D
:10EBD00077FEF82E882331F489E492EE60E00F94FA
:10EBE000C2F10BC08093C6008091C00086FFFCCFAD
:10EBF0008091C00080648093C000FE1419F00894D6
:10EC0000C11CD11C0F5F1F4FC80181519F41A0E063
:10EC1000B0E0ABBFFC01E790FAE2EF1621F022E092
:10EC20000030120799F60F94DCF10F94DCF182E6C4
:10EC300092EE60E00F94C2F1C60161E070E00F94C3
:10EC400034F20F94DCF10F94DCF110920202109276
:10EC50000302109204021092050278CE89E992EE26
:10EC600062E00F94F5F1279A2F9A16C02F9880E052
:10EC700090E0E0EDF7E03197F1F7019684369105E9
:10EC8000C1F72F9A80E090E0E0EDF7E03197F1F7DF
:10EC9000019684369105C1F78091C00087FFE6CFC9
:10ECA0008091C00087FFFCCF64C485EA92EE62E0E9
:10ECB0000F94F5F140910202509103026091040219
:10ECC0007091050281E020E10F9491F2809102029F
:10ECD00090910302A0910402B091050280509F4FD1
:10ECE000AF4FBF4F8093020290930302A0930402A0
:10ECF000B093050280509041A040B04008F426CE69
:10ED0000A4CF83EB92EE62E00F94F5F140910602FE
:10ED100050910702609108027091090280E020E1A1
:10ED20000F9491F28091060290910702A09108023F
:10ED3000B091090280509F4FAF4FBF4F80930602A2
:10ED400090930702A0930802B0930902FFCD80ECD4
:10ED500092EE62E00F94F5F183E792EE60E00F949B
:10ED6000F5F18FE792EE60E00F94F5F18BE892EE0B
:10ED700060E00F94F5F189E992EE60E00F94F5F10F
:10ED800085EA92EE60E00F94F5F183EB92EE60E09D
:10ED90000F94F5F180EC92EE60E00F94F5F187ECC2
:10EDA00092EE60E00F94F5F188ED92EE60E00F9442
:10EDB000F5F18FED92EE60E00F94F5F18AEE92EEB0
:10EDC00060E00F94F5F183E093EEBDCD87EC92EE19
:10EDD00062E00F94F5F181E40F947BF282E40F94EA
:10EDE0007BF283E40F947BF284E40F947BF285E45E
:10EDF0000F947BF286E40F947BF287E40F947BF20E
:10EE000088E40F947BF28AE40F947BF28BE40F94F6
:10EE10007BF28CE40F947BF299CD88ED92EE62E068
:10EE20000F94F5F1772473948824992409C48FED05
:10EE300092EE62E00F94F5F140910A0250910B02BC
:10EE400060910C0270910D0282E020E10F9491F22A
:10EE500080910A0290910B02A0910C02B0910D02D8
:10EE600080509F4FAF4FBF4F80930A0290930B0289
:10EE7000A0930C02B0930D0269CD8AEE92EE62E08F
:10EE80000F94F5F184EE90EE60E00F94F5F18FECC5
:10EE900091EE60E00F94F5F1662477244301CC5D98
:10EEA000DE4F19821882C452D140D401C301B695F5
:10EEB000A79597958795CA5DDE4F88839983AA8326
:10EEC000BB83C652D140CC5DDE4FA881B981C4520C
:10EED000D1401196CC5DDE4FB983A883C452D14096
:10EEE000CD0162E070E00F9434F2B0E2B093C6005E
:10EEF0008091C00086FFFCCF8091C0008064809329
:10EF0000C000EDE2E093C6008091C00086FFFCCF18
:10EF10008091C00080648093C000F0E2F093C6004E
:10EF20008091C00086FFFCCF8091C00080648093F8
:10EF3000C000CA5DDE4FE880F9800A811B81C6529D
:10EF4000D140BB27A12F902F8F2D0F940DF2CA5DBA
:10EF5000DE4F8881C652D1400F940DF2B0E2FB2EF5
:10EF6000F092C6008091C00086FFFCCF8091C00067
:10EF700080648093C0000DE30093C6008091C000C0
:10EF800086FFFCCF8091C00080648093C00010E2B7
:10EF90001093C6008091C00086FFFCCF8091C00016
:10EFA00080648093C0008BBEF3012791C65DDE4F65
:10EFB0002883CA52D140A22EBB24CC24DD2408943D
:10EFC000611C711C811C911C8BBEF3018791282E42
:10EFD0003324442455240894611C711C811C911C09
:10EFE0008BBEF3013791C55DDE4F3883CB52D140E4
:10EFF0000894611C711C811C911C8BBEF30147910C
:10F00000C45DDE4F4883CC52D140ADEFEA2EAFEF66
:10F01000FA2EAFEF0A2FAFEF1A2F6E0C7F1C801E57
:10F02000911E142D032DF22CEE24EA0CFB1C0C1D5A
:10F030001D1D0F940DF220E22093C6008091C000A8
:10F0400086FFFCCF8091C00080648093C000C65DC5
:10F05000DE4F8881CA52D1400F940DF230E23093D6
:10F06000C6008091C00086FFFCCF8091C000806404
:10F070008093C000C45DDE4F8881CC52D1400F9494
:10F080000DF240E24093C6008091C00086FFFCCFA5
:10F090008091C00080648093C000C55DDE4F888190
:10F0A000CB52D1400F940DF250E25093C6008091A4
:10F0B000C00086FFFCCF8091C00080648093C000B8
:10F0C0008FEFE8168FEFF80680E0080780E018075A
:10F0D00031F484E092EE60E00F94C2F1DFC0D80119
:10F0E000C7018070907CA070B0708050904CA040A0
:10F0F000B040D1F52FEF3FE340E050E0E222F322B1
:10F1000004231523CA5DDE4FA880B980CA80DB8046
:10F11000C652D140AE0CBF1CC01ED11EAA0CBB1CD7
:10F12000CC1CDD1C8EE092EE60E00F94C2F1BB2798
:10F13000A12F902F8F2D0F940DF28E2D0F940DF285
:10F1400030E23093C6008091C00086FFFCCF8091F2
:10F15000C00080648093C0004EE34093C60080915D
:10F16000C00086FFFCCF87C08EE09EEFA0E0B0E03D
:10F17000E822F9220A231B239CE0E91694E9F90608
:10F1800090E0090790E0190709F088C0C45DDE4FE0
:10F19000A881CC52D140EA2EFF2400E010E0102FCD
:10F1A0000F2DFE2CEE24C55DDE4FB881CB52D14031
:10F1B000EB0EF11C011D111DD601C501817090706F
:10F1C000A070B070DC0199278827E80EF91E0A1F8D
:10F1D0001B1F20EF30E040E050E0A222B322C42207
:10F1E000D52241E1AA0CBB1CCC1CDD1C4A95D1F7F1
:10F1F000EA0CFB1C0C1D1D1D81E090E0A0E0B0E0BE
:10F20000282239224A225B2235E1220C331C441C7D
:10F21000551C3A95D1F7E20CF31C041D151D57013E
:10F220006801AA0CBB1CCC1CDD1C85E192EE60E0E1
:10F230000F94C2F1C801AA27BB270F940DF2BB2778
:10F24000A12F902F8F2D0F940DF28E2D0F940DF274
:10F2500090E29093C6008091C00086FFFCCF809121
:10F26000C00080648093C000AEE3A093C60080918C
:10F27000C00086FFFCCF8091C00080648093C000F6
:10F28000C601AA27BB270F940DF2BB27AD2D9C2DDD
:10F290008B2D0F940DF28A2D0F940DF20F94DCF14B
:10F2A000CC5DDE4FE881F981C452D140F99709F471
:10F2B0004DCBF4E0EF2EF12C012D112D6E0C7F1CA7
:10F2C000801E911EF2CD83E093EE62E00F94F5F183
:10F2D0008AE192EE60E00F94C2F18091C00087FF56
:10F2E000FCCF1091C6001F751093C6008091C0001E
:10F2F00086FFFCCF8091C00080648093C0000F9493
:10F30000DCF1812F81548A3108F036C1163409F4BA
:10F3100095C0173490F4133409F44EC0143430F40B
:10F320001134F1F0123409F01DC130C0143409F465
:10F3300059C0153409F016C16BC01A3409F4C4C0A1
:10F340001B3438F4173409F48FC0183409F00AC19B
:10F35000A1C01B3409F4D2C01C3409F003C1E8C0B9
:10F360008FEF81B90DC082B1809582B980E090E0C5
:10F37000E0EDF7E03197F1F70196883C9105C1F790
:10F380008091C00087FFEFCF12B8EFC08FEF84B934
:10F390000DC085B1809585B980E090E0E0EDF7E0A3
:10F3A0003197F1F70196883C9105C1F78091C00033
:10F3B00087FFEFCF15B8D9C08FEF87B90DC088B1DF
:10F3C000809588B980E090E0E0EDF7E03197F1F7C3
:10F3D0000196883C9105C1F78091C00087FFEFCF6F
:10F3E00018B8C3C08FEF8AB90DC08BB180958BB9A7
:10F3F00080E090E0E0EDF7E03197F1F70196883C8E
:10F400009105C1F78091C00087FFEFCF1BB8ADC059
:10F410008FEF8DB90DC08EB180958EB980E090E0F0
:10F42000E0EDF7E03197F1F70196883C9105C1F7DF
:10F430008091C00087FFEFCF1EB897C08FEF80BBD1
:10F440000DC081B3809581BB80E090E0E0EDF7E0F6
:10F450003197F1F70196883C9105C1F78091C00082
:10F4600087FFEFCF11BA81C08FEF83BB0DC084B38C
:10F47000809584BB80E090E0E0EDF7E03197F1F714
:10F480000196883C9105C1F78091C00087FFEFCFBE
:10F4900014BA6BC08FEF809301010FC080910201FD
:10F4A00080958093020180E090E0E0EDF7E03197F5
:10F4B000F1F70196883C9105C1F78091C00087FF64
:10F4C000EDCF1092020151C08FEF809304010FC065
:10F4D0008091050180958093050180E090E0E0ED4A
:10F4E000F7E03197F1F70196883C9105C1F78091DB
:10F4F000C00087FFEDCF1092050137C08FEF8093DA
:10F5000007010FC08091080180958093080180E079
:10F5100090E0E0EDF7E03197F1F70196883C910536
:10F52000C1F78091C00087FFEDCF109208011DC088
:10F530008FEF80930A010FC080910B01809580931B
:10F540000B0180E090E0E0EDF7E03197F1F70196F4
:10F55000883C9105C1F78091C00087FFEDCF1092E4
:10F560000B0103C085E292EEEEC98091C00087FFD7
:10F57000FCCF8091C600EAC988E392EEE4C98CE131
:10F5800091EEE1C988249924933011F1943028F444
:10F59000913089F09230B8F408C0953061F195301F
:10F5A000F0F0963009F048C043C02B3109F042C951
:10F5B00091E06BE13FC96227C15DDE4F2883CF52E6
:10F5C000D14092E037C9B22FA0E0622793E032C960
:10F5D000822F90E0A82BB92B622794E02BC92E3004
:10F5E00009F039C3622795E0C05DDE4F19821882A9
:10F5F000C053D1401FC9E1E0F0E0EC0FFD1FC05D3A
:10F60000DE4F08811981C053D140E00FF11F2083E4
:10F610000F5F1F4FC05DDE4F19830883C053D14079
:10F6200062270A171B0709F005C9D80196E002C92D
:10F63000261709F010C303C0973009F0FBC87724E0
:10F640009981933109F412C19431C8F4963009F4C8
:10F65000D8C0973050F4923009F406C1933009F4C1
:10F660006DC0913009F059C253C0913109F477C08F
:10F67000923108F0BBC0903109F04FC2F5C098310B
:10F6800009F487C0993150F4953109F4EFC09531F0
:10F6900008F4C6C1963109F040C2C2C19A3109F4DA
:10F6A0006CC09A3108F491C09B3109F45BC09D3164
:10F6B00009F033C29D81903359F48F81882311F46E
:10F6C0009EE11CC0813011F091E018C098E916C08D
:10F6D000892F807591F0903539F4E0E0F0E089E011
