:10000000BAC500000C94BE130C9493130C9468139F
:100010000C943D130C9412130C94E7120C94BC1224
:100020000C949112D9C50000D7C50000D5C50000B9
:10003000D3C50000D1C50000CFC50000CDC500006C
:10004000CBC500000C947314C7C50000C5C50000E3
:10005000C3C50000C1C50000BFC500000C94471215
:10006000BBC500000C9411120C94E711B5C500003B
:10007000B3C50000B1C50000AFC50000ADC50000AC
:100080000C944514A9C50000A7C50000A5C5000033
:10009000A3C50000A1C500009FC500000C94A114D9
:1000A0009BC5000099C500000C94171495C500006D
:1000B00093C5000091C500008FC500000C94E913A2
:1000C0008BC5000089C5000087C5000085C50000FC
:1000D00083C5000081C500000C94B1110C948711F8
:1000E0007BC50000084AD73B3BCE016E84BCBFFDF8
:1000F000C12F3D6C74319ABD56833DDA3D00C77FF8
:1001000011BED9E4BB4C3E916BAAAABE0000008090
:100110003F0000407A10F35A00A0724E18090010F8
:10012000A5D4E80000E87648170000E40B5402006C
:1001300000CA9A3B000000E1F50500008096980097
:10014000000040420F000000A086010000001027C0
:1001500000000000E8030000000064000000000050
:100160000A00000000000100000000002C76D88882
:10017000DC674F0823DFC1DFAE59E1B1B796E5E395
:10018000E453C63AE651997696E8E6C28426EB89AE
:100190008C9B62ED407C6FFCEFBC9C9F40F2BAA54B
:1001A0006FA5F490055A2AF75C936B6CF9676DC1E3
:1001B0001BFCE0E40D47FEF520E6B500D0ED902EE7
:1001C0000300943577050080841E080000204E0A45
:1001D000000000C80C333333330F986E1283114183
:1001E000EF8D2114893BE65516CFFEE6DB18D1844E
:1001F0004B381BF77C1D901DA4BBE4242032847275
:100200005E228100C9F124ECA1E53D270000210018
:10021000240027002A002D003000330001010000D7
:10022000040107010A0100002200250028002B001C
:100230002E003100340002010000050108010B010D
:1002400005050505070508080808020202020A0A52
:100250000808040404040101010101010101030370
:10026000030303030303040707070C0C0C0C0C0C1B
:100270000C0C0202020206060606060606060B0B18
:100280000B0B0B0B0B0B0102102020080810204059
:10029000102040800201020108040201010204084A
:1002A00010204080804020100804020180040201D8
:1002B0008040201008040201080402010102040821
:1002C00010204080010204081020408000000A0B2A
:1002D00002090C0D0E0807030401000000000000D5
:1002E000000000000000000000000000000000000E
:1002F00000000000000000001211100000000000CB
:1003000000000000000000000000000000000000ED
:100310000000FB00003E000B00360001000200035D
:10032000000000650054FFEF0000FA80000B12820D
:1003300000010002000000000000000000000000BA
:10034000000000280000FFFF4581FFFFFA72000057
:100350000000000003E80000000100017FFFFFFE35
:100360008001001B000000000000000000000000F1
:100370000000004000004000000002CB47A2200027
:1003800000002000000000000000400000006000AD
:10039000000041FF000000000B2A0000165500007D
:1003A0002182FD872650FD800000001F000000050F
:1003B00080000000000000010000000200000003B7
:1003C0000000400000000000046F000265320000E1
:1003D0005EC04000000000000000000000000000BF
:1003E0000000FB8C6F5DFD5D08D9007C733B006CE9
:1003F00012CC3200139D3200D0D6320008004000EB
:1004000001F4FFE68079020000000000D0D6000071
:100410002710FB000000400000000000000000006A
:1004200000000000000100000000000001000100C9
:1004300000000000FA36FFBC308E0005FBF0FFD94B
:100440005BC8FFD09ABE000010A9FFF41EB200CE18
:10045000BBF70000000100000004000200020200DF
:10046000000CFFC280000001800000CF800040002F
:100470000000000000000000000000000600000076
:100480000014000000000000000000000000000058
:10049000000000000000000000000000000000005C
:1004A00000000923A135000000000000000000004A
:1004B000000000000000033F68B6793528BCC67E06
:1004C000D16C8000FFFF400000000000B26A000015
:1004D0000000000000000000000000003FF00000ED
:1004E00000300000000000000000000000000000DC
:1004F00000000000000000000000000000000000FC
:1005000040000000254D002F706D000005AE000C6E
:1005100002D00000000000650054FFEF0000000062
:100520000000000001000044000100058BC1000034
:100530000100000000000065000000540000FFEF13
:1005400000000000000000000000000000000000AB
:10055000000000000000000000000000000000009B
:10056000000000000000000000000000000000008B
:100570000000000000010000000200000000000078
:10058000000000000000000000000000000000006B
:10059000000000000000000000000000000000005B
:1005A0000000001B00000000000000000000000030
:1005B000000000000000000000000000000000003B
:1005C000000000000000000000000000000000002B
:1005D0000000001B00000000000000000000000000
:1005E000000000000000000000000000000000000B
:1005F00000000000000000000000000000000000FB
:1006000000000000000000000000000000000000EA
:100610000000D8DCBAA2F1DEB2B8B4A88191F74AE2
:10062000907F916AF3F9DBA8F9B0BAA080F2CE818D
:10063000F3C2F1C1F2C3F3CCA2B280F1C6D880BA42
:10064000A7DFDFDFF2A7C3CBC5B6F087A2942448AB
:10065000703C95406834589B78A2F183922D557D6B
:10066000D8B1B4B8A1D09180F270F370F27C80A8B8
:10067000F101B09887D943D886C988BAA1F20EB8DB
:100680009780F1A9DFDFDFAADFDFDFF2AA4CCD6CB4
:10069000A90CC92C97979797F1A989264666B0B4FB
:1006A000BA80ACDEF2CAF1B28C02A9B69800890E0B
:1006B000161EB8A9B4992C547CB08AA896365676E2
:1006C000F1B9AFB4B083C0B8A89711B18F98B9AFE2
:1006D000F0240844106418F1A329557DAF83B59325
:1006E000AFF0002850F1A3869F61A6DADEDFD9FAC9
:1006F000A38696DB31A6D9F8DFBAA68FC2C5C7B2EA
:100700008CC1B8A2DFDFDFA3DFDFDFD8D8F1B8A864
:10071000B286B4980D355DB8AA98B0872D353DB234
:10072000B6BAAF8C96198F9FA70E161EB49AB8AAA8
:10073000872C547CB9A3DEDFDFA3B180F2C4CDC91E
:10074000F1B8A9B499830D355D89B9A32D557DB54F
:1007500093A30E161EA92C547CB8B4B0F19783A8AD
:100760001184A50998A383F0DA240844106418D8EA
:10077000F1A529557DA58595021A2E3A565A40486D
:10078000F9F3A3D9F8F098832408441064189782E9
:10079000A8F111F098A2240844106418DAF3DED806
:1007A00083A59401D9A302F1A2C3C5C7D8F184924D
:1007B000A24DDA2AD84869D92AD86855DA32D850F1
:1007C00071D932D8705DDA3AD85879D93AD8789355
:1007D000A34DDA2AD84869D92AD86855DA32D850D0
:1007E00071D932D8705DDA3AD85879D93AD878A820
:1007F0008A9AF02850789EF38818F19F1D98A8D9FE
:1008000008D8C89F129EF315A8DA1210D8F1AFC805
:10081000978734B5B994A421F3D922D8F22DF3D90E
:100820002AD8F235F3D932D881A4606061D961D871
:100830006C6869D969D8747071D971D8B1A38419F9
:100840003D5DA3831A3E5E931030811011B8B0AFA6
:100850008F94F2DA3ED8B49AA88729DAF8D8879A22
:1008600035DAF8D8879A3DDAF8D8B1B9A498850274
:100870002E56A581000C14A397B08AF12DD928D843
:100880004DD948D86DD968D8B1840DDA0ED8A329CE
:1008900083DA2C0ED8A3844983DA2C4C0ED8B8B056
:1008A000A88A9AF520AADADFD8A840AAD0DADED83A
:1008B000A860AADAD0DFD8F19786A8319B069907FD
:1008C000AB9728889BF00C201440B8B0B4A88C9C3F
:1008D000F0042851791D301438B282ABD0982C50D6
:1008E0005078789BF11AB0F08A9CA82951798B290D
:1008F00051798A2470598B2058718A4469388B3910
:1009000040688A6448318B304960A5882009715855
:100910004468113964493019F1AC002C547CF08CD6
:10092000A804285078F1889726A85998AC8C0226FC
:100930004666F0899CA82951792470594469386425
:100940004831A98809205970AB11384069A819317C
:1009500048608CA83C415C207C00F187981986A8EF
:100960006E767EA999882D557D9EB9A38A228A6EBE
:100970008A568A5E9FB183062646660E2E4E6E9D6F
:10098000B8AD002C547CF2B18CB499B9A32D557D2F
:100990008191AC38AD3AB58391AC2DD928D84DD9D9
:1009A00048D86DD968D88C9DAE29D904AED851D914
:1009B00004AED879D904D881F39DAD008DAE1981EC
:1009C000ADD901D8F2AEDA26D88E912983A7D9AD58
:1009D000ADADADF32AD8D8F1B0AC89913E5E76F3D7
:1009E000AC2E2EF1B18C5A9CAC2C2828289CAC3013
:1009F00018A8988128343C9724A728343C9C24F2DA
:100A0000B089AC912C4C6C8A9B2DD9D8D851D9D8AF
:100A1000D879D9D8D8F19E88A331DAD8D8912DD9F0
:100A200028D84DD948D86DD968D8B18393353D8041
:100A300025DAD8D88569DAD8D8B49381A328343C8C
:100A4000F3AB8BF8A391B609B4D9ABDEFAB0879CAF
:100A5000B9A3DDF1202830389AF12830389DF1A370
:100A6000A3A3A3F2A3B49080F2A3A3A3A3A3A3A3DD
:100A7000A3A3A3B2A3A3A3A3A3A3B087B599F1286B
:100A8000303898F1A3A3A3A397A3A3A3A3F39BA395
:100A900030DCB9A7F1262626FED8FF5265736574AF
:100AA00074696E67206D656D6F72792062616E6B1F
:100AB0002073656C656374696F6E20746F20302ECF
:100AC0002E2E005265766973696F6E204020757313
:100AD00065725B31365D5B365D203D2000436865A5
:100AE000636B696E672068617264776172652072FA
:100AF00065766973696F6E2E2E2E000A0020000045
:100B00002C2020002000002C2020002000002C2081
:100B100020002000002C2020002000002C2020009D
:100B20002000000A2F2F20202020202020202020FD
:100B3000205820416363656C202059204163636520
:100B40006C20205A20416363656C20202058204788
:100B500079726F20202059204779726F2020205A07
:100B6000204779726F0A2F2F4F4646534554532022
:100B700020200000E01511241FBECFEFD1E2DEBF20
:100B8000CDBF00E00CBF12E0A0E0B2E0E6E7FDE47C
:100B900000E00BBF02C007900D92A835B107D9F74E
:100BA00025E0A8E5B2E001C01D92AB3BB207E1F73A
:100BB00015E0CBEBD5E000E006C021970109802FBE
:100BC000FE010E947F25CA3BD10780E00807A9F7F4
:100BD0000E9472160C94B92613CA90913504911193
:100BE000FCCF91E090933504909334042FEF209341
:100BF000330410923204260F209331049093300472
:100C000090913004880F892B8093300480912F04B9
:100C10008130F9F410922F04809130048093BB004E
:100C20008091BC0083FDF8CF85EC8093BC0080915F
:100C300035048130E1F380913204861710F460911D
:100C40003204AFE0B4E0EFEEF3E080E0861303C0DF
:100C5000089585EEEACF9D9191938F5FF7CF209114
:100C6000EE0381E0213208F044C080913504811107
:100C7000FCCF8091ED0392E09093350491E0909346
:100C800034049FEF90933304109232042093310484
:100C9000ADECB3E0EFE0F4E090E0291331C0109246
:100CA000300490913004880F892B80933004809118
:100CB0002F04813049F510922F04809130048093E5
:100CC000BB008091BC0083FDF8CF85EC8093BC0015
:100CD000809135048230E1F3809133048F3FB1F08D
:100CE000809133048032A1F080913304803391F0FD
:100CF00084E01092CC031092EE031092CB0308957F
:100D00003D9131939F5FC9CF85EEE0CF80E0F1CF79
:100D100082E0EFCF83E0EDCF81E080935802089529
:100D200008950895AF92BF92CF92DF92EF92FF9213
:100D30000F931F93CF93DF936C017B018B01040F03
:100D4000151FEB015E01AE18BF08C017D10759F09F
:100D50006991D601ED91FC910190F081E02DC601E1
:100D60001995892B79F7C501DF91CF911F910F91CB
:100D7000FF90EF90DF90CF90BF90AF900895FC016F
:100D8000538D448D252F30E0842F90E0821B930BF0
:100D9000541710F0CF96089501970895FC01918D96
:100DA000828D981761F0A28DAE0FBF2FB11D5D9699
:100DB0008C91928D9F5F9F73928F90E008958FEF3B
:100DC0009FEF0895FC01918D828D981731F0828DEF
:100DD000E80FF11D858D90E008958FEF9FEF089546
:100DE000FC01918D228D892F90E0805C9F4F821BAA
:100DF00091098F739927089586E394E0F1DF21E04C
:100E0000892B09F420E0822F089583ED94E0E8DF38
:100E100021E0892B09F420E0822F0895FC01A48DA4
:100E2000A80FB92FB11DA35ABF4F2C91848D90E00C
:100E300001968F739927848FA689B7892C93A089EF
:100E4000B1898C91837080648C93938D848D981379
:100E500006C00288F389E02D80818F7D808308950C
:100E6000EF92FF920F931F93CF93DF93EC0181E0FA
:100E7000888F9B8D8C8D98131AC0E889F9898081A1
:100E800085FF15C09FB7F894EE89FF896083E889D4
:100E9000F98980818370806480839FBF81E090E0C6
:100EA000DF91CF911F910F91FF90EF900895F62E53
:100EB0000B8D10E00F5F1F4F0F731127E02E8C8DED
:100EC0008E110BC00FB607FCFACFE889F989808133
:100ED00085FFF5CFCE01A2DFF2CFEB8DEC0FFD2F1A
:100EE000F11DE35AFF4FF0829FB7F8940B8FEA8908
:100EF000FB8980818062D0CF0F931F93CF93DF93C4
:100F00008C01D0E0C0E0F801EC0FFD1F6491662376
:100F100039F083ED94E0A4DF892B11F02196F3CF13
:100F2000CE01DF91CF911F910F910895CF93DF9361
:100F3000EC01888D8823B1F0AA89BB89E889F989F9
:100F40008C9185FD03C0808186FD0CC00FB607FC27
:100F5000F7CF8C9185FFF2CF808185FFEDCFCE0159
:100F60005DDFEACFDF91CF91089580E090E0892B9B
:100F700021F04BDF81110E94000080E090E0892B7E
:100F800049F080E090E0892B29F00E940000811157
:100F90000E94000080E090E0892B49F080E090E022
:100FA000892B29F00E94000081110E94000080E03E
:100FB00090E0892B21F020DF81110C94000008952E
:100FC000282F30E0F901E453FD4F9491F901EA57DD
:100FD000FD4F4491205C3D4FF9012491222309F4F7
:100FE00035C0992311F191509231F8F4E92FF0E0D6
:100FF0008827E250F84F8F4F0C947F252F08330835
:10100000100827082B08150836083C084008460831
:101010004A084E085408580815085C086208660813
:10102000809180008F7780938000E22FF0E0EE0FB8
:10103000FF1FEA5DFD4FA591B4918FB7F894EC9135
:10104000611148C040954E234C938FBF0895809105
:1010500080008F7DE8CF80918000877FE4CF84B5CA
:101060008F7784BDE2CF84B58F7DFBCF8091B000B8
:101070008F778093B000D9CF8091B0008F7DF9CF6A
:10108000809190008F7780939000CFCF80919000D7
:101090008F7DF9CF80919000877FF5CF8091A00060
:1010A0008F778093A000C1CF8091A0008F7DF9CF72
:1010B0008091A000877FF5CF809120018F7780936A
:1010C0002001B3CF809120018F7DF9CF8091200145
:1010D000877FF5CF4E2BB8CFCF93DF9390E0FC0105
:1010E000EA57FD4F2491805C9D4FFC018491882339
:1010F000D1F090E0880F991FFC01E45FFD4FA591AE
:10110000B491FC01EA5DFD4FC591D49161110EC00F
:101110009FB7F8948C91E22FE0958E238C932881D1
:10112000E223E8839FBFDF91CF9108958FB7F894B2
:10113000EC91E22BEC938FBFF6CF1F93CF93DF930D
:10114000EC01162F8881803308F04FC061E0812FB9
:10115000C3DF8881282F30E0F901EE0FFF1FE20F77
:10116000F31FE55CFC4F1F736081607C612B608323
:101170009EE8998394E69A832CE0622F0E9473255F
:10118000829FB001112430E020E0AB01420F531FD9
:10119000FA01EE0FFF1FE40FF51FE55CFC4F908195
:1011A00096FD16C02F5F3F4F2C30310571F781300F
:1011B00009F51092800082E08093810010928500F2
:1011C00010928400B19A80916F00826080936F00CA
:1011D000E8818E2F90E0FC01EE0FFF1FE80FF91F52
:1011E000E55CFC4F8081806480838881DF91CF91B2
:1011F0001F910895823061F41092900080939100C5
:10120000109295001092940088BB80937100E0CFFB
:10121000833069F41092A00082E08093A1001092C4
:10122000A5001092A40089BB80937200D1CF8111D8
:10123000CFCF1092200182E08093210110922501EE
:10124000109224018ABB80937300C2CF3FB7F894F9
:101250008091A6029091A702A091A802B091A90244
:1012600026B5A89B05C02F3F19F00196A11DB11D01
:101270003FBFBA2FA92F982F8827BC01CD01620F3D
:10128000711D811D911D42E0660F771F881F991FF8
:101290004A95D1F708958F929F92AF92BF92CF92C5
:1012A000DF92EF92FF924B015C01D0DF6B017C017A
:1012B000CDDF6C197D098E099F09683E7340810559
:1012C0009105B0F321E0821A9108A108B10888EED7
:1012D000C80E83E0D81EE11CF11C81149104A10406
:1012E000B10431F7FF90EF90DF90CF90BF90AF90B7
:1012F0009F908F9008952FB7F8946091A2027091FB
:10130000A3028091A4029091A5022FBF0895089591
:10131000DC01EC91E03390F511968C91119728E85F
:1013200030E0281B310987FD3395220F331F220F30
:10133000331F6217730784F012968C9128E532E010
:10134000281B310987FD3395220F331F220F331FCE
:10135000621773070CF49B0122503109220F331FCF
:101360004FB7F8948E2F90E0FC01EE0FFF1FE80FAF
:10137000F91FE55CFC4F328321834FBF0895AF9284
:10138000BF92CF92DF92EF92FF920F931F93CF9372
:10139000DF936B017A01EC01C456DD4F28813CE0FC
:1013A000389F8001399F100D1124A090A002B12C0C
:1013B00027FF1FC0FB011182108288818F5F888305
:1013C00088819801280F311D87FD3A95F6012A156D
:1013D0003B051CF488818C30BCF18081918104969E
:1013E00080349C4908F471C0F60180819181049693
:1013F0006EC088819801280F311D87FD3A952A1506
:101400003B05DCF68881A801480F511D87FD5A95E0
:10141000FA01EE0FFF1FE40FF51FE55CFC4F808122
:1014200086FFCBCF8881F801E80FF11D87FDFA9583
:10143000CF01EE0FFF1FE80FF91FE55CFC4F808125
:1014400060E08F73BDDDB9CF808191812881A801D3
:10145000420F511D27FD5A959A01FA01EE0FFF1F09
:10146000E20FF31FE55CFC4F21813281820F931F55
:10147000F7019183808388819801280F311D87FDB2
:101480003A95F901EE0FFF1FE20FF31FE55CFC4FE9
:10149000808186FF21C08881080F111D87FD1A9564
:1014A000F801EE0FFF1FE00FF11FE55CFC4F80819C
:1014B00061E08F73DF91CF911F910F91FF90EF90BB
:1014C000DF90CF90BF90AF907BCD80E49CE9F70197
:1014D000918380838FEF8883DF91CF911F910F914C
:1014E000FF90EF90DF90CF90BF90AF90089585ED83
:1014F0008093BC008091BC0084FDFCCF1092350429
:10150000089520917902260F3327331F21323105A8
:10151000ECF420913504FC0190E080E0243069F087
:1015200082E00895A09179022191AC01475A5D4F64
:10153000A40FB52FB11D2C930196861798F38091B7
:101540007902680F6093790280E0089581E0089540
:101550000895E091AF028091AE02E81730F4F0E018
:10156000E151FC4F808190E008958FEF9FEF089547
:101570009091AF028091AE022FEF3FEF981748F4A1
:10158000E92FF0E0E151FC4F208130E09F5F909324
:10159000AF02C90108958091AE029091AF02891BFC
:1015A000990B0895CF92DF92EF92FF920F931F93C2
:1015B000CF93DF937C01CB018A012091CB032223BF
:1015C00089F0EB016B01C40ED51ECC15DD0561F071
:1015D0006991D701ED91FC910190F081E02DC70157
:1015E0001995F3CF642F8DDFC801DF91CF911F9143
:1015F0000F91FF90EF90DF90CF900895CF93DF93FE
:101600001F92CDB7DEB769832091CB032223F9F077
:101610002091EE03203258F021E030E0FC013383CA
:10162000228390E080E00F90DF91CF910895809128
:10163000CC03E82FF0E0E353FC4F998190838F5F58
:101640008093CC038093EE0381E090E0ECCF61E0E7
:10165000CE01019656DFF8CFCF93DF93EA0191E0F8
:101660009093CB038093ED031092CC031092EE0382
:1016700080E795E0C3DF698180E795E0BFDF68819F
:1016800080E795E0BBDFEBDA91E0811190E0892FF4
:10169000DF91CF91089590E080E00895FF920F933D
:1016A0001F93CF93DF93042FF22E132F91E090938B
:1016B000CB038093ED031092CC031092EE0380E7EE
:1016C00095E09CDFCF2DD12F0C0F1D2F111DC017C2
:1016D000D10729F0699180E795E090DFF8CFBFDA74
:1016E00091E0811190E0892FDF91CF911F910F91AF
:1016F000FF900895CF93DF931F92CDB7DEB7498354
:101700009E012F5F3F4F41E0C9DF0F90DF91CF91E6
:101710000895FB0101900020E9F73197AF01461BC6
:10172000570B00CB8F929F92AF92BF92EF92FF9296
:101730000F931F93CF93DF93CDB7DEB7A1970FB66B
:10174000F894DEBF0FBECDBF7C01FA01CB0119A218
:10175000223008F42AE08E010F5D1F4F822E912C5B
:10176000B12CA12CBF01A50194010E944E22F901C8
:10177000CA016A3004F5605DD8016E938D01232B98
:10178000242B252B79F790E080E0109719F0BD010C
:10179000C701BFDFA1960FB6F894DEBF0FBECDBF65
:1017A000DF91CF911F910F91FF90EF90BF90AF907D
:1017B0009F908F900895695CDFCF6115710509F0E6
:1017C000A8CF90E080E00895CF92DF92EF92FF9251
:1017D000CF93DF93AB01BC0177FF1BC06A017C0193
:1017E0006DE286E394E03CDBEC0144275527BA0127
:1017F0004C195D096E097F092AE086E394E092DFC7
:101800008C0F9D1FDF91CF91FF90EF90DF90CF90D5
:1018100008952AE086E394E0DF91CF91FF90EF9066
:10182000DF90CF907FCF2F923F924F925F926F9237
:101830007F928F929F92AF92BF92CF92DF92EF9260
:10184000FF920F931F93CF93DF9300D000D000D06F
:10185000CDB7DEB7582E6D834B833F832E834BDD90
:101860006B017C012B81622E712CC301880F991FA3
:101870009A838983220F2B8399819C83212C412C6D
:101880004801B12CA12CE981FA812E161F060CF01B
:1018900061C0F1E0F093CB035092ED031092CC03C2
:1018A0001092EE036D8180E795E0A8DED8D921E0A3
:1018B0002093CB031092CC031092EE036B81852D05
:1018C0008CD91092AF028093AE023324339490915E
:1018D000AE028091AF02981779F1842D042C000C90
:1018E000990B998788878615970534F50115110599
:1018F000C9F4E885F985EE0FFF1F2E813F81E20FC5
:10190000F31FF987E88731101BC080E795E030DED0
:10191000E885F98520813181822B932B9183808307
:10192000439415C0E8DC6C197D098E099F09681580
:1019300079058A059B05E8F292D93C81230EA3CF55
:1019400080E795E015DEE885F98510828183F1E076
:101950003F26BDCF01151105A9F0CDDC6C197D091D
:101960008E099F0930E020E0601771078207930716
:1019700048F0842D042C000C990B8615970514F45F
:1019800044244A94842D29960FB6F894DEBF0FBEE6
:10199000CDBFDF91CF911F910F91FF90EF90DF901E
:1019A000CF90BF90AF909F908F907F906F905F90FF
:1019B0004F903F902F9008952F923F924F925F92B9
:1019C0006F927F928F929F92AF92BF92CF92DF924F
:1019D000EF92FF920F931F93CF93DF9300D01F924C
:1019E000CDB7DEB7782E662E4C833A83298383DC0D
:1019F0006B017C01512C1B822C81222E312C480141
:101A0000B12CA12C8C81581608F04CC091E0909319
:101A1000CB037092ED031092CC031092EE03662D6F
:101A200080E795E0EBDD1BD921E02093CB031092FA
:101A3000CC031092EE03B101651971096132710591
:101A400014F060E270E0613208F060E2872DC5D8E2
:101A5000482E1092AF028093AE028091AF024816DA
:101A6000D9F00115110571F480E795E081DDE98178
:101A7000FA819B81E90FF11D97FDFA9580839F5FA5
:101A80009B83EBCF38DC6C197D098E099F096815A3
:101A900079058A059B0540F38C81813208F080E24C
:101AA000580EB0CF01151105B9F025DC6C197D0970
:101AB0008E099F0930E020E06017710782079307C5
:101AC00058F02B81822F220F990B2C812817190691
:101AD00019F014F08FEF8B838B810F900F900F9084
:101AE0000F90DF91CF911F910F91FF90EF90DF90BA
:101AF000CF90BF90AF909F908F907F906F905F90AE
:101B00004F903F902F9008952F923F924F925F9267
:101B10006F927F928F929F92AF92BF92CF92DF92FD
:101B2000EF92FF920F931F93CF93DF933C015B01E2
:101B3000242E522E302E6DE680919805DBDD452D4A
:101B40006EE680919805D6DD80E190E00E948725C1
:101B50006C01D0E0C0E0002329F080E190E00E9419
:101B60008725EC01F12CE12CC70140964A2C4E1838
:101B7000A816B90610F080E1482E80E091E08519A2
:101B800091094816190619F014F0452C4194332098
:101B900079F0DE0190E080E093012E0D3F1D841569
:101BA00050F4F901E80FF91FE491ED930196F7CF96
:101BB000E301CE0DDF1D9E01442D6FE68091980557
:101BC0006DDD842C912CC114D104B9F1422D4F71DB
:101BD0006DE6809198058EDD452D6EE68091980525
:101BE00089DD08EE13E09601442D6FE6809198059B
:101BF000E3DEA401B601CE010E94AC26892BE9F0F8
:101C0000C6010E942326332021F0CE010E94232604
:101C1000312C832DDF91CF911F910F91FF90EF9089
:101C2000DF90CF90BF90AF909F908F907F906F90FC
:101C30005F904F903F902F900895E80CF91CEA14A4
:101C4000FB0498F4540C09F42394422D4F716DE673
:101C5000809198054FDD452D6EE6809198054ADD0F
:101C600083CFCE010E942326D4CFC6010E94232613
:101C70003110F7CF33243394CCCF0F931F93CF93EE
:101C8000DF93C8E9D5E008EE13E029E935E042E04A
:101C900062E7888191DE89819A8198278927982730
:101CA000DF91CF911F910F910895CF92DF92EF9224
:101CB000FF920F931F93CF93DF931F92CDB7DEB7A1
:101CC000F82EE62EC42ED22E08EE13E09E012F5FD2
:101CD0003F4F41E071DE81E090E001C0880FCA947F
:101CE000EAF74981DD2079F0482B49836E2D8F2D4D
:101CF00001DD0F90DF91CF911F910F91FF90EF9039
:101D0000DF90CF90089580954823EFCF21E042E007
:101D10006AE680919805C9CF0F931F93CF93DF9305
:101D20001F92CDB7DEB708EE13E09E012F5F3F4F45
:101D300041E065E7809198053FDE882339F089818D
:101D40008E7790E095958795809399058091990578
:101D50000F90DF91CF911F910F9108952F923F9295
:101D60004F925F926F927F928F929F92AF92BF92AB
:101D7000CF92DF92EF92FF920F931F93CF93DF9357
:101D8000CDB7DEB7E3970FB6F894DEBF0FBECDBF79
:101D90008F8F48A759A76AA77BA70CA71DA72EA7B7
:101DA0003FA78B3309F0F8C1B7DF883308F4F9C1D6
:101DB00027E72F8B33E03A8F6EE383ED94E050D822
:101DC000FE013D96FE8BED8B9E012F5F3F4F398FBD
:101DD000288F7F01DF8808EE13E09E012D5E3F4FC4
:101DE00041E06D2D809198051EDDAB88BC88B50162
:101DF0000B2C000C880B990B0E94D623AF89A331C2
:101E000009F4D4C1B1E0AB22BB24F701B182A082B6
:101E100020E030E040E051E40E94B624A88DB98D66
:101E20006D937D938D939C931397FA8DDF0E22E033
:101E3000E20EF11C888D998D0496998F888FAD895B
:101E4000BE898A179B0739F6BF8DBB3309F0BBC12A
:101E50008DEC9CECACE4BDE388AB99ABAAABBBAB1F
:101E6000A6E0B0E0BFA3AEA31CA21BA2312C212C84
:101E7000FE013196FC8FEB8F9E01235F3F4F39A30C
:101E800028A33F893AA38F8D8DA3812C912C5401D7
:101E90001E8E1D8E08EE13E09E012D5E3F4F41E029
:101EA0006DA180919805BFDC6B897C89072E000CA1
:101EB000880B990B0E94D6236B017C019F8D9B336D
:101EC00071F4AD8DBE8D129751F420E030E040E802
:101ED00056E4C701B6010E9470226B017C01260105
:101EE000370177FA709477F87094C501B4010E94B5
:101EF000D4234B015C0120E030E0A901C701B60109
:101F00000E94AB24181614F073016201A701960118
:101F1000C501B4010E9471220E94A8234B015C01FB
:101F20002FE632E143E85AE3C301B2010E94B6242E
:101F30002CA53DA54EA55FA50E94B624EB8DFC8D7A
:101F400020813181428153810E9471226B017C0189
:101F5000AB8DBC8DCD92DD92ED92FC92139728A5AE
:101F600039A54AA55BA5C301B2010E94B624A70109
:101F700096010E947122BF89B33109F42EC120E07D
:101F800030E040E05EE30E94B6246B017C0120E07B
:101F900030E0A9010E94AB2420E030E040E05FE3A4
:101FA00087FD16C1C701B6010E9471220E94A323BA
:101FB0006E7FE8A1F9A180819181682B792B7C8BC0
:101FC0006B8BAE014D5E5F4F6AA18091980544DB3B
:101FD0002D8D3E8D2F5F3F4F3E8F2D8F3DA13E5F5C
:101FE0003DA38AA19A8D890F8AA3A8A1B9A11296AF
:101FF000B9A3A8A3EB8DFC8D3496FC8FEB8F2D8DB0
:102000003E8D2330310509F045CF33E623163104E8
:1020100071F489EE881683E09806A104B10438F0C3
:102020006AE283ED94E00E943007312C212CC50137
:10203000B4010E94D42328A939A94AA95BA90E9406
:10204000B62420E030E040EA50E40E94372387FFC6
:1020500005C0ABA1BCA11196BCA3ABA3B4E68B1683
:102060009104A104B10408F0D7C0EBE02E163104AE
:102070000CF4D2C02BA13CA12A3031050CF4CCC009
:102080006EE283ED94E00E94300720E030E040E40F
:102090005FE368A579A58AA59BA50E94B62468A7D9
:1020A00079A78AA79BA720E030E040E45FE36CA516
:1020B0007DA58EA59FA50E94B6246CA77DA78EA79F
:1020C0009FA7CE010D967C01DF88DE0111963D01B0
:1020D000D3016D917D918D919D913D01BF89B3316A
:1020E00009F4ADC020E030E040E05EE30E94B62499
:1020F0004B015C0120E030E0A9010E94AB2420E00C
:1021000030E040E05FE387FD95C0C501B4010E9467
:1021100071220E94A3236E7FF70180819181682B39
:10212000792B7C8B6B8BAE014D5E5F4F6D2D80915B
:10213000980592DAFA8DDF0E22E0E20EF11C888D0E
:10214000998D8615970521F6AEA1BFA11197BFA362
:10215000AEA3AB2B09F088CED9DD21E043E06AE6DF
:1021600080919805A2DDE3960FB6F894DEBF0FBE0E
:10217000CDBFDF91CF911F910F91FF90EF90DF9036
:10218000CF90BF90AF909F908F907F906F905F9017
:102190004F903F902F90089583E18F8B92E09A8F1C
:1021A0000BCEA6E0AF8BB2E0BA8F06CE20E030E0D7
:1021B00040E850E40E94B624E88DF98D6083718375
:1021C0008283938332CE80E090E0A0E8BFE344CEE8
:1021D000C701B6010E947022E9CE20E030E040E85D
:1021E0005EE30E94B6246B017C0120E030E0A9018F
:1021F0000E94AB2420E030E040E05FE387FD07C0B1
:10220000C701B6010E9471220E94A323D8CEC70144
:10221000B6010E947022F8CF61E070E080E090E0AB
:102220003AD8BFEF2B1A3B0AE4E62E16310409F028
:102230001FCE26CFC501B4010E9470226ACF20E0D4
:1022400030E040E85EE30E94B6244B015C0120E0F0
:1022500030E0A9010E94AB2420E030E040E05FE3E1
:1022600087FD07C0C501B4010E9471220E94A3230B
:1022700058CFC501B4010E947022F8CFBF92CF920F
:10228000DF92EF92FF920F931F93CF93DF931F92F2
:10229000CDB7DEB7F82EE62EC42EB22ED02E08EE25
:1022A00013E09E012F5F3F4F41E086DB882369F1F9
:1022B0008C2D8B19990BAC014F5F5F4F81E090E043
:1022C00002C0880F991FBA94E2F70197042E01C04B
:1022D000880F0A94EAF70D2D01C0000F4A95EAF71E
:1022E000482F4095998149238023482B49836E2D9F
:1022F0008F2D00DA0F90DF91CF911F910F91FF90FA
:10230000EF90DF90CF90BF90089580E0F3CF1F92C1
:102310000F920FB60F9211240BB60F922F933F938B
:102320004F935F936F937F938F939F93AF93BF93DD
:10233000EF93FF9386E394E00E940E07FF91EF91E5
:10234000BF91AF919F918F917F916F915F914F91CD
:102350003F912F910F900BBE0F900FBE0F901F90CB
:1023600018951F920F920FB60F9211240BB60F9271
:102370002F938F939F93EF93FF93E0914604F091F7
:1023800047048081E0914C04F0914D0482FD1DC012
:10239000908180914F048F5F8F732091500482173A
:1023A00041F0E0914F04F0E0EA5CFB4F958F8093A1
:1023B0004F04FF91EF919F918F912F910F900BBE42
:1023C0000F900FBE0F901F9018958081F2CF1F9233
:1023D0000F920FB60F9211240BB60F922F933F93CB
:1023E0004F935F936F937F938F939F93AF93BF931D
:1023F000EF93FF9383ED94E00E940E07FF91EF911E
:10240000BF91AF919F918F917F916F915F914F910C
:102410003F912F910F900BBE0F900FBE0F901F900A
:1024200018951F920F920FB60F9211240BB60F92B0
:102430002F938F939F93EF93FF93E091E304F09199
:10244000E4048081E091E904F091EA0482FD1DC07A
:1024500090818091EC048F5F8F732091ED0482173F
:1024600041F0E091EC04F0E0ED52FB4F958F80934A
:10247000EC04FF91EF919F918F912F910F900BBEE4
:102480000F900FBE0F901F9018958081F2CF1F9272
:102490000F920FB60F9211242F933F938F939F9318
:1024A000AF93BF938091A2029091A302A091A40246
:1024B000B091A5023091A10223E0230F2D3758F5EA
:1024C0000196A11DB11D2093A1028093A2029093B9
:1024D000A302A093A402B093A5028091A6029091BA
:1024E000A702A091A802B091A9020196A11DB11D59
:1024F0008093A6029093A702A093A802B093A9028A
:10250000BF91AF919F918F913F912F910F900FBEEF
:102510000F901F90189526E8230F0296A11DB11D5C
:10252000D2CF1F920F920FB60F9211240BB60F92BB
:102530002F933F934F935F936F937F938F939F93CB
:10254000AF93BF93EF93FF93E0910E02F0910F02D0
:102550001995FF91EF91BF91AF919F918F917F91CD
:102560006F915F914F913F912F910F900BBE0F9004
:102570000FBE0F901F9018951F920F920FB60F92DB
:1025800011240BB60F922F933F934F935F936F934A
:102590007F938F939F93AF93BF93EF93FF93E091BC
:1025A0000C02F0910D021995FF91EF91BF91AF913F
:1025B0009F918F917F916F915F914F913F912F915B
:1025C0000F900BBE0F900FBE0F901F9018951F928B
:1025D0000F920FB60F9211240BB60F922F933F93C9
:1025E0004F935F936F937F938F939F93AF93BF931B
:1025F000EF93FF93E0910202F09103021995FF918E
:10260000EF91BF91AF919F918F917F916F915F916A
:102610004F913F912F910F900BBE0F900FBE0F90D7
:102620001F9018951F920F920FB60F9211240BB6A0
:102630000F922F933F934F935F936F937F938F935B
:102640009F93AF93BF93EF93FF93E0910002F091BC
:1026500001021995FF91EF91BF91AF919F918F91D9
:102660007F916F915F914F913F912F910F900BBE92
:102670000F900FBE0F901F9018951F920F920FB6DC
:102680000F9211240BB60F922F933F934F935F93AA
:102690006F937F938F939F93AF93BF93EF93FF932A
:1026A000E0910A02F0910B021995FF91EF91BF9111
:1026B000AF919F918F917F916F915F914F913F91DA
:1026C0002F910F900BBE0F900FBE0F901F9018957B
:1026D0001F920F920FB60F9211240BB60F922F93E9
:1026E0003F934F935F936F937F938F939F93AF939A
:1026F000BF93EF93FF93E0910802F09109021995BF
:10270000FF91EF91BF91AF919F918F917F916F91C9
:102710005F914F913F912F910F900BBE0F900FBE85
:102720000F901F9018951F920F920FB60F921124C1
:102730000BB60F922F933F934F935F936F937F93BB
:102740008F939F93AF93BF93EF93FF93E091060214
:10275000F09107021995FF91EF91BF91AF919F9171
:102760008F917F916F915F914F913F912F910F903A
:102770000BBE0F900FBE0F901F9018951F920F92D7
:102780000FB60F9211240BB60F922F933F934F93D6
:102790005F936F937F938F939F93AF93BF93EF93C9
:1027A000FF93E0910402F09105021995FF91EF91DA
:1027B000BF91AF919F918F917F916F915F914F9159
:1027C0003F912F910F900BBE0F900FBE0F901F9057
:1027D00018951F920F920FB60F9211240BB60F92FD
:1027E0002F933F934F935F936F937F938F939F9319
:1027F000AF93BF93EF93FF9348E251E064E271E03F
:1028000090E080E00E94BF09FF91EF91BF91AF91EE
:102810009F918F917F916F915F914F913F912F91F8
:102820000F900BBE0F900FBE0F901F9018951F9228
:102830000F920FB60F9211240BB60F922F933F9366
:102840004F935F936F937F938F939F93AF93BF93B8
:10285000EF93FF9348EA50E064EA70E083E090E091
:102860000E94BF09FF91EF91BF91AF919F918F910E
:102870007F916F915F914F913F912F910F900BBE80
:102880000F900FBE0F901F9018951F920F920FB6CA
:102890000F9211240BB60F922F933F934F935F9398
:1028A0006F937F938F939F93AF93BF93EF93FF9318
:1028B00048E950E064E970E082E090E00E94BF09DE
:1028C000FF91EF91BF91AF919F918F917F916F9108
:1028D0005F914F913F912F910F900BBE0F900FBEC4
:1028E0000F901F9018951F920F920FB60F92112400
:1028F0000BB60F922F933F934F935F936F937F93FA
:102900008F939F93AF93BF93EF93FF9348E850E06B
:1029100064E870E081E090E00E94BF09FF91EF91D0
:10292000BF91AF919F918F917F916F915F914F91E7
:102930003F912F910F900BBE0F900FBE0F901F90E5
:1029400018951F920F920FB60F9211240BB60F928B
:102950002F933F934F935F936F937F938F939F93A7
:10296000AF93BF93EF93FF938091B900887F803638
:1029700009F44DC008F040C0883209F4A9C028F518
:10298000803109F49DC0C8F4882309F4FBC0883065
:1029900009F496C0FF91EF91BF91AF919F918F91F4
:1029A0007F916F915F914F913F912F910F900BBE4F
:1029B0000F900FBE0F901F901895883109F488C0B2
:1029C000803241F78093330414C0803409F49DC0F1
:1029D00040F48033B9F38833E9F68093330485EC0F
:1029E000B0C0803509F485C0883509F496C08834B4
:1029F00089F60E94770ACECF883909F48CC038F561
:102A0000883729F050F4883611F0803719F683E0C2
:102A10008093350410929B0257C0883809F47BC01C
:102A2000803919F0803809F0B5CF80919B0280324F
:102A300008F071C0E0919B0281E08E0F80939B02B1
:102A40008091BB00F0E0E558FD4F80833DC0803BA6
:102A500039F0E0F4803A09F479C0883A09F09ACF65
:102A600084E08093350410927A0210927902E0910A
:102A7000AC02F091AD0219958091790281110FC0DD
:102A800081E0809379021092590209C0803C09F4D8
:102A9000A6CF883C09F4A3CF883B09F07BCFE09117
:102AA0007A0281E08E0F80937A02F0E0E75AFD4FC0
:102AB00080818093BB0090917A028091790229C035
:102AC000809130048093BB0085EC8093BC0062CF82
:102AD0009091320480913104981758F5E0913204B6
:102AE00081E08E0F80933204F0E0E15FFB4F808144
:102AF000E9CFE091320481E08E0F8093320480911F
:102B0000BB00F0E0E15FFB4F808390913204809145
:102B100031049817C8F285E8D8CFE091320481E0FB
:102B20008E0F809332048091BB00F0E0E15FFB4F99
:102B300080838091340481115CCF81E080932F04E5
:102B400084EA8093BC001092350424CF85EC8093F6
:102B5000BC001092350480919B02803230F4E091E9
:102B60009B02F0E0E558FD4F108260919B0270E0FF
:102B7000E091AA02F091AB028BE792E019951092D6
:102B80009B0208CF1092330434CFFC019091A00235
:102B9000903398F481E0890F8093A0029083892F6D
:102BA00090E0FC01EE0FFF1FE80FF91FE55CFC4F02
:102BB00088EB9BE09283818308958FEF8083089553
:102BC000E6E3F4E01382128288EE93E0A0E0B0E046
:102BD00084839583A683B7832AE132E031832083FF
:102BE00045E351E05587448744E351E057874687E2
:102BF00040E351E0518B408B41E351E0538B428BDA
:102C000042E351E0558B448B46E351E0578B468BB2
:102C1000118E128E138E148EE3EDF4E01382128265
:102C200084839583A683B7833183208325EC30E0AA
:102C30003587248724EC30E03787268720EC30E086
:102C4000318B208B21EC30E0338B228B22EC30E077
:102C5000358B248B26EC30E0378B268B118E128E31
:102C6000138E148EE0E7F5E013821282848395833D
:102C7000A683B7838CE292E09183808384EB95E016
:102C800084DF81EB95E081DF8EEA95E07EDF8BEAE1
:102C900095E07BDF88E680939805E8E8F5E080E042
:102CA00090E0A0E8BFE380839183A283B383148282
:102CB0001582168217821086118612861386148654
:102CC000158616861786ECE7F5E0108211821282CF
:102CD000138214821582168217821086118612863C
:102CE00013860895CF93DF93CDB7DEB7C654D109CD
:102CF0000FB6F894DEBF0FBECDBF789484B5826066
:102D000084BD84B5816084BD85B5826085BD85B58F
:102D1000816085BD80916E00816080936E0010920D
:102D20008100809181008260809381008091810088
:102D30008160809381008091800081608093800019
:102D40008091B10084608093B1008091B000816077
:102D50008093B00080919100826080939100809177
:102D600091008160809391008091900081608093B8
:102D700090008091A10082608093A1008091A100C9
:102D800081608093A1008091A00081608093A00069
:102D900080912101826080932101809121018160D5
:102DA0008093210180912001816080932001809196
:102DB0007A00846080937A0080917A0082608093A8
:102DC0007A0080917A00816080937A0080917A0005
:102DD000806880937A001092C100E0914604F091DF
:102DE000470482E08083E0914204F0914304108222
:102DF000E0914404F091450483E3808310924E04F3
:102E0000E0914A04F0914B0486E08083E09148040D
:102E1000F0914904808180618083E0914804F091C1
:102E20004904808188608083E0914804F0914904DE
:102E3000808180688083E0914804F091490480811A
:102E40008F7D80831092AF021092AE021092CC035D
:102E50001092EE031092350481E0809334041092B6
:102E60002F0461E084E10E94E00761E085E10E94B7
:102E7000E0078091B9008E7F8093B9008091B900FE
:102E80008D7F8093B90088E48093B80085E48093B7
:102E9000BC0080E996E09093AD028093AC0281E99A
:102EA00096E09093AB028093AA028CE08093B800E6
:102EB00001E023E042E06BE680919805DFD900E075
:102EC00022E044E06BE180919805D8D922E044E00B
:102ED0006CE180919805D2D920E046E06BE68091C4
:102EE00098050E94550E60E082E00E946C0886E31F
:102EF00094E00E94F006892B31F086E394E00E9472
:102F0000CE06892BA1F721E047E06BE6809198057A
:102F10000E94550E6EE170E080E090E00E944B0947
:102F200020E046E06BE6809198050E94550E40E750
:102F30006DE6809198050E947A0B46E06EE68091DE
:102F400098050E947A0B8DED9AE00E947C076AE357
:102F500072E083ED94E00E94890B83EC9AE00E947A
:102F60007C0708EE13E029E935E041E06FE6809147
:102F700098050E94DC0C4091990550E070E060E0FB
:102F800020E183ED94E00E94920B6AE372E083ED0E
:102F900094E00E94890B8BE99AE00E947C076AE327
:102FA00072E083ED94E00E94890B40E06DE6809131
:102FB00098050E947A0B4FE765E2809198050E9480
:102FC0007A0B20E045E06AE6809198050E94550E54
:102FD00048E665E2809198050E947A0B21E041E085
:102FE0006AE6809198050E94550E64E170E080E0E9
:102FF00090E00E944B0903E023E042E06BE6809101
:1030000098053CD942E168E3809198050E947A0BCB
:1030100044E069E1809198050E947A0B01E023E089
:1030200045E06AE18091980529D903E023E042E078
:103030006AE18091980522D922E044E06BE1809119
:1030400098051CD901E020E040E069E877E082E1E2
:1030500093E00E94840D11E0882309F45FC0198277
:1030600081E08A8300E026E142E062E070E0CE0188
:1030700001960E94840D43E060E7809198050E94CC
:103080007A0B40E061E7809198050E947A0B20E07E
:1030900040E060E0809198050E94550E42E06FE1AB
:1030A000809198050E947A0B4CE961E28091980525
:1030B0000E947A0B40E560E2809198050E947A0BAD
:1030C00040E062E2809198050E947A0B21E046E0A0
:1030D0006AE6809198050E94550E21E043E06AE679
:1030E000809198050E94550E20E047E06AE68091A5
:1030F00098050E94550E8AE290E09093AA0580936D
:10310000A9050E94860E08EE13E029E935E041E0AA
:103110006AE3809198050E94DC0C10E01093B002E5
:103120008091980525EA3BEF3EA72DA7AE01435DB0
:103130005F4F63E10E942C0B809198052DE630E0F3
:103140003CA72BA7AE01455D5F4F65E10E942C0BAC
:10315000809198052AE230E03AA729A7AE01475DA1
:103160005F4F67E10E942C0B0E948C0E6AE088334F
:1031700008F06DE78091980522E835E038A72FA385
:10318000AE01495D5F4F0E942C0B111109C100E097
:1031900010E028EA31E44EEA57E461EA7EE38BE38B
:1031A0000E94AE0E0FEF1FEF2CEB32E44EEA57E415
:1031B00061EA7EE383E40E94AE0E0E948C0E26E05C
:1031C000F22E883310F097E7F92E83E29BE00E94FD
:1031D0007C0726E008EE13E0F21266C49E012F5D24
:1031E0003F4F43E066E0809198050E94130C82E215
:1031F0009BE00E947C0780E29BE00E947C0769A123
:103200007AA1072E000C880B990B0E94D6238E0101
:103210000F5F1F4F20E045E0D4D6BC0183ED94E062
:103220000E94DD0B8CE19BE00E947C078BE19BE020
:103230000E947C0789E19BE00E947C076BA17CA136
:10324000072E000C880B990B0E94D62320E045E046
:10325000B8D6BC0183ED94E00E94DD0B85E19BE0D4
:103260000E947C0784E19BE00E947C0782E19BE056
:103270000E947C076DA17EA1072E000C880B990B84
:103280000E94D62320E045E09CD6BC0183ED94E06B
:103290000E94DD0B8EE09BE00E947C0708EE13E0AD
:1032A0009E012F5D3F4F43E063E1809198050E94AE
:1032B000130C8DE09BE00E947C078BE09BE00E945A
:1032C0007C0769A17AA1072E000C880B990B0E943C
:1032D000D6238E010F5F1F4F20E045E072D6BC0160
:1032E00083ED94E00E94DD0B87E09BE00E947C0769
:1032F00086E09BE00E947C0784E09BE00E947C07C4
:103300006BA17CA1072E000C880B990B0E94D62381
:1033100020E045E056D6BC0183ED94E00E94DD0B31
:1033200080E09BE00E947C078FEF9AE00E947C0780
:103330008DEF9AE00E947C076DA17EA1072E000C04
:10334000880B990B0E94D62320E045E03AD6BC01B9
:1033500083ED94E00E94DD0B8BEF9AE00E947C07E6
:1033600021E047E06AE6809198050E94550E8CE8BE
:1033700096E0909301028093000280916A0083603E
:1033800080936A00EC9A08EE13E029E935E041E009
:103390006AE3809198050E94DC0C81E08093F20240
:1033A00061E08DE00E946C0869E070E084EB95E0DC
:1033B0000E949D086BE070E08EEA95E00E949D08F7
:1033C0006091390370913A0384EB95E00E9488097B
:1033D00060913703709138038EEA95E00E94880966
:1033E0008091350390913603892B61F468EB7BE083
:1033F00080E090E00E944B0981E090E090933603DA
:1034000080933503ACE4B4E0B0933403A09333036A
:103410008091F202882341F18090A9059090AA053D
:103420000E9426092B013C016401DD240E943D0E0F
:103430008C01C816D9060CF075C3893C91050CF4B3
:103440004DC30E94860E0E943D0E8C01892B09F00F
:103450006DC30E9426096419750986099709693F99
:103460007A428105910578F38090FF0290900003E5
:10347000A0900103B0900203809223039092240352
:10348000A0922503B0922603809103039091040338
:10349000A0910503B09106038FAB98AFA9AFBAAF67
:1034A0008093270390932803A0932903B0932A03C2
:1034B0008091070390910803A0910903B0910A033A
:1034C0008BAF9CAFADAFBEAF80932B0390932C031B
:1034D000A0932D03B0932E0320911703309118036E
:1034E0004091190350911A03C501B401FAD7F62E81
:1034F000E72ED82EC92E20911B0330911C0340913A
:103500001D0350911E036FA978AD89AD9AADE9D71F
:103510006FA778AB89AB9AAB20911F033091200342
:1035200040912103509122036BAD7CAD8DAD9EADDA
:10353000D8D76BAB7CAB8DAB9EAB20E030E0A90164
:1035400060E070E088EC93E40E943B231B018C0157
:103550009B01AC016F2D7E2D8D2D9C2D0E94AB24E7
:103560001816CCF020E030E0A90160E070E088ECB3
:1035700093EC0E943B231B018C019B01AC016F2D3E
:103580007E2D8D2D9C2D0E94372387FD04C02F2C6E
:103590003E2C0D2D1C2DC101D80180931703909353
:1035A0001803A0931903B0931A0320E030E04AEF08
:1035B00053E46FA578A989A99AA90E94AB2418168B
:1035C0000CF481C420E030E04AEF53EC6FA578A9F9
:1035D00089A99AA90E94372387FD7EC48FA598A93F
:1035E000A9A9BAA980931B0390931C03A0931D0360
:1035F000B0931E0320E030E04AEF53E46BA97CA9AE
:103600008DA99EA90E94AB2418160CF46AC420E070
:1036100030E04AEF53EC6BA97CA98DA99EA90E94CA
:10362000372387FD67C48BA99CA9ADA9BEA9809348
:103630001F0390932003A0932103B09322032091B2
:10364000F3023091F4024091F5025091F602C50167
:10365000B40146D76B017C01C0920B03D0920C03DE
:10366000E0920D03F0920E032091F7023091F802E0
:103670004091F9025091FA026FA978AD89AD9AADE7
:103680002FD723966CAF7DAF8EAF9FAF23976093FC
:103690000F037093100380931103909312032091F2
:1036A000FB023091FC024091FD025091FE026BAD95
:1036B0007CAD8DAD9EAD14D727966CAF7DAF8EAF30
:1036C0009FAF2797609313037093140380931503A0
:1036D000909316038092F3029092F402A092F50266
:1036E000B092F6028FA998ADA9ADBAAD8093F7025A
:1036F0009093F802A093F902B093FA028BAD9CADBF
:10370000ADADBEAD8093FB029093FC02A093FD0291
:10371000B093FE0220E030E0A901C501B4010E948F
:10372000B6244B015C0120E030E0A901B101C801E1
:103730000E94B6249B01AC01C501B401D2D64B0155
:103740005C0120E030E0A901C701B6010E94B62467
:103750009B01AC01C501B401C4D62B013C0120E0A2
:1037600030E048EC53E40E94AB2418160CF4C7C3B5
:1037700020E030E048EC53ECC301B20178D787FD7C
:10378000C5C320E030E040EA50E46FA978AD89ADD0
:103790009AAD0E94B6246B017C012DEC3CEC4CE40C
:1037A0005FE36FA578A989A99AA90E94B6249B0115
:1037B000AC01C701B60195D66B017C0120E030E079
:1037C00044E353E423966CAD7DAD8EAD9FAD23975E
:1037D0000E94B6249B01AC01C701B60182D66B01E1
:1037E0007C0120E030E048EC53E40E94AB24181642
:1037F0000CF493C320E030E048EC53ECC701B60171
:1038000036D787FD91C320E030E040EA50E46BAD4D
:103810007CAD8DAD9EAD0E94B6244B015C012DECBC
:103820003CEC4CE45FE36BA97CA98DA99EA90E94A6
:10383000B6249B01AC01C501B40153D64B015C0118
:1038400020E030E044E353E427966CAD7DAD8EADCF
:103850009FAD27970E94B6249B01AC01C501B4011E
:1038600040D64B015C0120E030E048EC53E40E947C
:10387000AB2418160CF45FC320E030E048EC53ECA6
:10388000C501B401F4D687FD5DC320E030E849E806
:1038900054E4C501B40125D66FA778AB89AB9AABC8
:1038A000A501940160E070E889E894E419D64B0121
:1038B0005C01AC019B01C701B60113D6A3019201C3
:1038C00010D641D76BAB7CAB8DAB9EABA7019601FD
:1038D000C501B40105D6A301920102D634D76FAB5E
:1038E00078AF89AF9AAFA70196016FA578A989A98A
:1038F0009AA9F6D5A3019201F4D525D74B01A701CA
:1039000096016FA578A989A99AA9EBD5A30192017F
:10391000E7D519D7072E000C880B990B47D76B01F9
:103920007C0120E030E04AEF54E40E94AB241816FA
:103930000CF40FC320E030E04AE754E4C701B601BD
:1039400096D687FD0DC3C701B601FDD670933A0325
:1039500060933903ABA9BCA9BD01BB0F880B990BC0
:1039600025D76B017C0120E030E04AEF54E4F3D727
:1039700018160CF4FCC220E030E04AE754E4C7011A
:10398000B60175D687FDFAC2C701B601DCD67093C1
:103990003203609331032FA938ADB901330F880B7F
:1039A000990B04D76B017C0120E030E04AEF54E42E
:1039B000D2D718160CF4E9C220E030E04AE754E40C
:1039C000C701B60154D687FDE7C2C701B601BBD611
:1039D0007093380360933703B401990C880B990BEB
:1039E000E5D66B017C0120E030E04AEF54E4B3D728
:1039F00018160CF4D8C220E030E04AE754E4C701BE
:103A0000B60135D687FDD6C2C701B6019CD67093E4
:103A1000300360932F036DE372E086E394E00E942D
:103A2000DD0B6091390370913A03072E000C880B6F
:103A3000990B0E94E40B63E472E086E394E00E9439
:103A4000DD0B6091310370913203072E000C880B5F
:103A5000990B0E94E40B6AE472E086E394E00E9412
:103A6000DD0B6091370370913803072E000C880B33
:103A7000990B0E94E40B61E572E086E394E00E94FA
:103A8000DD0B60912F0370913003072E000C880B23
:103A9000990B0E94E40B6AE372E086E394E00E94D3
:103AA000890B0E94B5078CCC9E012F5D3F4F41E0F2
:103AB0006F2D809198050E94130C63E06F0D9E019D
:103AC0002D5D3F4F41E0809198050E94130C66E008
:103AD0006F0D9E012B5D3F4F41E085CB0E943D0E57
:103AE0008C01C816D906F4F47C01EC18FD085701C6
:103AF00021E2E216F1041CF080E2A82EB12CAA20EB
:103B000079F008EE13E09E012F5F3F4F4A2D64E7E6
:103B1000809198050E94DC0CEA18FB0841F7DECF83
:103B20001982FACF0115110509F49ECC0E942609CD
:103B30006419750986099709693F7A4281059105DB
:103B400008F092CCC016D10609F070CC882009F498
:103B5000B2C108EE13E022EB32E0482D64E7809119
:103B600098050E94DC0C0091B6021091B702102754
:103B700001271027C090BA02D090BB02DC24CD24CC
:103B8000DC24E090BE02F090BF02FE24EF24FE246D
:103B90006091B2027091B302762767277627072ECD
:103BA000000C880B990B02D620E030E040E858E387
:103BB000DDD62B013C014092880550928905609228
:103BC0008A0570928B05B801110F880B990BEED501
:103BD00020E030E040E858E3C9D64B015C01809218
:103BE0008C0590928D05A0928E05B0928F05B6013E
:103BF000DD0C880B990BDAD520E030E040E858E383
:103C0000B5D66FA778AB89AB9AAB609390057093EC
:103C100091058093920590939305B701FF0C880B53
:103C2000990BC4D520E030E040E858E39FD66BAB59
:103C30007CAB8DAB9EAB60939405709395058093A0
:103C40009605909397059B01AC01C501B4018ED6F2
:103C50006B017C012FA538A949A95AA9C301B2015A
:103C600085D69B01AC01C701B6013AD49B01AC01DA
:103C700038D423966CAF7DAF8EAF9FAF2397609300
:103C80007C0570937D0580937E0590937F05A5014B
:103C90009401C301B2016AD66B017C012BA93CA936
:103CA0004DA95EA96FA578A989A99AA95FD69B019C
:103CB000AC01C701B60115D49B01AC0112D46BAFA6
:103CC0007CAF8DAF9EAF609380057093810580932C
:103CD000820590938305A3019201C301B20146D6E8
:103CE0006B017C01A5019401C501B4013FD69B0184
:103CF000AC01C701B601F4D36B017C012FA538A933
:103D000049A95AA9CA01B90131D69B01AC01C70121
:103D1000B601E6D36B017C012BA93CA94DA95EA994
:103D2000CA01B90123D69B01AC01C701B601D9D3A1
:103D30006FAB78AF89AF9AAF6093840570938505B8
:103D40008093860590938705A3019201C301B20178
:103D5000C8D36B017C01A5019401C501B401C1D395
:103D600027966CAF7DAF8EAF9FAF2797A3019201CF
:103D7000C701B601FBD52B013C01A5019401279693
:103D80006CAD7DAD8EAD9FAD2797F0D59B01AC019D
:103D9000C301B201A6D320E030E040E85FE3A0D346
:103DA0002B013C012FA538A949A95AA927966CAD2A
:103DB0007DAD8EAD9FAD2797D9D54B015C012BA969
:103DC0003CA94DA95EA9C701B601D0D59B01AC01A4
:103DD000C501B40185D3A3019201F6D36093FF021C
:103DE0007093000380930103909302032BAD3CADCD
:103DF0004DAD5EADCA01B901B9D56B017C012FA9EA
:103E000038AD49AD5AADCA01B901B0D59B01AC017D
:103E1000C701B60166D311D69B01AC0123966CADE8
:103E20007DAD8EAD9FAD2397CFD36B017C01C0924A
:103E30000303D0920403E0920503F09206032FA936
:103E400038AD49AD5AAD6BAD7CAD8DAD9EADBCD33B
:103E500060930703709308038093090390930A0308
:103E600020E030E0A9016FA978AD89AD9AADFFD30C
:103E700087FF17C020E030E0A901C701B6016BD56C
:103E8000A70196011816D4F46BED7FE089E490E465
:103E900027D36093030370930403809305039093E7
:103EA00006036091B10281E068276093B1028DE062
:103EB0000E94E007D9CA1092B20255CE6BED7FE0A6
:103EC00089E490ECE5CF80E090E0AAEFB3E48FA71F
:103ED00098ABA9ABBAAB82CB80E090E0AAEFB3EC91
:103EE000F6CF80E090E0AAEFB3E48BAB9CABADAB38
:103EF000BEAB99CB80E090E0AAEFB3ECF6CF412CBB
:103F0000512C08EC602E03E4702E3BCC412C512C3C
:103F100018EC612E13EC712E34CCC12CD12CB8ECE2
:103F2000EB2EB3E4FB2E6FCCC12CD12CA8ECEA2EE7
:103F3000A3ECFA2E68CC812C912CF8ECAF2EF3E494
:103F4000BF2EA3CC812C912CE8ECAE2EE3ECBE2E40
:103F50009CCCC12CD12C7AEFE72E74E4F72EF3CC55
:103F6000C12CD12C6AE7E62E64E4F62EECCCC12CF1
:103F7000D12C5AEFE52E54E4F52E06CDC12CD12CD0
:103F80004AE7E42E44E4F42EFFCCC12CD12C3AEFC6
:103F9000E32E34E4F32E19CDC12CD12C2AE7E22EE6
:103FA00024E4F22E12CDC12CD12C9AEFE92E94E408
:103FB000F92E2ACDC12CD12C8AE7E82E84E4F82EE4
:103FC00023CDEF920F931F93CF93DF93E80134E05B
:103FD00047FD34E1042E000C550B57FF03C05195EB
:103FE00041955109E32E022F242FAE0107D0CE01B7
:103FF000DF91CF911F910F91EF9008958F929F9233
:10400000AF92BF92CF92DF92EF92FF920F931F93E6
:10401000CF93DF9300D000D000D0CDB7DEB76A01D8
:10402000F22EB02E102FFBE3AF2EA01608F41BE3E8
:104030001F5F012F27E0AE014F5F5F4F57D1BC01DB
:104040008981982F9970913009F44EC09BE2E1FC70
:1040500004C09E2D9170E0FC49C05E2D5071E82F88
:10406000E87083FF55C084E0911101C083E0EF2D1B
:10407000E81B8F1508F0E0E0D6018E2F20E25523D3
:10408000C9F1992329F0D6019C93C60101966C01D0
:1040900096012D5F3F4FE2FE33C08EE4D6018C9334
:1040A00091E411969C93119712968C93D9018E2FBF
:1040B00090E281112AC0E20FF32FF11D10828EEFE2
:1040C0009FEF29960FB6F894DEBF0FBECDBFDF91EC
:1040D000CF911F910F91FF90EF90DF90CF90BF9005
:1040E000AF909F908F9008959DE2B7CF90E2B5CFAB
:1040F0002D9381508111FCCFCE0ED11CE0E0C1CFB9
:104100008EE6D6018C9391E6CCCF9D938150D1CF92
:10411000482F447082FF3DC084E0911101C083E0CC
:104120008F1510F4EF2DE81BD6018E2F20E25523BA
:1041300009F1992329F0D6019C93C60101966C01DF
:1041400096012D5F3F4FE2FE1BC089E4D6018C93A0
:104150008EE411968C93119786E412968C93D90174
:104160008E2F90E2882309F4A6CF9D938150FACF39
:104170002D9381508111FCCFCE0ED11CE0E0D9CF20
:1041800089E6D6018C938EE611968C93119786E67C
:10419000E4CF9B0177FF02C030E020E0A1E0B0E077
:1041A000911102C0B0E0A0E0F9013196AE0FBF1F3F
:1041B0008B2C912CBB2009F461C05401EFEFAE1A97
:1041C000BE0AAA0DBB1DFA161B0619F014F04F2DDE
:1041D0004A1B511188C0E3FC59C07601A42FB0E2FC
:1041E000A1114FC0C40ED11C992309F45BC040E05B
:1041F000D6011196F60190836D01552309F448C04C
:10420000012F060F9A81582F507184FF03C09133FC
:1042100009F4015010160CF047C0093008F008E00E
:10422000EEE2FE2E5B01A01AB10885019194819403
:1042300091082F3F320729F4D601FC92F6013196FE
:104240006F016217730794F1021713077CF5DB0106
:10425000A21BB30BAA24A394B12CAC0EBD1EAA0DB5
:10426000BB1D11968C9121503109D601119628154C
:104270003905F4F0F60180836D01DBCFB12CA12C60
:10428000A0CFF701B1937F01A150AACF9111B0CF78
:10429000D601942F50E302C05D9391509111FCCF51
:1042A000C40ED11C40E0ACCF01E0BACF80E3DBCF3D
:1042B0006217730731F4963388F4953311F455235C
:1042C00069F0F6018083FD01842F90E2811108C01E
:1042D000A40FB11D1C9290E080E0F3CE81E3F1CFFA
:1042E00091938150F3CF911183CF8ACF283008F07A
:1042F00027E03327DA01990F311D87FD9160009681
:104300006105710539F432602E5F3D9330E32A95E3
:10431000E1F708959F3F30F080387105610509F09D
:104320003C5F3C5F3D93913008F08068911DDF93C6
:10433000CF931F930F93FF92EF92192F987F96952B
:10434000E92F96959695E90FFF27E459FE4F992797
:104350003327EE24FF24A701E70105900894079472
:1043600028F4360FE71EF81E491F511D660F771FF0
:10437000881F991F0694A1F70590079428F4E70E6B
:10438000F81E491F561FC11D770F881F991F661FF2
:104390000694A1F70590079428F4F80E491F561FBC
:1043A000C71FD11D880F991F661F771F0694A1F79D
:1043B0000590079420F4490F561FC71FD81F990F67
:1043C000661F771F881F0694A9F7849110951770B0
:1043D00041F0D695C79557954795F794E7941A9568
:1043E000C1F7E2E1F1E0689415901591359165917E
:1043F000959105907FE27395E118F10A430B560BF6
:10440000C90BD009C0F7E10CF11E431F561FC91F8D
:10441000D01D7EF4703311F48A95E6CFE8940150F4
:1044200030F0080F0AF40027021708F4202F239514
:10443000022F7A3328F079E37D932A95E9F710C0AB
:104440007D932A9589F606949795679537951795E4
:104450001794E118F10A430B560BC90BD00998F0D9
:1044600023957E9173957A3308F070E37C93201343
:10447000B8F77E9170617D9330F0839571E37D9301
:1044800070E32A95E1F71124EF90FF900F911F91AF
:10449000CF91DF91992787FD90950895A1E21A2E7B
:1044A000AA1BBB1BFD010DC0AA1FBB1FEE1FFF1FD8
:1044B000A217B307E407F50720F0A21BB30BE40B28
:1044C000F50B661F771F881F991F1A9469F760956F
:1044D0007095809590959B01AC01BD01CF01089529
:1044E0005058BB27AA270ED0FCC1EDD130F0F2D135
:1044F00020F031F49F3F11F41EF4BDC10EF4E0959D
:10450000E7FBB3C1E92FFED180F3BA176207730747
:104510008407950718F071F49EF516C20EF4E09525
:104520000B2EBA2FA02D0B01B90190010C01CA016D
:10453000A0011124FF27591B99F0593F50F4503E18
:1045400068F11A16F040A22F232F342F4427585F0A
:10455000F3CF469537952795A795F0405395C9F722
:104560007EF41F16BA0B620B730B840BBAF09150DA
:10457000A1F0FF0FBB1F661F771F881FC2F70EC079
:10458000BA0F621F731F841F48F48795779567954C
:10459000B795F7959E3F08F0B3CF9395880F08F035
:1045A0009927EE0F9795879508958DD158F080E85B
:1045B00091E009F49EEF8ED128F040E851E059F4E3
:1045C0005EEF09C058C1C0C1E92FE0789BD168F304
:1045D000092E052AC1F3261737074807590738F06F
:1045E0000E2E07F8E02569F0E025E0640AC0EF63CD
:1045F00007F8009407FADB01B9019D01DC01CA014B
:10460000AD01EF9347D06DD10AD05F91552331F0C2
:104610002BED3FE049E450FD49EC63CF0895DF9373
:10462000DD27B92FBF7740E85FE316161706480766
:104630005B0710F4D92F93D19F938F937F936F9340
:104640003AD2E4EEF0E01AD14CD12F913F914F9144
:104650005F9198D1DD2349F09058A2EA2AED3FE01E
:1046600049EC5FE3D0785D274DDFDF913AC1D9D0C7
:1046700008F481E008950CD034C12CD140F023D14E
:1046800030F021F45F3F19F0F0C051115EC1F3C06A
:1046900039D198F39923C9F35523B1F3951B550BE1
:1046A000BB27AA2762177307840738F09F5F5F4F05
:1046B000220F331F441FAA1FA9F333D00E2E3AF046
:1046C000E0E830D091505040E695001CCAF729D060
:1046D000FE2F27D0660F771F881FBB1F26173707AF
:1046E0004807AB07B0E809F0BB0B802DBF01FF27DF
:1046F00093585F4F2AF09E3F510568F0B6C025C120
:104700005F3FECF3983EDCF3869577956795B79518
:10471000F7959F5FC9F7880F911D9695879597F933
:104720000895E1E0660F771F881FBB1F62177307AC
:104730008407BA0720F0621B730B840BBA0BEE1FC1
:1047400088F7E095089504D06894B111FEC00895EB
:10475000E1D088F09F5790F0B92F9927B751A0F07A
:10476000D1F0660F771F881F991F1AF0BA95C9F705
:1047700012C0B13081F0E8D0B1E00895E5C0672FF4
:10478000782F8827B85F39F0B93FCCF386957795B5
:104790006795B395D9F73EF490958095709561959E
:1047A0007F4F8F4F9F4F0895E89409C097FB3EF4C9
:1047B00090958095709561957F4F8F4F9F4F99236E
:1047C000A9F0F92F96E9BB279395F69587957795EC
:1047D0006795B795F111F8CFFAF4BB0F11F460FFAC
:1047E0001BC06F5F7F4F8F4F9F4F16C0882311F004
:1047F00096E911C0772321F09EE8872F762F05C018
:10480000662371F096E8862F70E060E02AF09A95B2
:10481000660F771F881FDAF7880F9695879597F9A7
:104820000895990F0008550FAA0BE0E8FEEF161641
:104830001706E807F907C0F012161306E407F50794
:1048400098F0621B730B840B950B39F40A2661F008
:10485000232B242B252B21F408950A2609F4A140AB
:10486000A6958FEF811D811D089597F99F6780E8B8
:1048700070E060E008959FEF80EC0895DF93CF93A0
:104880001F930F93FF92EF92DF927B018C0168944C
:1048900005C0DA2EEF0176D0FE01E894A5912591AE
:1048A000359145915591AEF3EF012CDEFE01970154
:1048B000A801DA9479F7DF90EF90FF900F911F91A4
:1048C000CF91DF91089500240A9416161706180652
:1048D0000906089500240A94121613061406050604
:1048E0000895092E0394000C11F4882352F0BB0F95
:1048F00040F4BF2B11F460FF04C06F5F7F4F8F4FF8
:104900009F4F089557FD9058440F551F59F05F3F32
:1049100071F04795880F97FB991F61F09F3F79F0E1
:1049200087950895121613061406551FF2CF469563
:10493000F1DF08C0161617061806991FF1CF8695E5
:104940007105610508940895E894BB2766277727C9
:10495000CB0197F9089565DF08F48FEF08959B0167
:10496000AC0160E070E080E89FE385CE0BD0B9CF6A
:10497000AADF28F0AFDF18F0952309F076CF7BCFC0
:104980001124E3CFBFDFA0F3959FD1F3950F50E043
:10499000551F629FF001729FBB27F00DB11D639FF1
:1049A000AA27F00DB11DAA1F649F6627B00DA11D97
:1049B000661F829F2227B00DA11D621F739FB00D3D
:1049C000A11D621F839FA00D611D221F749F3327AD
:1049D000A00D611D231F849F600D211D822F762F46
:1049E0006A2F11249F5750408AF0E1F088234AF043
:1049F000EE0FFF1FBB1F661F771F881F915050408F
:104A0000A9F79E3F510570F030CF9FCF5F3FECF389
:104A1000983EDCF3869577956795B795F795E7957A
:104A20009F5FC1F7FE2B880F911D9695879597F98B
:104A3000089511F40EF41FCF41C06CDFD0F3992319
:104A4000D9F3CEF39F57550B87FF46D00024A0E63D
:104A500040EA900180585695979528F4805C660F3F
:104A6000771F881F20F026173707480730F4621B8E
:104A7000730B840B202931294A2BA6951794079490
:104A8000202531254A2758F7660F771F881F20F009
:104A900026173707480730F4620B730B840B200D81
:104AA000311D411DA09581F7B901842F9158880FC0
:104AB0009695879508959B01AC0158CF9F3F31F0A3
:104AC000915020F4879577956795B795880F911D3C
:104AD0009695879597F9089591505040660F771FE6
:104AE000881FD2F70895991B79E004C0991F961783
:104AF00008F0961B881F7A95C9F780950895EE0FE8
:104B0000FF1F881F8BBF0790F691E02D19940F931C
:104B10001F93CF93DF938230910510F482E090E0F1
:104B2000E091B905F091BA0530E020E0B0E0A0E0F6
:104B3000309799F42115310509F44AC0281B390B27
:104B400024303105D8F58A819B816115710589F181
:104B5000FB0193838283FE0111C040815181028158
:104B6000138148175907E0F04817590799F410972F
:104B700061F012960C93129713961C933296CF0104
:104B8000DF91CF911F910F9108950093B905109374
:104B9000BA05F4CF2115310551F04217530738F00B
:104BA000A901DB019A01BD01DF01F801C1CFEF01CD
:104BB000F9CF9093BA058093B905CDCFFE01E20FEE
:104BC000F31F819391932250310939832883D7CFE2
:104BD0002091B7053091B805232B41F420911202A2
:104BE000309113023093B8052093B705209110023D
:104BF000309111022115310541F42DB73EB7409196
:104C0000140250911502241B350BE091B705F09169
:104C1000B805E217F307A0F42E1B3F0B281739073E
:104C200078F0AC014E5F5F4F2417350748F04E0F08
:104C30005F1F5093B8054093B705819391939FCF21
:104C4000F0E0E0E09CCFCF93DF930097E9F0FC0128
:104C5000329713821282A091B905B091BA05ED0185
:104C600030E020E01097A1F420813181820F931F62
:104C70002091B7053091B8052817390709F061C0B0
:104C8000F093B805E093B705DF91CF910895EA015D
:104C9000CE17DF07E8F54A815B819E01411551057A
:104CA000B1F7E901FB83EA8349915991C40FD51FFC
:104CB000EC17FD0761F4808191810296840F951FA6
:104CC000E90199838883828193819B838A83F0E0C1
:104CD000E0E012968D919C9113970097B9F52D9174
:104CE0003C911197CD010296820F931F2091B70539
:104CF0003091B8052817390739F6309751F51092D9
:104D0000BA051092B905B093B805A093B705BCCF0A
:104D1000D383C28340815181840F951FC817D9075F
:104D200061F44E5F5F4F88819981480F591F51830D
:104D300040838A819B81938382832115310509F009
:104D4000B0CFF093BA05E093B9059ECFFD01DC0129
:104D5000C0CF13821282D7CFFB01DC0104C08D913A
:104D60000190801921F441505040C8F7881B990BDD
:064D70000895F894FFCF46
:104D760087098709870987098709870987098709AD
:104D86000000BB0580000000000030079206BF0649
:104D96009607F006CE06E20600000000FE0AD20ADA
:104DA6004B0BA80ACB0AB80AA90A0D0A0050574DA0
:104DB6003120000950574D3220000950574D3320FD
:084DC600000950574D34200094
:020000023000CC
:10E000000D9489F10D94B2F10D94B2F10D94B2F129
:10E010000D94B2F10D94B2F10D94B2F10D94B2F1F0
:10E020000D94B2F10D94B2F10D94B2F10D94B2F1E0
:10E030000D94B2F10D94B2F10D94B2F10D94B2F1D0
:10E040000D94B2F10D94B2F10D94B2F10D94B2F1C0
:10E050000D94B2F10D94B2F10D94B2F10D94B2F1B0
:10E060000D94B2F10D94B2F10D94B2F10D94B2F1A0
:10E070000D94B2F10D94B2F10D94B2F10D94B2F190
:10E080000D94B2F10D94B2F10D94B2F10D94B2F180
:10E090000D94B2F10D94B2F10D94B2F10D94B2F170
:10E0A0000D94B2F10D94B2F10D94B2F10D94B2F160
:10E0B0000D94B2F10D94B2F10D94B2F10D94B2F150
:10E0C0000D94B2F10D94B2F10D94B2F10D94B2F140
:10E0D0000D94B2F10D94B2F10D94B2F10D94B2F130
:10E0E0000D94B2F141546D656761323536300041AF
:10E0F000726475696E6F206578706C6F72657220DE
:10E1000073746B3530305632206279204D4C530099
:10E11000426F6F746C6F616465723E004875683F52
:10E1200000436F6D70696C6564206F6E203D200048
:10E130004350552054797065202020203D20005FF9
:10E140005F4156525F415243485F5F3D2000415658
:10E1500052204C696243205665723D20004743437C
:10E160002056657273696F6E203D20004350552024
:10E1700049442020202020203D20004C6F7720663D
:10E18000757365202020203D20004869676820665F
:10E190007573652020203D200045787420667573D6
:10E1A00065202020203D20004C6F636B2066757336
:10E1B000652020203D20004D617220203720323024
:10E1C000313300312E362E3800342E332E350056A2
:10E1D00023202020414444522020206F7020636F70
:10E1E00064652020202020696E73747275637469E1
:10E1F0006F6E2061646472202020496E74657272B3
:10E20000757074006E6F20766563746F7200726A49
:10E210006D702020006A6D70200057686174207056
:10E220006F72743A00506F7274206E6F7420737541
:10E2300070706F72746564004D7573742062652030
:10E2400061206C6574746572002000577269747483
:10E25000696E672045450052656164696E672045B7
:10E26000450045452065727220636E743D00504F35
:10E27000525400303D5A65726F2061646472003FF1
:10E280003D43505520737461747300403D454550C3
:10E29000524F4D207465737400423D426C696E6B41
:10E2A000204C454400453D44756D70204545505215
:10E2B0004F4D00463D44756D7020464C415348001B
:10E2C000483D48656C70004C3D4C69737420492F83
:10E2D0004F20506F72747300513D51756974005234
:10E2E0003D44756D702052414D00563D73686F7707
:10E2F00020696E7465727275707420566563746FF0
:10E30000727300593D506F727420626C696E6B00BD
:10E310002A0011241FBECFEFD1E2DEBFCDBF01E046
:10E320000CBF12E0A0E0B2E0EEE1FDEF03E00BBFB6
:10E3300002C007900D92A030B107D9F712E0A0E01B
:10E34000B2E001C01D92AE30B107E1F70F9460F367
:10E350000D948DFE01E20EBF0FEF0DBF11241FBE05
:10E360000D9460F30D9400F020E030E040ED57E0B4
:10E3700005C0FA013197F1F72F5F3F4F2817390792
:10E38000C0F308959C01260F311DC901A0E0B0E043
:10E390002F5F3F4FABBFFC018791882361F08093D3
:10E3A000C6008091C00086FFFCCF8091C0008064D1
:10E3B0008093C000EACF08958DE08093C6008091DD
:10E3C000C00086FFFCCF8091C00080648093C000B5
:10E3D0008AE08093C6008091C00086FFFCCF8091C8
:10E3E000C00080648093C00008950F94C2F10F9420
:10E3F000DCF10895FC019081992359F09093C600B7
:10E400008091C00086FFFCCF8091C0008064809323
:10E41000C0003196992379F70895282F982F929567
:10E420009F70892F805D8A3308F0895F8093C600D2
:10E430008091C00086FFFCCF8091C00080648093F3
:10E44000C000822F8F70982F905D9A3308F0995FEB
:10E450009093C6008091C00086FFFCCF8091C000E1
:10E4600080648093C00008959C01FB01853691056E
:10E470001CF46330710594F0C90164E670E00F94F8
:10E480002EFE605D7F4F6093C6008091C00086FFC6
:10E49000FCCF8091C00080648093C0002B30310598
:10E4A00014F43297B4F0C90164E670E00F942EFEC4
:10E4B0006AE070E00F942EFE605D7F4F6093C600AF
:10E4C0008091C00086FFFCCF8091C0008064809363
:10E4D000C000C9016AE070E00F942EFEC0968093E0
:10E4E000C6008091C00086FFFCCF8091C000806490
:10E4F0008093C00008951F93182F8EE692EE60E07F
:10E500000F94C2F11093C6008091C00086FFFCCF2B
:10E510008091C00080648093C0000F94DCF11F9153
:10E5200008952F923F924F925F926F927F928F92B7
:10E530009F92AF92BF92CF92DF92EF92FF920F9392
:10E540001F93DF93CF93CDB7DEB762970FB6F894E2
:10E55000DEBF0FBECDBF382E622ECA01DB015C01CB
:10E560006D01772420E2222E2E010894411C511CBB
:10E570008BC081E0A81680E0B80681E0C80680E084
:10E58000D80628F0C601AA27BB270F940DF2BB2797
:10E59000AD2D9C2D8B2D0F940DF28A2D0F940DF225
:10E5A0002092C6008091C00086FFFCCF8091C00001
:10E5B00080648093C0009DE29093C6008091C0006B
:10E5C00086FFFCCF8091C00080648093C0002092C1
:10E5D000C6008091C00086FFFCCF8091C00080649F
:10E5E0008093C00019828601750188249924A1E0D6
:10E5F0003A1651F03A1620F0B2E03B1661F409C029
:10E600000BBFF701779007C0C7010F9477FE782EF4
:10E6100002C0F7017080872D0F940DF22092C60082
:10E620008091C00086FFFCCF8091C0008064809301
:10E63000C000872D8052F401EF70F0708F3520F408
:10E64000E40DF51D708204C0E40DF51D8EE280839B
:10E650000894E11CF11C011D111D0894811C911CE2
:10E6600090E18916910409F0C2CF80E190E0A0E02A
:10E67000B0E0A80EB91ECA1EDB1E198AC2010F9493
:10E68000FAF10F94DCF16A94662009F072CF629679
:10E690000FB6F894DEBF0FBECDBFCF91DF911F91B3
:10E6A0000F91FF90EF90DF90CF90BF90AF909F9031
:10E6B0008F907F906F905F904F903F902F90089534
:10E6C0002F923F924F925F926F927F928F929F9282
:10E6D000AF92BF92CF92DF92EF92FF920F931F9370
:10E6E000DF93CF93CDB7DEB7CD53D1400FB6F894BB
:10E6F000DEBF0FBECDBF01E20EBF0FEF0DBF94B75F
:10E70000F894A89514BE80916000886180936000A1
:10E7100010926000789493FF05C0E0910002F091A0
:10E7200001021995279A2F9A8091C00082608093E8
:10E73000C00080E18093C40088E18093C1000000A4
:10E74000EE24FF24870144E0A42EB12CCC24DD2448
:10E7500024C0C5010197F1F70894E11CF11C011DCB
:10E76000111D21E2E2162EE4F20620E0020720E06D
:10E77000120718F031E0C32ED12CC801B70127ECE5
:10E780003BE140E050E00F9441FE611571058105C9
:10E79000910519F485B1805885B98091C00087FD35
:10E7A00003C0C114D104A9F2A6014F5F5F4FC25E3E
:10E7B000DE4F59834883CE51D140C25EDE4F8881FF
:10E7C0009981CE51D140019711F00D9410FEC05D9A
:10E7D000DE4F19821882C053D14060E0C15DDE4F28
:10E7E0001882CF52D14088249924C35DDE4F19820C
:10E7F0001882CD52D140C05EDE4F188219821A8233
:10E800001B82C052D140CE5CDE4F188219821A8220
:10E810001B82C253D140EE24FF2487010BBFF701B6
:10E8200007911691C45CDE4F19830883CC53D14005
:10E830000D940BFEC25EDE4F28813981CE51D1404E
:10E840002130310509F52091C600C25EDE4F1982E4
:10E850001882CE51D14022C02F5F3F4F4F4F5F4FA4
:10E86000213082E138078AE7480780E0580780F0C6
:10E87000C45CDE4FE881F981CC53D140EF5FFF4F9C
:10E8800019F0EE27FF27099420E030E040E050E047
:10E890008091C00087FFE0CF2091C600C35DDE4FAE
:10E8A00048815981CD52D1404F5F5F4FC35DDE4FEC
:10E8B00059834883CD52D140213209F063C64A3092
:10E8C000510508F05FC60894811C911C53E0851621
:10E8D000910409F059C600E010E018C081E280936D
:10E8E000C6008091C00086FFFCCF8091C00080648C
:10E8F0008093C0002F5F3F4F2931310579F70F9486
:10E90000DCF10F5F1F4F0530110519F020E030E0FA
:10E91000E5CF10920A0210920B0210920C02109294
:10E920000D02109206021092070210920802109235
:10E930000902109202021092030210920402109235
:10E9400005028FEE90EE60E00F94F5F180E191EE1C
:10E9500060E00F94C2F18091C00087FFFCCF9091DE
:10E96000C600903608F09F759032B8F09093C600BC
:10E970008091C00086FFFCCF8091C00080648093AE
:10E98000C000A0E2A093C6008091C00086FFFCCF2B
:10E990008091C00080648093C000983409F4D7C18E
:10E9A0009934B8F4923409F459C1933458F490333B
:10E9B00019F1903308F4E3C59F33A1F1903409F0C5
:10E9C000DEC5BDC0953409F470C1963409F0D7C5D1
:10E9D00098C1923509F42BC2933538F49C3409F46C
:10E9E000F5C1913509F0CBC518C2963509F445C279
:10E9F000993509F0C4C567C483E792EE62E00F94CD
:10EA0000F5F110920602109207021092080210927D
:10EA1000090210920A0210920B0210920C0210923C
:10EA20000D0213C18FE792EE62E00F94F5F18FEEC5
:10EA300090EE60E00F94F5F181E291EE60E00F94CA
:10EA4000C2F187EB91EE60E00F94F5F180E391EE77
:10EA500060E00F94C2F184EE90EE60E00F94F5F167
:10EA60008FE391EE60E00F94C2F186E090E061E008
:10EA700070E00F9434F20F94DCF18DE591EE60E0DC
:10EA80000F94C2F189EC91EE60E00F94F5F18EE401
:10EA900091EE60E00F94C2F183EC91EE60E00F9490
:10EAA000F5F18CE691EE60E00F94C2F18EE10F94E7
:10EAB0000DF288E90F940DF281E00F940DF20F949E
:10EAC000DCF18BE791EE60E00F94C2F119E0E0E039
:10EAD000F0E010935700E4918E2F0F940DF20F94F5
:10EAE000DCF18AE891EE60E00F94C2F1E3E0F0E03F
:10EAF00010935700E4918E2F0F940DF20F94DCF1D8
:10EB000089E991EE60E00F94C2F1E2E0F0E0109349
:10EB10005700E4918E2F0F940DF20F94DCF188EAE8
:10EB200091EE60E00F94C2F1E1E0F0E01093570045
:10EB30001491812F0F940DF20F94DCF107CF8BE825
:10EB400092EE62E00F94F5F18BE492EE60E00F94A8
:10EB5000F5F10F94DCF100E010E019C0C8016F2D51
:10EB60000F947FFEFF2031F489E492EE60E00F9471
:10EB7000C2F10BC0F092C6008091C00086FFFCCFAE
:10EB80008091C00080648093C0000F5F1F4FC80158
:10EB900081519F41A0E0B0E0ABBFFC01F790BAE229
:10EBA000FB1621F0E2E000301E07C1F60F94DCF105
:10EBB0000F94DCF187E592EE60E00F94F5F10F948D
:10EBC000DCF1CC24DD2400E010E01EC0C8010F946D
:10EBD00077FEF82E882331F489E492EE60E00F94FA
:10EBE000C2F10BC08093C6008091C00086FFFCCFAD
:10EBF0008091C00080648093C000FE1419F00894D6
:10EC0000C11CD11C0F5F1F4FC80181519F41A0E063
:10EC1000B0E0ABBFFC01E790FAE2EF1621F022E092
:10EC20000030120799F60F94DCF10F94DCF182E6C4
:10EC300092EE60E00F94C2F1C60161E070E00F94C3
:10EC400034F20F94DCF10F94DCF110920202109276
:10EC50000302109204021092050278CE89E992EE26
:10EC600062E00F94F5F1279A2F9A16C02F9880E052
:10EC700090E0E0EDF7E03197F1F7019684369105E9
:10EC8000C1F72F9A80E090E0E0EDF7E03197F1F7DF
:10EC9000019684369105C1F78091C00087FFE6CFC9
:10ECA0008091C00087FFFCCF64C485EA92EE62E0E9
:10ECB0000F94F5F140910202509103026091040219
:10ECC0007091050281E020E10F9491F2809102029F
:10ECD00090910302A0910402B091050280509F4FD1
:10ECE000AF4FBF4F8093020290930302A0930402A0
:10ECF000B093050280509041A040B04008F426CE69
:10ED0000A4CF83EB92EE62E00F94F5F140910602FE
