:10000000F6C0000024C1000022C1000020C1000091
:100010001EC100001CC100001AC1000018C1000070
:1000200016C1000014C1000012C1000010C1000080
:100030000EC100000CC100000AC1000008C1000090
:1000400006C1000099C6000002C1000000C1000006
:10005000FEC00000FCC00000FAC00000FEC40000AA
:10006000F6C00000CCC50000A1C50000F0C0000033
:10007000EEC00000ECC00000EAC00000E8C00000D4
:100080004EC60000E4C00000E2C00000E0C0000076
:10009000DEC00000DCC00000DAC00000D8C00000F4
:1000A000D6C00000D4C000000DC60000D0C00000C3
:1000B000CEC00000CCC00000CAC00000D6C5000001
:1000C000C6C00000C4C00000C2C00000C0C0000024
:1000D000BEC00000BCC0000033C5000008C5000061
:1000E000B6C0000000000A0B02090C0D0E08070341
:1000F00004010000000000000000000000000000FB
:1001000000000000000000000000000000000000EF
:1001100012111000000000000000000000000000AC
:100120000000000000000000000000002200250088
:1001300028002B002E0031003400020100000501D0
:1001400008010B0100002100240027002A002D00D7
:100150003000330001010000040107010A01050518
:100160000505070508080808020202020A0A08082D
:10017000040404040101010101010101030303035B
:1001800003030303040707070C0C0C0C0C0C0C0CEA
:100190000202020206060606060606060B0B0B0BFB
:1001A0000B0B0B0B01021020200808102040102020
:1001B000408002010201080402010102040810202B
:1001C0004080804020100804020180040201804029
:1001D0002010080402010804020101020408102092
:1001E000408001020408102040800407EA0811241E
:1001F0001FBECFEFD1E2DEBFCDBF00E00CBF12E0EB
:10020000A0E0B2E0E6ECF6E100E00BBF02C0079030
:100210000D92AC31B107D9F724E0ACE1B2E001C0F6
:100220001D92AC30B207E1F710E0C6EFD0E000E07D
:1002300006C021970109802FFE010E943909C53FA0
:10024000D10780E00807A9F7ABD60C94520BD8CEA3
:10025000FC01A089B18982E08C93A485B5851C92AC
:10026000A685B7858FEC8C93108EA489B58986E01E
:100270008C93A289B3898C9180618C93A289B38974
:100280008C9188608C93A289B3898C9180688C93BF
:100290000288F389E02D80818F7D80830895CF933C
:1002A000DF93DC018C91803308F06EC0CB01FB0141
:1002B000EC55FE4F2491825A9E4FFC018491882375
:1002C00099F090E0880F991FFC01EC5BFE4FC591FF
:1002D000D491FC01E65DFE4F859194918FB7F8941F
:1002E000E881E22BE8838FBF8C91282F30E0F90161
:1002F000EE0FFF1FE20FF31FE45DFD4F962F9F737C
:100300006081607C692B60839EE811969C931197B5
:1003100094E612969C9312972CE0622F9ED7829FB0
:10032000B001112430E020E0AB01420F531FFA016D
:10033000EE0FFF1FE40FF51FE45DFD4F908196FD6A
:1003400016C02F5F3F4F2C30310571F7813001F51A
:100350001092800082E080938100109285001092BC
:100360008400B19A80916F00826080936F00EC915D
:100370008E2F90E0FC01EE0FFF1FE80FF91FE45DE8
:10038000FD4F8081806480838C91DF91CF910895AF
:10039000823061F410929000809391001092950049
:1003A0001092940088BB80937100E1CF833069F490
:1003B0001092A00082E08093A1001092A5001092FC
:1003C000A40089BB80937200D2CF8111D0CF10924C
:1003D000200182E0809321011092250110922401D6
:1003E0008ABB80937300C3CFAF92BF92CF92DF924C
:1003F000EF92FF920F931F93CF93DF936C017B01DA
:100400008B01040F151FEB015E01AE18BF08C0176A
:10041000D10759F06991D601ED91FC910190F081DD
:10042000E02DC6011995892B79F7C501DF91CF9190
:100430001F910F91FF90EF90DF90CF90BF90AF9002
:100440000895FC01538D448D252F30E0842F90E0DA
:10045000821B930B541710F0CF96089501970895BF
:10046000FC01918D828D981761F0A28DAE0FBF2F88
:10047000B11D5D968C91928D9F5F9F73928F90E0DE
:1004800008958FEF9FEF0895FC01918D828D98174D
:1004900031F0828DE80FF11D858D90E008958FEF8A
:1004A0009FEF08952FB7F894809128029091290228
:1004B000A0912A02B0912B022FBF8093C402909387
:1004C000C502A093C602B093C7028CEB92E0DCDFBA
:1004D00097FF26C02FB7F8948091280290912902A7
:1004E000A0912A02B0912B022FBF4091C4025091DB
:1004F000C5026091C6027091C702841B950BA60BC2
:10050000B70B4091C0025091C1026091C20270913C
:10051000C30284179507A607B707B8F28FEF9FEFBE
:100520000895FC01918D228D892F90E0805C9F4F72
:10053000821B91098F73992708958CEB92E0F1DF6C
:1005400021E0892B09F420E0822F089589E593E0CA
:10055000E8DF21E0892B09F420E0822F0895FC01D7
:10056000A48DA80FB92FB11DA35ABF4F2C91848D14
:1005700090E001968F739927848FA689B7892C9371
:10058000A089B1898C91837080648C93938D848DC4
:10059000981306C00288F389E02D80818F7D8083C7
:1005A0000895EF92FF920F931F93CF93DF93EC0187
:1005B00081E0888F9B8D8C8D98131AC0E889F9890A
:1005C000808185FF15C09FB7F894EE89FF8960830D
:1005D000E889F98980818370806480839FBF81E08E
:1005E00090E0DF91CF911F910F91FF90EF900895D0
:1005F000F62E0B8D10E00F5F1F4F0F731127E02EAB
:100600008C8D8E110BC00FB607FCFACFE889F989E3
:10061000808185FFF5CFCE01A2DFF2CFEB8DEC0F0D
:10062000FD2FF11DE35AFF4FF0829FB7F8940B8F17
:10063000EA89FB8980818062D0CFCF93DF93EC0180
:10064000888D8823B1F0AA89BB89E889F9898C91C2
:1006500085FD03C0808186FD0CC00FB607FCF7CF77
:100660008C9185FFF2CF808185FFEDCFCE0177DFC2
:10067000EACFDF91CF91089580E090E0892B21F0BF
:1006800065DF81110E94000080E090E0892B49F035
:1006900080E090E0892B29F00E94000081110E94E7
:1006A000000080E090E0892B49F080E090E0892B09
:1006B00029F00E94000081110E94000080E090E07B
:1006C000892B21F03ADF81110C9400000895282F26
:1006D00030E0F901EC51FF4F9491F901EC55FE4FD8
:1006E0004491225A3E4FF9012491222309F434C047
:1006F000992309F191509231F0F4E92FF0E0882725
:10070000EC57FC4F8F4FB5C5B503B9039603AD0346
:10071000B1039B03BC03C203C603CC03D003D403C1
:10072000DA03DE039B03E203E803EC03809180001D
:100730008F7780938000E22FF0E0EE0FFF1FE65DE1
:10074000FE4FA591B4918FB7F894EC91611148C018
:1007500040954E234C938FBF0895809180008F7DEC
:10076000E8CF80918000877FE4CF84B58F7784BD08
:10077000E2CF84B58F7DFBCF8091B0008F778093DF
:10078000B000D9CF8091B0008F7DF9CF80919000DB
:100790008F7780939000CFCF809190008F7DF9CF9D
:1007A00080919000877FF5CF8091A0008F77809314
:1007B000A000C1CF8091A0008F7DF9CF8091A000D3
:1007C000877FF5CF809120018F7780932001B3CF71
:1007D000809120018F7DF9CF80912001877FF5CF17
:1007E0004E2BB8CFDC01EC91E03390F511968C9153
:1007F000119728E830E0281B310987FD3395220F37
:10080000331F220F331F6217730784F012968C91E7
:1008100028E532E0281B310987FD3395220F331F6D
:10082000220F331F621773070CF49B01225031090A
:10083000220F331F4FB7F8948E2F90E0FC01EE0F7C
:10084000FF1FE80FF91FE45DFD4F328321834FBF87
:100850000895AF92BF92CF92DF92EF92FF920F93E3
:100860001F93CF93DF936B017A01EC01C45EDD4FE0
:1008700028813CE0389F8001399F100D1124A09001
:100880002002B12C27FF1FC0FB011182108288813A
:100890008F5F888388819801280F311D87FD3A95E5
:1008A000F6012A153B051CF488818C30BCF180814F
:1008B0009181049680349C4908F471C0F6018081CE
:1008C000918104966EC088819801280F311D87FDA3
:1008D0003A952A153B05DCF68881A801480F511D81
:1008E00087FD5A95FA01EE0FFF1FE40FF51FE45D37
:1008F000FD4F808186FFCBCF8881F801E80FF11D85
:1009000087FDFA95CF01EE0FFF1FE80FF91FE45D99
:10091000FD4F808160E08F73DADEB9CF80819181F5
:100920002881A801420F511D27FD5A959A01FA010D
:10093000EE0FFF1FE20FF31FE45DFD4F21813281B7
:10094000820F931FF7019183808388819801280F7C
:10095000311D87FD3A95F901EE0FFF1FE20FF31FDE
:10096000E45DFD4F808186FF21C08881080F111D45
:1009700087FD1A95F801EE0FFF1FE00FF11FE45DF0
:10098000FD4F808161E08F73DF91CF911F910F91B7
:10099000FF90EF90DF90CF90BF90AF9098CE80E423
:1009A0009CE9F701918380838FEF8883DF91CF915A
:1009B0001F910F91FF90EF90DF90CF90BF90AF907D
:1009C00008958F929F92AF92BF920F931F93CF93F0
:1009D000DF93CDB7DEB7A1970FB6F894DEBF0FBE99
:1009E000CDBF19A2423008F44AE08E010F5D1F4FBF
:1009F000842E912CB12CA12CA5019401FDD3E62FBE
:100A0000B901CA01EA303CF5E05DD801EE938D01F1
:100A1000232B242B252B81F790E080E0109761F0A9
:100A2000FD0101900020E9F73197AF014A1B5B0BF4
:100A3000BD018CEB92E0D8DCA1960FB6F894DEBF36
:100A40000FBECDBFDF91CF911F910F91BF90AF909F
:100A50009F908F900895E95CD8CF1F920F920FB6A8
:100A60000F9211242F933F938F939F93AF93BF9334
:100A70008091280290912902A0912A02B0912B0224
:100A80003091270223E0230F2D3758F50196A11D41
:100A9000B11D209327028093280290932902A093EE
:100AA0002A02B0932B028091230290912402A091FC
:100AB0002502B09126020196A11DB11D809323024B
:100AC00090932402A0932502B0932602BF91AF9188
:100AD0009F918F913F912F910F900FBE0F901F907C
:100AE000189526E8230F0296A11DB11DD2CF1F92A3
:100AF0000F920FB60F9211240BB60F922F933F93C4
:100B00004F935F936F937F938F939F93AF93BF9315
:100B1000EF93FF938CEB92E022DDFF91EF91BF9179
:100B2000AF919F918F917F916F915F914F913F9185
:100B30002F910F900BBE0F900FBE0F901F90189526
:100B40001F920F920FB60F9211240BB60F922F9394
:100B50008F939F93EF93FF93E091CC02F091CD029E
:100B60008081E091D202F091D30282FD1DC090817C
:100B70008091D5028F5F8F732091D602821741F04A
:100B8000E091D502F0E0E454FD4F958F8093D502BB
:100B9000FF91EF919F918F912F910F900BBE0F902E
:100BA0000FBE0F901F9018958081F2CF1F920F9269
:100BB0000FB60F9211240BB60F922F933F934F93C2
:100BC0005F936F937F938F939F93AF93BF93EF93B5
:100BD000FF9389E593E0C3DCFF91EF91BF91AF9163
:100BE0009F918F917F916F915F914F913F912F9145
:100BF0000F900BBE0F900FBE0F901F9018951F9275
:100C00000F920FB60F9211240BB60F922F938F9362
:100C10009F93EF93FF93E0916903F0916A038081C2
:100C2000E0916F03F091700382FD1DC0908180916F
:100C300072038F5F8F7320917303821741F0E091ED
:100C40007203F0E0E75AFC4F958F80937203FF9197
:100C5000EF919F918F912F910F900BBE0F900FBE30
:100C60000F901F9018958081F2CF1F920F920FB6B0
:100C70000F9211240BB60F922F933F934F935F93D4
:100C80006F937F938F939F93AF93BF93EF93FF9354
:100C900048E251E064E271E090E080E0DADDFF914B
:100CA000EF91BF91AF919F918F917F916F915F91E4
:100CB0004F913F912F910F900BBE0F900FBE0F9051
:100CC0001F9018951F920F920FB60F9211240BB61A
:100CD0000F922F933F934F935F936F937F938F93D5
:100CE0009F93AF93BF93EF93FF9348EA50E064EA7A
:100CF00070E083E090E0ADDDFF91EF91BF91AF91A7
:100D00009F918F917F916F915F914F913F912F9123
:100D10000F900BBE0F900FBE0F901F9018951F9253
:100D20000F920FB60F9211240BB60F922F933F9391
:100D30004F935F936F937F938F939F93AF93BF93E3
:100D4000EF93FF9348E950E064E970E082E090E0BF
:100D500080DDFF91EF91BF91AF919F918F917F9136
:100D60006F915F914F913F912F910F900BBE0F901C
:100D70000FBE0F901F9018951F920F920FB60F92F3
:100D800011240BB60F922F933F934F935F936F9362
:100D90007F938F939F93AF93BF93EF93FF9348E815
:100DA00050E064E870E081E090E053DDFF91EF9166
:100DB000BF91AF919F918F917F916F915F914F9173
:100DC0003F912F910F900BBE0F900FBE0F901F9071
:100DD0001895FC0190912002903398F481E0890FDE
:100DE000809320029083892F90E0FC01EE0FFF1F7B
:100DF000E80FF91FE45DFD4F88EB9BE09283818350
:100E000008958FEF808308951092BF021092BE0262
:100E100048EE53E060E070E04093C0025093C1029E
:100E20006093C2027093C3028AE092E09093BD0285
:100E30008093BC0225E331E03093C9022093C802BD
:100E400024E331E03093CB022093CA0220E331E067
:100E50003093CD022093CC0221E331E03093CF02D6
:100E60002093CE0222E331E03093D1022093D002CE
:100E700026E331E03093D3022093D2021092D502C0
:100E80001092D6021092D7021092D80210925C03F0
:100E900010925B0340935D0350935E0360935F0386
:100EA0007093600390935A038093590385EC90E00C
:100EB000909366038093650384EC90E090936803BD
:100EC0008093670380EC90E090936A0380936903BA
:100ED00081EC90E090936C0380936B0382EC90E044
:100EE00090936E0380936D0386EC90E09093700373
:100EF00080936F0310927203109273031092740325
:100F000010927503109203041092020410920504CB
:100F100010920404109207041092060461E070E03D
:100F200090E080E0D3D20097E1F0909303048093A7
:100F300002041092050410920404209106043091DA
:100F40000704232B11F4FC01108210920704109265
:100F500006046AE172E080910204909103049BD33D
:100F600013C08091020490910304009709F025D2E8
:100F700010920304109202041092070410920604C7
:100F800010920504109204048FEF93E022DF8CEF9F
:100F900093E01FDF89EF93E01CDF86EF93E019CF2A
:100FA000789484B5826084BD84B5816084BD85B544
:100FB000826085BD85B5816085BD80916E00816050
:100FC00080936E00109281008091810082608093F6
:100FD00081008091810081608093810080918000F8
:100FE0008160809380008091B10084608093B10023
:100FF0008091B00081608093B00080919100826008
:101000008093910080919100816080939100809104
:1010100090008160809390008091A1008260809315
:10102000A1008091A10081608093A1008091A00027
:1010300081608093A00080912101826080932101D2
:101040008091210181608093210180912001816044
:101050008093200180917A00846080937A0080914F
:101060007A00826080937A0080917A008160809318
:101070007A0080917A00806880937A001092C10093
:1010800089E593E0E5D88CEB92E0E2D869E070E086
:101090008FEF93E004D96AE070E08CEF93E0FFD823
:1010A0006BE070E089EF93E0FAD86CE070E086EFD7
:1010B00093E0F5D88CEB92E034DA892B09F462C026
:1010C000F1D9FC0197FD82C08D32910521F0C097C6
:1010D0000A9708F075C0C12CD12C7601C0E0E13030
:1010E000F105D1F0ED32F10509F46EC0CF01C097E2
:1010F0000A9790F4AAE0B0E0A701960173D06F01BF
:10110000FF0FEE08FF08C60ED71EE81EF91E80E38B
:10111000C81AD108E108F1088CEB92E0A1D9C2D934
:10112000FC01C0970A97D8F2E130F105C1F2CC2357
:1011300041F0F094E094D094C094C11CD11CE11C07
:10114000F11CD0922202C09221020D2C000CEE085C
:10115000FF084AE0C701B601F7FE0CC06DE28CEB58
:1011600092E01FDA66277727CB016C197D098E097B
:101170009F094AE026DC42E050E068E172E08CEB37
:1011800092E032D9E0902102F0902202B701675E2E
:101190007F4F8FEF93E026DBB701605B7F4F8CEFD3
:1011A00093E020DBB7016E527F4F89EF93E01ADBAB
:1011B000B7016F517F4F86EF93E014DB5DDA7ACF92
:1011C0008CEB92E04DD97CCFC1E0A6CFC12CD12CC5
:1011D0007601B7CF8091020490910304009709F043
:1011E000ECC008952BD0A59F900DB49F900DA49FA7
:1011F000800D911D11240895A1E21A2EAA1BBB1B7C
:10120000FD010DC0AA1FBB1FEE1FFF1FA217B307D2
:10121000E407F50720F0A21BB30BE40BF50B661FE8
:10122000771F881F991F1A9469F7609570958095AC
:1012300090959B01AC01BD01CF010895A29FB00123
:10124000B39FC001A39F700D811D1124911DB29FFA
:10125000700D811D1124911D0895991B79E004C022
:10126000991F961708F0961B881F7A95C9F78095E5
:101270000895EE0FFF1F881F8BBF0790F691E02D9A
:1012800019940F931F93CF93DF938230910510F43D
:1012900082E090E0E0910A04F0910B0430E020E05D
:1012A000B0E0A0E0309799F42115310509F44AC067
:1012B000281B390B24303105D8F58A819B816115B3
:1012C000710589F1FB0193838283FE0111C0408186
:1012D00051810281138148175907E0F048175907D7
:1012E00099F4109761F012960C93129713961C9331
:1012F0003296CF01DF91CF911F910F910895009306
:101300000A0410930B04F4CF2115310551F0421754
:10131000530738F0A901DB019A01BD01DF01F80193
:10132000C1CFEF01F9CF90930B0480930A04CDCF86
:10133000FE01E20FF31F819391932250310939830B
:101340002883D7CF2091080430910904232B41F43E
:101350002091020230910302309309042093080483
:1013600020910002309101022115310541F42DB781
:101370003EB74091040250910502241B350BE091C9
:101380000804F0910904E217F307A0F42E1B3F0BA9
:101390002817390778F0AC014E5F5F4F24173507E7
:1013A00048F04E0F5F1F5093090440930804819347
:1013B00091939FCFF0E0E0E09CCFCF93DF93009735
:1013C000E9F0FC01329713821282A0910A04B091D5
:1013D0000B04ED0130E020E01097A1F42081318171
:1013E000820F931F209108043091090428173907B0
:1013F00009F061C0F0930904E0930804DF91CF91F4
:101400000895EA01CE17DF07E8F54A815B819E0166
:1014100041155105B1F7E901FB83EA8349915991DF
:10142000C40FD51FEC17FD0761F4808191810296EE
:10143000840F951FE90199838883828193819B831F
:101440008A83F0E0E0E012968D919C9113970097CB
:10145000B9F52D913C911197CD010296820F931F02
:1014600020910804309109042817390739F630977C
:1014700051F510920B0410920A04B0930904A09342
:101480000804BCCFD383C28340815181840F951F50
:10149000C817D90761F44E5F5F4F88819981480F63
:1014A000591F518340838A819B81938382832115B5
:1014B000310509F0B0CFF0930B04E0930A049ECFFE
:1014C000FD01DC01C0CF13821282D7CF4F925F9211
:1014D0006F927F928F929F92AF92BF92CF92DF9244
:1014E000EF92FF920F931F93CF93DF938C0100979E
:1014F00091F4CB01DF91CF911F910F91FF90EF906D
:10150000DF90CF90BF90AF909F908F907F906F9023
:101510005F904F90B6CEFC01E60FF71F9C01225062
:101520003109E217F30708F4AAC0D901CD91DC9183
:101530001197C617D70718F1C530D10570F0CE0145
:1015400004978617970748F0C61BD70B2297C193BD
:10155000D1936D937C93CF0130DFC801DF91CF91A0
:101560001F910F91FF90EF90DF90CF90BF90AF90C1
:101570009F908F907F906F905F904F9008955B0148
:10158000AC1ABD0A4C018C0E9D1EA0910A04B091AC
:101590000B04512C412CF12CE12C109731F580914A
:1015A0000804909109048815990509F05CC0461655
:1015B000570608F058C080910002909101020097F0
:1015C00041F48DB79EB74091040250910502841BEF
:1015D000950BE817F90708F052C0F0930904E0935F
:1015E0000804F90171836083B8CF8D919C911197A4
:1015F00012966C90129713967C901397A815B905C4
:1016000059F56C0142E0C40ED11CCA14DB0420F170
:10161000AC014A195B09DA011296159780F06282D3
:10162000738251834083D9016D937C93E114F1045B
:1016300071F0D7011396FC93EE9312978ECF2296FA
:101640008C0F9D1FF90191838083F301EFCFF093FD
:101650000B04E0930A0481CF4816590608F42C01C4
:101660007D01D3019ACFCB010CDE7C01009739F0CC
:10167000AE01B80107D0C801A0DE87016ECF10E02F
:1016800000E06BCFFB01DC0102C001900D924150E4
:101690005040D8F70895FB01DC0101900D92002025
:1016A000E1F7089510E0C6EFD0E000E005C0802F1C
:1016B000FE01DFDD2196011DC73FD10780E008074D
:0616C000B1F7F894FFCF22
:1016C60000000C04800000000000D102F401210299
:0C16D6001D039102300244020D0A0000C6
:00000001FF
